{
	"credit/full.sol": {
		"SimplifiedDemo": {
			"abi": [
				{
					"inputs": [],
					"name": "demonstrateSecurity",
					"outputs": [
						{
							"internalType": "bool",
							"name": "secure",
							"type": "bool"
						}
					],
					"stateMutability": "nonpayable",
					"type": "function"
				},
				{
					"inputs": [],
					"name": "demonstrateVulnerability",
					"outputs": [
						{
							"internalType": "uint256",
							"name": "creditsBefore",
							"type": "uint256"
						},
						{
							"internalType": "uint256",
							"name": "creditsAfter",
							"type": "uint256"
						},
						{
							"internalType": "bool",
							"name": "exploited",
							"type": "bool"
						}
					],
					"stateMutability": "nonpayable",
					"type": "function"
				},
				{
					"inputs": [],
					"name": "measureGas",
					"outputs": [
						{
							"internalType": "uint256",
							"name": "unsafeGas",
							"type": "uint256"
						},
						{
							"internalType": "uint256",
							"name": "safeGas",
							"type": "uint256"
						}
					],
					"stateMutability": "nonpayable",
					"type": "function"
				}
			],
			"devdoc": {
				"kind": "dev",
				"methods": {},
				"version": 1
			},
			"evm": {
				"assembly": "    /* \"credit/full.sol\":1429:3263  contract SimplifiedDemo {... */\n  mstore(0x40, 0x80)\n  callvalue\n  dup1\n  iszero\n  tag_1\n  jumpi\n  revert(0x00, 0x00)\ntag_1:\n  pop\n  dataSize(sub_0)\n  dup1\n  dataOffset(sub_0)\n  0x00\n  codecopy\n  0x00\n  return\nstop\n\nsub_0: assembly {\n        /* \"credit/full.sol\":1429:3263  contract SimplifiedDemo {... */\n      mstore(0x40, 0x80)\n      callvalue\n      dup1\n      iszero\n      tag_1\n      jumpi\n      revert(0x00, 0x00)\n    tag_1:\n      pop\n      jumpi(tag_2, lt(calldatasize, 0x04))\n      shr(0xe0, calldataload(0x00))\n      dup1\n      0x97382f9e\n      eq\n      tag_3\n      jumpi\n      dup1\n      0xc4fe82ab\n      eq\n      tag_4\n      jumpi\n      dup1\n      0xe66fc5ac\n      eq\n      tag_5\n      jumpi\n    tag_2:\n      revert(0x00, 0x00)\n        /* \"credit/full.sol\":1464:2140  function demonstrateVulnerability() external returns (... */\n    tag_3:\n      tag_6\n      tag_7\n      jump\t// in\n    tag_6:\n      mload(0x40)\n      tag_8\n      swap4\n      swap3\n      swap2\n      swap1\n      tag_9\n      jump\t// in\n    tag_8:\n      mload(0x40)\n      dup1\n      swap2\n      sub\n      swap1\n      return\n        /* \"credit/full.sol\":2511:3261  function measureGas() external returns (uint256 unsafeGas, uint256 safeGas) {... */\n    tag_4:\n      tag_10\n      tag_11\n      jump\t// in\n    tag_10:\n      mload(0x40)\n      tag_12\n      swap3\n      swap2\n      swap1\n      tag_13\n      jump\t// in\n    tag_12:\n      mload(0x40)\n      dup1\n      swap2\n      sub\n      swap1\n      return\n        /* \"credit/full.sol\":2150:2501  function demonstrateSecurity() external returns (bool secure) {... */\n    tag_5:\n      tag_14\n      tag_15\n      jump\t// in\n    tag_14:\n      mload(0x40)\n      tag_16\n      swap2\n      swap1\n      tag_17\n      jump\t// in\n    tag_16:\n      mload(0x40)\n      dup1\n      swap2\n      sub\n      swap1\n      return\n        /* \"credit/full.sol\":1464:2140  function demonstrateVulnerability() external returns (... */\n    tag_7:\n        /* \"credit/full.sol\":1527:1548  uint256 creditsBefore */\n      0x00\n        /* \"credit/full.sol\":1558:1578  uint256 creditsAfter */\n      0x00\n        /* \"credit/full.sol\":1588:1602  bool exploited */\n      0x00\n        /* \"credit/full.sol\":1619:1648  SimpleUnsafeVault unsafeVault */\n      0x00\n        /* \"credit/full.sol\":1651:1674  new SimpleUnsafeVault() */\n      mload(0x40)\n      tag_19\n      swap1\n      tag_20\n      jump\t// in\n    tag_19:\n      mload(0x40)\n      dup1\n      swap2\n      sub\n      swap1\n      0x00\n      create\n      dup1\n      iszero\n      dup1\n      iszero\n      tag_21\n      jumpi\n      returndatacopy(0x00, 0x00, returndatasize)\n      revert(0x00, returndatasize)\n    tag_21:\n      pop\n        /* \"credit/full.sol\":1619:1674  SimpleUnsafeVault unsafeVault = new SimpleUnsafeVault() */\n      swap1\n      pop\n        /* \"credit/full.sol\":1741:1752  unsafeVault */\n      dup1\n        /* \"credit/full.sol\":1741:1763  unsafeVault.getCredits */\n      0xffffffffffffffffffffffffffffffffffffffff\n      and\n      0x3b66e9f6\n        /* \"credit/full.sol\":1772:1776  this */\n      address\n        /* \"credit/full.sol\":1741:1778  unsafeVault.getCredits(address(this)) */\n      mload(0x40)\n      dup3\n      0xffffffff\n      and\n      0xe0\n      shl\n      dup2\n      mstore\n      0x04\n      add\n      tag_22\n      swap2\n      swap1\n      tag_23\n      jump\t// in\n    tag_22:\n      0x20\n      mload(0x40)\n      dup1\n      dup4\n      sub\n      dup2\n      dup7\n      gas\n      staticcall\n      iszero\n      dup1\n      iszero\n      tag_25\n      jumpi\n      returndatacopy(0x00, 0x00, returndatasize)\n      revert(0x00, returndatasize)\n    tag_25:\n      pop\n      pop\n      pop\n      pop\n      mload(0x40)\n      returndatasize\n      not(0x1f)\n      0x1f\n      dup3\n      add\n      and\n      dup3\n      add\n      dup1\n      0x40\n      mstore\n      pop\n      dup2\n      add\n      swap1\n      tag_26\n      swap2\n      swap1\n      tag_27\n      jump\t// in\n    tag_26:\n        /* \"credit/full.sol\":1725:1778  creditsBefore = unsafeVault.getCredits(address(this)) */\n      swap4\n      pop\n        /* \"credit/full.sol\":1889:1900  unsafeVault */\n      dup1\n        /* \"credit/full.sol\":1889:1914  unsafeVault.removeCredits */\n      0xffffffffffffffffffffffffffffffffffffffff\n      and\n      0x2bc22b1d\n        /* \"credit/full.sol\":1915:1916  1 */\n      0x01\n        /* \"credit/full.sol\":1889:1917  unsafeVault.removeCredits(1) */\n      mload(0x40)\n      dup3\n      0xffffffff\n      and\n      0xe0\n      shl\n      dup2\n      mstore\n      0x04\n      add\n      tag_28\n      swap2\n      swap1\n      tag_29\n      jump\t// in\n    tag_28:\n      0x00\n      mload(0x40)\n      dup1\n      dup4\n      sub\n      dup2\n      0x00\n      dup8\n      dup1\n      extcodesize\n      iszero\n      dup1\n      iszero\n      tag_30\n      jumpi\n      revert(0x00, 0x00)\n    tag_30:\n      pop\n      gas\n      call\n      iszero\n      dup1\n      iszero\n      tag_32\n      jumpi\n      returndatacopy(0x00, 0x00, returndatasize)\n      revert(0x00, returndatasize)\n    tag_32:\n      pop\n      pop\n      pop\n      pop\n        /* \"credit/full.sol\":1975:1986  unsafeVault */\n      dup1\n        /* \"credit/full.sol\":1975:1997  unsafeVault.getCredits */\n      0xffffffffffffffffffffffffffffffffffffffff\n      and\n      0x3b66e9f6\n        /* \"credit/full.sol\":2006:2010  this */\n      address\n        /* \"credit/full.sol\":1975:2012  unsafeVault.getCredits(address(this)) */\n      mload(0x40)\n      dup3\n      0xffffffff\n      and\n      0xe0\n      shl\n      dup2\n      mstore\n      0x04\n      add\n      tag_33\n      swap2\n      swap1\n      tag_23\n      jump\t// in\n    tag_33:\n      0x20\n      mload(0x40)\n      dup1\n      dup4\n      sub\n      dup2\n      dup7\n      gas\n      staticcall\n      iszero\n      dup1\n      iszero\n      tag_35\n      jumpi\n      returndatacopy(0x00, 0x00, returndatasize)\n      revert(0x00, returndatasize)\n    tag_35:\n      pop\n      pop\n      pop\n      pop\n      mload(0x40)\n      returndatasize\n      not(0x1f)\n      0x1f\n      dup3\n      add\n      and\n      dup3\n      add\n      dup1\n      0x40\n      mstore\n      pop\n      dup2\n      add\n      swap1\n      tag_36\n      swap2\n      swap1\n      tag_27\n      jump\t// in\n    tag_36:\n        /* \"credit/full.sol\":1960:2012  creditsAfter = unsafeVault.getCredits(address(this)) */\n      swap3\n      pop\n        /* \"credit/full.sol\":2050:2067  type(uint256).max */\n      0xffffffffffffffffffffffffffffffffffffffffffffffffffffffffffffffff\n        /* \"credit/full.sol\":2034:2046  creditsAfter */\n      dup4\n        /* \"credit/full.sol\":2034:2067  creditsAfter == type(uint256).max */\n      eq\n        /* \"credit/full.sol\":2022:2067  exploited = creditsAfter == type(uint256).max */\n      swap2\n      pop\n        /* \"credit/full.sol\":2086:2133  return (creditsBefore, creditsAfter, exploited) */\n      pop\n        /* \"credit/full.sol\":1464:2140  function demonstrateVulnerability() external returns (... */\n      swap1\n      swap2\n      swap3\n      jump\t// out\n        /* \"credit/full.sol\":2511:3261  function measureGas() external returns (uint256 unsafeGas, uint256 safeGas) {... */\n    tag_11:\n        /* \"credit/full.sol\":2551:2568  uint256 unsafeGas */\n      0x00\n        /* \"credit/full.sol\":2570:2585  uint256 safeGas */\n      0x00\n        /* \"credit/full.sol\":2605:2634  SimpleUnsafeVault unsafeVault */\n      0x00\n        /* \"credit/full.sol\":2637:2660  new SimpleUnsafeVault() */\n      mload(0x40)\n      tag_38\n      swap1\n      tag_20\n      jump\t// in\n    tag_38:\n      mload(0x40)\n      dup1\n      swap2\n      sub\n      swap1\n      0x00\n      create\n      dup1\n      iszero\n      dup1\n      iszero\n      tag_39\n      jumpi\n      returndatacopy(0x00, 0x00, returndatasize)\n      revert(0x00, returndatasize)\n    tag_39:\n      pop\n        /* \"credit/full.sol\":2605:2660  SimpleUnsafeVault unsafeVault = new SimpleUnsafeVault() */\n      swap1\n      pop\n        /* \"credit/full.sol\":2670:2695  SimpleSafeVault safeVault */\n      0x00\n        /* \"credit/full.sol\":2698:2719  new SimpleSafeVault() */\n      mload(0x40)\n      tag_40\n      swap1\n      tag_41\n      jump\t// in\n    tag_40:\n      mload(0x40)\n      dup1\n      swap2\n      sub\n      swap1\n      0x00\n      create\n      dup1\n      iszero\n      dup1\n      iszero\n      tag_42\n      jumpi\n      returndatacopy(0x00, 0x00, returndatasize)\n      revert(0x00, returndatasize)\n    tag_42:\n      pop\n        /* \"credit/full.sol\":2670:2719  SimpleSafeVault safeVault = new SimpleSafeVault() */\n      swap1\n      pop\n        /* \"credit/full.sol\":2767:2778  unsafeVault */\n      dup2\n        /* \"credit/full.sol\":2767:2789  unsafeVault.addCredits */\n      0xffffffffffffffffffffffffffffffffffffffff\n      and\n      0x3f073031\n        /* \"credit/full.sol\":2797:2804  1 ether */\n      0x0de0b6b3a7640000\n        /* \"credit/full.sol\":2767:2807  unsafeVault.addCredits{value: 1 ether}() */\n      mload(0x40)\n      dup3\n      0xffffffff\n      and\n      0xe0\n      shl\n      dup2\n      mstore\n      0x04\n      add\n      0x00\n      mload(0x40)\n      dup1\n      dup4\n      sub\n      dup2\n      dup6\n      dup9\n      dup1\n      extcodesize\n      iszero\n      dup1\n      iszero\n      tag_43\n      jumpi\n      revert(0x00, 0x00)\n    tag_43:\n      pop\n      gas\n      call\n      iszero\n      dup1\n      iszero\n      tag_45\n      jumpi\n      returndatacopy(0x00, 0x00, returndatasize)\n      revert(0x00, returndatasize)\n    tag_45:\n      pop\n      pop\n      pop\n      pop\n      pop\n        /* \"credit/full.sol\":2817:2826  safeVault */\n      dup1\n        /* \"credit/full.sol\":2817:2837  safeVault.addCredits */\n      0xffffffffffffffffffffffffffffffffffffffff\n      and\n      0x3f073031\n        /* \"credit/full.sol\":2845:2852  1 ether */\n      0x0de0b6b3a7640000\n        /* \"credit/full.sol\":2817:2855  safeVault.addCredits{value: 1 ether}() */\n      mload(0x40)\n      dup3\n      0xffffffff\n      and\n      0xe0\n      shl\n      dup2\n      mstore\n      0x04\n      add\n      0x00\n      mload(0x40)\n      dup1\n      dup4\n      sub\n      dup2\n      dup6\n      dup9\n      dup1\n      extcodesize\n      iszero\n      dup1\n      iszero\n      tag_46\n      jumpi\n      revert(0x00, 0x00)\n    tag_46:\n      pop\n      gas\n      call\n      iszero\n      dup1\n      iszero\n      tag_48\n      jumpi\n      returndatacopy(0x00, 0x00, returndatasize)\n      revert(0x00, returndatasize)\n    tag_48:\n      pop\n      pop\n      pop\n      pop\n      pop\n        /* \"credit/full.sol\":2900:2912  uint256 gas1 */\n      0x00\n        /* \"credit/full.sol\":2915:2924  gasleft() */\n      gas\n        /* \"credit/full.sol\":2900:2924  uint256 gas1 = gasleft() */\n      swap1\n      pop\n        /* \"credit/full.sol\":2934:2945  unsafeVault */\n      dup3\n        /* \"credit/full.sol\":2934:2959  unsafeVault.removeCredits */\n      0xffffffffffffffffffffffffffffffffffffffff\n      and\n      0x2bc22b1d\n        /* \"credit/full.sol\":2960:2969  0.5 ether */\n      0x06f05b59d3b20000\n        /* \"credit/full.sol\":2934:2970  unsafeVault.removeCredits(0.5 ether) */\n      mload(0x40)\n      dup3\n      0xffffffff\n      and\n      0xe0\n      shl\n      dup2\n      mstore\n      0x04\n      add\n      tag_49\n      swap2\n      swap1\n      tag_50\n      jump\t// in\n    tag_49:\n      0x00\n      mload(0x40)\n      dup1\n      dup4\n      sub\n      dup2\n      0x00\n      dup8\n      dup1\n      extcodesize\n      iszero\n      dup1\n      iszero\n      tag_51\n      jumpi\n      revert(0x00, 0x00)\n    tag_51:\n      pop\n      gas\n      call\n      iszero\n      dup1\n      iszero\n      tag_53\n      jumpi\n      returndatacopy(0x00, 0x00, returndatasize)\n      revert(0x00, returndatasize)\n    tag_53:\n      pop\n      pop\n      pop\n      pop\n        /* \"credit/full.sol\":2999:3008  gasleft() */\n      gas\n        /* \"credit/full.sol\":2992:2996  gas1 */\n      dup2\n        /* \"credit/full.sol\":2992:3008  gas1 - gasleft() */\n      tag_54\n      swap2\n      swap1\n      tag_55\n      jump\t// in\n    tag_54:\n        /* \"credit/full.sol\":2980:3008  unsafeGas = gas1 - gasleft() */\n      swap5\n      pop\n        /* \"credit/full.sol\":3051:3063  uint256 gas2 */\n      0x00\n        /* \"credit/full.sol\":3066:3075  gasleft() */\n      gas\n        /* \"credit/full.sol\":3051:3075  uint256 gas2 = gasleft() */\n      swap1\n      pop\n        /* \"credit/full.sol\":3085:3094  safeVault */\n      dup3\n        /* \"credit/full.sol\":3085:3108  safeVault.removeCredits */\n      0xffffffffffffffffffffffffffffffffffffffff\n      and\n      0x2bc22b1d\n        /* \"credit/full.sol\":3109:3118  0.5 ether */\n      0x06f05b59d3b20000\n        /* \"credit/full.sol\":3085:3119  safeVault.removeCredits(0.5 ether) */\n      mload(0x40)\n      dup3\n      0xffffffff\n      and\n      0xe0\n      shl\n      dup2\n      mstore\n      0x04\n      add\n      tag_56\n      swap2\n      swap1\n      tag_50\n      jump\t// in\n    tag_56:\n      0x00\n      mload(0x40)\n      dup1\n      dup4\n      sub\n      dup2\n      0x00\n      dup8\n      dup1\n      extcodesize\n      iszero\n      dup1\n      iszero\n      tag_57\n      jumpi\n      revert(0x00, 0x00)\n    tag_57:\n      pop\n      gas\n      call\n      iszero\n      dup1\n      iszero\n      tag_59\n      jumpi\n      returndatacopy(0x00, 0x00, returndatasize)\n      revert(0x00, returndatasize)\n    tag_59:\n      pop\n      pop\n      pop\n      pop\n        /* \"credit/full.sol\":3146:3155  gasleft() */\n      gas\n        /* \"credit/full.sol\":3139:3143  gas2 */\n      dup2\n        /* \"credit/full.sol\":3139:3155  gas2 - gasleft() */\n      tag_60\n      swap2\n      swap1\n      tag_55\n      jump\t// in\n    tag_60:\n        /* \"credit/full.sol\":3129:3155  safeGas = gas2 - gasleft() */\n      swap5\n      pop\n        /* \"credit/full.sol\":2587:3261  {... */\n      pop\n      pop\n      pop\n      pop\n        /* \"credit/full.sol\":2511:3261  function measureGas() external returns (uint256 unsafeGas, uint256 safeGas) {... */\n      swap1\n      swap2\n      jump\t// out\n        /* \"credit/full.sol\":2150:2501  function demonstrateSecurity() external returns (bool secure) {... */\n    tag_15:\n        /* \"credit/full.sol\":2199:2210  bool secure */\n      0x00\n        /* \"credit/full.sol\":2222:2247  SimpleSafeVault safeVault */\n      0x00\n        /* \"credit/full.sol\":2250:2271  new SimpleSafeVault() */\n      mload(0x40)\n      tag_62\n      swap1\n      tag_41\n      jump\t// in\n    tag_62:\n      mload(0x40)\n      dup1\n      swap2\n      sub\n      swap1\n      0x00\n      create\n      dup1\n      iszero\n      dup1\n      iszero\n      tag_63\n      jumpi\n      returndatacopy(0x00, 0x00, returndatasize)\n      revert(0x00, returndatasize)\n    tag_63:\n      pop\n        /* \"credit/full.sol\":2222:2271  SimpleSafeVault safeVault = new SimpleSafeVault() */\n      swap1\n      pop\n        /* \"credit/full.sol\":2341:2350  safeVault */\n      dup1\n        /* \"credit/full.sol\":2341:2364  safeVault.removeCredits */\n      0xffffffffffffffffffffffffffffffffffffffff\n      and\n      0x2bc22b1d\n        /* \"credit/full.sol\":2365:2366  1 */\n      0x01\n        /* \"credit/full.sol\":2341:2367  safeVault.removeCredits(1) */\n      mload(0x40)\n      dup3\n      0xffffffff\n      and\n      0xe0\n      shl\n      dup2\n      mstore\n      0x04\n      add\n      tag_64\n      swap2\n      swap1\n      tag_29\n      jump\t// in\n    tag_64:\n      0x00\n      mload(0x40)\n      dup1\n      dup4\n      sub\n      dup2\n      0x00\n      dup8\n      dup1\n      extcodesize\n      iszero\n      dup1\n      iszero\n      tag_65\n      jumpi\n      revert(0x00, 0x00)\n    tag_65:\n      pop\n      gas\n      call\n      swap3\n      pop\n      pop\n      pop\n      dup1\n      iszero\n      tag_66\n      jumpi\n      pop\n      0x01\n    tag_66:\n        /* \"credit/full.sol\":2337:2495  try safeVault.removeCredits(1) {... */\n      tag_67\n      jumpi\n        /* \"credit/full.sol\":2456:2460  true */\n      0x01\n        /* \"credit/full.sol\":2449:2460  return true */\n      swap2\n      pop\n      pop\n      jump(tag_61)\n        /* \"credit/full.sol\":2337:2495  try safeVault.removeCredits(1) {... */\n    tag_67:\n        /* \"credit/full.sol\":2389:2394  false */\n      0x00\n        /* \"credit/full.sol\":2382:2394  return false */\n      swap2\n      pop\n      pop\n        /* \"credit/full.sol\":2150:2501  function demonstrateSecurity() external returns (bool secure) {... */\n    tag_61:\n      swap1\n      jump\t// out\n    tag_20:\n      dataSize(sub_0)\n      dup1\n      dataOffset(sub_0)\n      dup4\n      codecopy\n      add\n      swap1\n      jump\t// out\n    tag_41:\n      dataSize(sub_1)\n      dup1\n      dataOffset(sub_1)\n      dup4\n      codecopy\n      add\n      swap1\n      jump\t// out\n        /* \"#utility.yul\":7:84   */\n    tag_72:\n        /* \"#utility.yul\":44:51   */\n      0x00\n        /* \"#utility.yul\":73:78   */\n      dup2\n        /* \"#utility.yul\":62:78   */\n      swap1\n      pop\n        /* \"#utility.yul\":7:84   */\n      swap2\n      swap1\n      pop\n      jump\t// out\n        /* \"#utility.yul\":90:208   */\n    tag_73:\n        /* \"#utility.yul\":177:201   */\n      tag_95\n        /* \"#utility.yul\":195:200   */\n      dup2\n        /* \"#utility.yul\":177:201   */\n      tag_72\n      jump\t// in\n    tag_95:\n        /* \"#utility.yul\":172:175   */\n      dup3\n        /* \"#utility.yul\":165:202   */\n      mstore\n        /* \"#utility.yul\":90:208   */\n      pop\n      pop\n      jump\t// out\n        /* \"#utility.yul\":214:304   */\n    tag_74:\n        /* \"#utility.yul\":248:255   */\n      0x00\n        /* \"#utility.yul\":291:296   */\n      dup2\n        /* \"#utility.yul\":284:297   */\n      iszero\n        /* \"#utility.yul\":277:298   */\n      iszero\n        /* \"#utility.yul\":266:298   */\n      swap1\n      pop\n        /* \"#utility.yul\":214:304   */\n      swap2\n      swap1\n      pop\n      jump\t// out\n        /* \"#utility.yul\":310:419   */\n    tag_75:\n        /* \"#utility.yul\":391:412   */\n      tag_98\n        /* \"#utility.yul\":406:411   */\n      dup2\n        /* \"#utility.yul\":391:412   */\n      tag_74\n      jump\t// in\n    tag_98:\n        /* \"#utility.yul\":386:389   */\n      dup3\n        /* \"#utility.yul\":379:413   */\n      mstore\n        /* \"#utility.yul\":310:419   */\n      pop\n      pop\n      jump\t// out\n        /* \"#utility.yul\":425:855   */\n    tag_9:\n        /* \"#utility.yul\":568:572   */\n      0x00\n        /* \"#utility.yul\":606:608   */\n      0x60\n        /* \"#utility.yul\":595:604   */\n      dup3\n        /* \"#utility.yul\":591:609   */\n      add\n        /* \"#utility.yul\":583:609   */\n      swap1\n      pop\n        /* \"#utility.yul\":619:690   */\n      tag_100\n        /* \"#utility.yul\":687:688   */\n      0x00\n        /* \"#utility.yul\":676:685   */\n      dup4\n        /* \"#utility.yul\":672:689   */\n      add\n        /* \"#utility.yul\":663:669   */\n      dup7\n        /* \"#utility.yul\":619:690   */\n      tag_73\n      jump\t// in\n    tag_100:\n        /* \"#utility.yul\":700:772   */\n      tag_101\n        /* \"#utility.yul\":768:770   */\n      0x20\n        /* \"#utility.yul\":757:766   */\n      dup4\n        /* \"#utility.yul\":753:771   */\n      add\n        /* \"#utility.yul\":744:750   */\n      dup6\n        /* \"#utility.yul\":700:772   */\n      tag_73\n      jump\t// in\n    tag_101:\n        /* \"#utility.yul\":782:848   */\n      tag_102\n        /* \"#utility.yul\":844:846   */\n      0x40\n        /* \"#utility.yul\":833:842   */\n      dup4\n        /* \"#utility.yul\":829:847   */\n      add\n        /* \"#utility.yul\":820:826   */\n      dup5\n        /* \"#utility.yul\":782:848   */\n      tag_75\n      jump\t// in\n    tag_102:\n        /* \"#utility.yul\":425:855   */\n      swap5\n      swap4\n      pop\n      pop\n      pop\n      pop\n      jump\t// out\n        /* \"#utility.yul\":861:1193   */\n    tag_13:\n        /* \"#utility.yul\":982:986   */\n      0x00\n        /* \"#utility.yul\":1020:1022   */\n      0x40\n        /* \"#utility.yul\":1009:1018   */\n      dup3\n        /* \"#utility.yul\":1005:1023   */\n      add\n        /* \"#utility.yul\":997:1023   */\n      swap1\n      pop\n        /* \"#utility.yul\":1033:1104   */\n      tag_104\n        /* \"#utility.yul\":1101:1102   */\n      0x00\n        /* \"#utility.yul\":1090:1099   */\n      dup4\n        /* \"#utility.yul\":1086:1103   */\n      add\n        /* \"#utility.yul\":1077:1083   */\n      dup6\n        /* \"#utility.yul\":1033:1104   */\n      tag_73\n      jump\t// in\n    tag_104:\n        /* \"#utility.yul\":1114:1186   */\n      tag_105\n        /* \"#utility.yul\":1182:1184   */\n      0x20\n        /* \"#utility.yul\":1171:1180   */\n      dup4\n        /* \"#utility.yul\":1167:1185   */\n      add\n        /* \"#utility.yul\":1158:1164   */\n      dup5\n        /* \"#utility.yul\":1114:1186   */\n      tag_73\n      jump\t// in\n    tag_105:\n        /* \"#utility.yul\":861:1193   */\n      swap4\n      swap3\n      pop\n      pop\n      pop\n      jump\t// out\n        /* \"#utility.yul\":1199:1409   */\n    tag_17:\n        /* \"#utility.yul\":1286:1290   */\n      0x00\n        /* \"#utility.yul\":1324:1326   */\n      0x20\n        /* \"#utility.yul\":1313:1322   */\n      dup3\n        /* \"#utility.yul\":1309:1327   */\n      add\n        /* \"#utility.yul\":1301:1327   */\n      swap1\n      pop\n        /* \"#utility.yul\":1337:1402   */\n      tag_107\n        /* \"#utility.yul\":1399:1400   */\n      0x00\n        /* \"#utility.yul\":1388:1397   */\n      dup4\n        /* \"#utility.yul\":1384:1401   */\n      add\n        /* \"#utility.yul\":1375:1381   */\n      dup5\n        /* \"#utility.yul\":1337:1402   */\n      tag_75\n      jump\t// in\n    tag_107:\n        /* \"#utility.yul\":1199:1409   */\n      swap3\n      swap2\n      pop\n      pop\n      jump\t// out\n        /* \"#utility.yul\":1415:1541   */\n    tag_76:\n        /* \"#utility.yul\":1452:1459   */\n      0x00\n        /* \"#utility.yul\":1492:1534   */\n      0xffffffffffffffffffffffffffffffffffffffff\n        /* \"#utility.yul\":1485:1490   */\n      dup3\n        /* \"#utility.yul\":1481:1535   */\n      and\n        /* \"#utility.yul\":1470:1535   */\n      swap1\n      pop\n        /* \"#utility.yul\":1415:1541   */\n      swap2\n      swap1\n      pop\n      jump\t// out\n        /* \"#utility.yul\":1547:1643   */\n    tag_77:\n        /* \"#utility.yul\":1584:1591   */\n      0x00\n        /* \"#utility.yul\":1613:1637   */\n      tag_110\n        /* \"#utility.yul\":1631:1636   */\n      dup3\n        /* \"#utility.yul\":1613:1637   */\n      tag_76\n      jump\t// in\n    tag_110:\n        /* \"#utility.yul\":1602:1637   */\n      swap1\n      pop\n        /* \"#utility.yul\":1547:1643   */\n      swap2\n      swap1\n      pop\n      jump\t// out\n        /* \"#utility.yul\":1649:1767   */\n    tag_78:\n        /* \"#utility.yul\":1736:1760   */\n      tag_112\n        /* \"#utility.yul\":1754:1759   */\n      dup2\n        /* \"#utility.yul\":1736:1760   */\n      tag_77\n      jump\t// in\n    tag_112:\n        /* \"#utility.yul\":1731:1734   */\n      dup3\n        /* \"#utility.yul\":1724:1761   */\n      mstore\n        /* \"#utility.yul\":1649:1767   */\n      pop\n      pop\n      jump\t// out\n        /* \"#utility.yul\":1773:1995   */\n    tag_23:\n        /* \"#utility.yul\":1866:1870   */\n      0x00\n        /* \"#utility.yul\":1904:1906   */\n      0x20\n        /* \"#utility.yul\":1893:1902   */\n      dup3\n        /* \"#utility.yul\":1889:1907   */\n      add\n        /* \"#utility.yul\":1881:1907   */\n      swap1\n      pop\n        /* \"#utility.yul\":1917:1988   */\n      tag_114\n        /* \"#utility.yul\":1985:1986   */\n      0x00\n        /* \"#utility.yul\":1974:1983   */\n      dup4\n        /* \"#utility.yul\":1970:1987   */\n      add\n        /* \"#utility.yul\":1961:1967   */\n      dup5\n        /* \"#utility.yul\":1917:1988   */\n      tag_78\n      jump\t// in\n    tag_114:\n        /* \"#utility.yul\":1773:1995   */\n      swap3\n      swap2\n      pop\n      pop\n      jump\t// out\n        /* \"#utility.yul\":2082:2199   */\n    tag_80:\n        /* \"#utility.yul\":2191:2192   */\n      0x00\n        /* \"#utility.yul\":2188:2189   */\n      0x00\n        /* \"#utility.yul\":2181:2193   */\n      revert\n        /* \"#utility.yul\":2328:2450   */\n    tag_82:\n        /* \"#utility.yul\":2401:2425   */\n      tag_119\n        /* \"#utility.yul\":2419:2424   */\n      dup2\n        /* \"#utility.yul\":2401:2425   */\n      tag_72\n      jump\t// in\n    tag_119:\n        /* \"#utility.yul\":2394:2399   */\n      dup2\n        /* \"#utility.yul\":2391:2426   */\n      eq\n        /* \"#utility.yul\":2381:2444   */\n      tag_120\n      jumpi\n        /* \"#utility.yul\":2440:2441   */\n      0x00\n        /* \"#utility.yul\":2437:2438   */\n      0x00\n        /* \"#utility.yul\":2430:2442   */\n      revert\n        /* \"#utility.yul\":2381:2444   */\n    tag_120:\n        /* \"#utility.yul\":2328:2450   */\n      pop\n      jump\t// out\n        /* \"#utility.yul\":2456:2599   */\n    tag_83:\n        /* \"#utility.yul\":2513:2518   */\n      0x00\n        /* \"#utility.yul\":2544:2550   */\n      dup2\n        /* \"#utility.yul\":2538:2551   */\n      mload\n        /* \"#utility.yul\":2529:2551   */\n      swap1\n      pop\n        /* \"#utility.yul\":2560:2593   */\n      tag_122\n        /* \"#utility.yul\":2587:2592   */\n      dup2\n        /* \"#utility.yul\":2560:2593   */\n      tag_82\n      jump\t// in\n    tag_122:\n        /* \"#utility.yul\":2456:2599   */\n      swap3\n      swap2\n      pop\n      pop\n      jump\t// out\n        /* \"#utility.yul\":2605:2956   */\n    tag_27:\n        /* \"#utility.yul\":2675:2681   */\n      0x00\n        /* \"#utility.yul\":2724:2726   */\n      0x20\n        /* \"#utility.yul\":2712:2721   */\n      dup3\n        /* \"#utility.yul\":2703:2710   */\n      dup5\n        /* \"#utility.yul\":2699:2722   */\n      sub\n        /* \"#utility.yul\":2695:2727   */\n      slt\n        /* \"#utility.yul\":2692:2811   */\n      iszero\n      tag_124\n      jumpi\n        /* \"#utility.yul\":2730:2809   */\n      tag_125\n      tag_80\n      jump\t// in\n    tag_125:\n        /* \"#utility.yul\":2692:2811   */\n    tag_124:\n        /* \"#utility.yul\":2850:2851   */\n      0x00\n        /* \"#utility.yul\":2875:2939   */\n      tag_126\n        /* \"#utility.yul\":2931:2938   */\n      dup5\n        /* \"#utility.yul\":2922:2928   */\n      dup3\n        /* \"#utility.yul\":2911:2920   */\n      dup6\n        /* \"#utility.yul\":2907:2929   */\n      add\n        /* \"#utility.yul\":2875:2939   */\n      tag_83\n      jump\t// in\n    tag_126:\n        /* \"#utility.yul\":2865:2939   */\n      swap2\n      pop\n        /* \"#utility.yul\":2821:2949   */\n      pop\n        /* \"#utility.yul\":2605:2956   */\n      swap3\n      swap2\n      pop\n      pop\n      jump\t// out\n        /* \"#utility.yul\":2962:3047   */\n    tag_84:\n        /* \"#utility.yul\":3007:3014   */\n      0x00\n        /* \"#utility.yul\":3036:3041   */\n      dup2\n        /* \"#utility.yul\":3025:3041   */\n      swap1\n      pop\n        /* \"#utility.yul\":2962:3047   */\n      swap2\n      swap1\n      pop\n      jump\t// out\n        /* \"#utility.yul\":3053:3113   */\n    tag_85:\n        /* \"#utility.yul\":3081:3084   */\n      0x00\n        /* \"#utility.yul\":3102:3107   */\n      dup2\n        /* \"#utility.yul\":3095:3107   */\n      swap1\n      pop\n        /* \"#utility.yul\":3053:3113   */\n      swap2\n      swap1\n      pop\n      jump\t// out\n        /* \"#utility.yul\":3119:3277   */\n    tag_86:\n        /* \"#utility.yul\":3177:3186   */\n      0x00\n        /* \"#utility.yul\":3210:3271   */\n      tag_130\n        /* \"#utility.yul\":3228:3270   */\n      tag_131\n        /* \"#utility.yul\":3237:3269   */\n      tag_132\n        /* \"#utility.yul\":3263:3268   */\n      dup5\n        /* \"#utility.yul\":3237:3269   */\n      tag_84\n      jump\t// in\n    tag_132:\n        /* \"#utility.yul\":3228:3270   */\n      tag_85\n      jump\t// in\n    tag_131:\n        /* \"#utility.yul\":3210:3271   */\n      tag_72\n      jump\t// in\n    tag_130:\n        /* \"#utility.yul\":3197:3271   */\n      swap1\n      pop\n        /* \"#utility.yul\":3119:3277   */\n      swap2\n      swap1\n      pop\n      jump\t// out\n        /* \"#utility.yul\":3283:3430   */\n    tag_87:\n        /* \"#utility.yul\":3378:3423   */\n      tag_134\n        /* \"#utility.yul\":3417:3422   */\n      dup2\n        /* \"#utility.yul\":3378:3423   */\n      tag_86\n      jump\t// in\n    tag_134:\n        /* \"#utility.yul\":3373:3376   */\n      dup3\n        /* \"#utility.yul\":3366:3424   */\n      mstore\n        /* \"#utility.yul\":3283:3430   */\n      pop\n      pop\n      jump\t// out\n        /* \"#utility.yul\":3436:3674   */\n    tag_29:\n        /* \"#utility.yul\":3537:3541   */\n      0x00\n        /* \"#utility.yul\":3575:3577   */\n      0x20\n        /* \"#utility.yul\":3564:3573   */\n      dup3\n        /* \"#utility.yul\":3560:3578   */\n      add\n        /* \"#utility.yul\":3552:3578   */\n      swap1\n      pop\n        /* \"#utility.yul\":3588:3667   */\n      tag_136\n        /* \"#utility.yul\":3664:3665   */\n      0x00\n        /* \"#utility.yul\":3653:3662   */\n      dup4\n        /* \"#utility.yul\":3649:3666   */\n      add\n        /* \"#utility.yul\":3640:3646   */\n      dup5\n        /* \"#utility.yul\":3588:3667   */\n      tag_87\n      jump\t// in\n    tag_136:\n        /* \"#utility.yul\":3436:3674   */\n      swap3\n      swap2\n      pop\n      pop\n      jump\t// out\n        /* \"#utility.yul\":3680:3782   */\n    tag_88:\n        /* \"#utility.yul\":3742:3749   */\n      0x00\n        /* \"#utility.yul\":3771:3776   */\n      dup2\n        /* \"#utility.yul\":3760:3776   */\n      swap1\n      pop\n        /* \"#utility.yul\":3680:3782   */\n      swap2\n      swap1\n      pop\n      jump\t// out\n        /* \"#utility.yul\":3788:3980   */\n    tag_89:\n        /* \"#utility.yul\":3863:3872   */\n      0x00\n        /* \"#utility.yul\":3896:3974   */\n      tag_139\n        /* \"#utility.yul\":3914:3973   */\n      tag_140\n        /* \"#utility.yul\":3923:3972   */\n      tag_141\n        /* \"#utility.yul\":3966:3971   */\n      dup5\n        /* \"#utility.yul\":3923:3972   */\n      tag_88\n      jump\t// in\n    tag_141:\n        /* \"#utility.yul\":3914:3973   */\n      tag_85\n      jump\t// in\n    tag_140:\n        /* \"#utility.yul\":3896:3974   */\n      tag_72\n      jump\t// in\n    tag_139:\n        /* \"#utility.yul\":3883:3974   */\n      swap1\n      pop\n        /* \"#utility.yul\":3788:3980   */\n      swap2\n      swap1\n      pop\n      jump\t// out\n        /* \"#utility.yul\":3986:4167   */\n    tag_90:\n        /* \"#utility.yul\":4098:4160   */\n      tag_143\n        /* \"#utility.yul\":4154:4159   */\n      dup2\n        /* \"#utility.yul\":4098:4160   */\n      tag_89\n      jump\t// in\n    tag_143:\n        /* \"#utility.yul\":4093:4096   */\n      dup3\n        /* \"#utility.yul\":4086:4161   */\n      mstore\n        /* \"#utility.yul\":3986:4167   */\n      pop\n      pop\n      jump\t// out\n        /* \"#utility.yul\":4173:4445   */\n    tag_50:\n        /* \"#utility.yul\":4291:4295   */\n      0x00\n        /* \"#utility.yul\":4329:4331   */\n      0x20\n        /* \"#utility.yul\":4318:4327   */\n      dup3\n        /* \"#utility.yul\":4314:4332   */\n      add\n        /* \"#utility.yul\":4306:4332   */\n      swap1\n      pop\n        /* \"#utility.yul\":4342:4438   */\n      tag_145\n        /* \"#utility.yul\":4435:4436   */\n      0x00\n        /* \"#utility.yul\":4424:4433   */\n      dup4\n        /* \"#utility.yul\":4420:4437   */\n      add\n        /* \"#utility.yul\":4411:4417   */\n      dup5\n        /* \"#utility.yul\":4342:4438   */\n      tag_90\n      jump\t// in\n    tag_145:\n        /* \"#utility.yul\":4173:4445   */\n      swap3\n      swap2\n      pop\n      pop\n      jump\t// out\n        /* \"#utility.yul\":4451:4631   */\n    tag_91:\n        /* \"#utility.yul\":4499:4576   */\n      0x4e487b7100000000000000000000000000000000000000000000000000000000\n        /* \"#utility.yul\":4496:4497   */\n      0x00\n        /* \"#utility.yul\":4489:4577   */\n      mstore\n        /* \"#utility.yul\":4596:4600   */\n      0x11\n        /* \"#utility.yul\":4593:4594   */\n      0x04\n        /* \"#utility.yul\":4586:4601   */\n      mstore\n        /* \"#utility.yul\":4620:4624   */\n      0x24\n        /* \"#utility.yul\":4617:4618   */\n      0x00\n        /* \"#utility.yul\":4610:4625   */\n      revert\n        /* \"#utility.yul\":4637:4831   */\n    tag_55:\n        /* \"#utility.yul\":4677:4681   */\n      0x00\n        /* \"#utility.yul\":4697:4717   */\n      tag_148\n        /* \"#utility.yul\":4715:4716   */\n      dup3\n        /* \"#utility.yul\":4697:4717   */\n      tag_72\n      jump\t// in\n    tag_148:\n        /* \"#utility.yul\":4692:4717   */\n      swap2\n      pop\n        /* \"#utility.yul\":4731:4751   */\n      tag_149\n        /* \"#utility.yul\":4749:4750   */\n      dup4\n        /* \"#utility.yul\":4731:4751   */\n      tag_72\n      jump\t// in\n    tag_149:\n        /* \"#utility.yul\":4726:4751   */\n      swap3\n      pop\n        /* \"#utility.yul\":4775:4776   */\n      dup3\n        /* \"#utility.yul\":4772:4773   */\n      dup3\n        /* \"#utility.yul\":4768:4777   */\n      sub\n        /* \"#utility.yul\":4760:4777   */\n      swap1\n      pop\n        /* \"#utility.yul\":4799:4800   */\n      dup2\n        /* \"#utility.yul\":4793:4797   */\n      dup2\n        /* \"#utility.yul\":4790:4801   */\n      gt\n        /* \"#utility.yul\":4787:4824   */\n      iszero\n      tag_150\n      jumpi\n        /* \"#utility.yul\":4804:4822   */\n      tag_151\n      tag_91\n      jump\t// in\n    tag_151:\n        /* \"#utility.yul\":4787:4824   */\n    tag_150:\n        /* \"#utility.yul\":4637:4831   */\n      swap3\n      swap2\n      pop\n      pop\n      jump\t// out\n    stop\n\n    sub_0: assembly {\n            /* \"credit/full.sol\":218:759  contract SimpleUnsafeVault {... */\n          mstore(0x40, 0x80)\n          callvalue\n          dup1\n          iszero\n          tag_1\n          jumpi\n          revert(0x00, 0x00)\n        tag_1:\n          pop\n          dataSize(sub_0)\n          dup1\n          dataOffset(sub_0)\n          0x00\n          codecopy\n          0x00\n          return\n        stop\n\n        sub_0: assembly {\n                /* \"credit/full.sol\":218:759  contract SimpleUnsafeVault {... */\n              mstore(0x40, 0x80)\n              jumpi(tag_1, lt(calldatasize, 0x04))\n              shr(0xe0, calldataload(0x00))\n              dup1\n              0x2bc22b1d\n              eq\n              tag_2\n              jumpi\n              dup1\n              0x3b66e9f6\n              eq\n              tag_3\n              jumpi\n              dup1\n              0x3f073031\n              eq\n              tag_4\n              jumpi\n              dup1\n              0xfe5ff468\n              eq\n              tag_5\n              jumpi\n            tag_1:\n              revert(0x00, 0x00)\n                /* \"credit/full.sol\":497:644  function removeCredits(uint256 amount) external {... */\n            tag_2:\n              callvalue\n              dup1\n              iszero\n              tag_6\n              jumpi\n              revert(0x00, 0x00)\n            tag_6:\n              pop\n              tag_7\n              0x04\n              dup1\n              calldatasize\n              sub\n              dup2\n              add\n              swap1\n              tag_8\n              swap2\n              swap1\n              tag_9\n              jump\t// in\n            tag_8:\n              tag_10\n              jump\t// in\n            tag_7:\n              stop\n                /* \"credit/full.sol\":654:757  function getCredits(address user) external view returns (uint256) {... */\n            tag_3:\n              callvalue\n              dup1\n              iszero\n              tag_11\n              jumpi\n              revert(0x00, 0x00)\n            tag_11:\n              pop\n              tag_12\n              0x04\n              dup1\n              calldatasize\n              sub\n              dup2\n              add\n              swap1\n              tag_13\n              swap2\n              swap1\n              tag_14\n              jump\t// in\n            tag_13:\n              tag_15\n              jump\t// in\n            tag_12:\n              mload(0x40)\n              tag_16\n              swap2\n              swap1\n              tag_17\n              jump\t// in\n            tag_16:\n              mload(0x40)\n              dup1\n              swap2\n              sub\n              swap1\n              return\n                /* \"credit/full.sol\":323:445  function addCredits() external payable {... */\n            tag_4:\n              tag_18\n              tag_19\n              jump\t// in\n            tag_18:\n              stop\n                /* \"credit/full.sol\":251:293  mapping(address => uint256) public credits */\n            tag_5:\n              callvalue\n              dup1\n              iszero\n              tag_20\n              jumpi\n              revert(0x00, 0x00)\n            tag_20:\n              pop\n              tag_21\n              0x04\n              dup1\n              calldatasize\n              sub\n              dup2\n              add\n              swap1\n              tag_22\n              swap2\n              swap1\n              tag_14\n              jump\t// in\n            tag_22:\n              tag_23\n              jump\t// in\n            tag_21:\n              mload(0x40)\n              tag_24\n              swap2\n              swap1\n              tag_17\n              jump\t// in\n            tag_24:\n              mload(0x40)\n              dup1\n              swap2\n              sub\n              swap1\n              return\n                /* \"credit/full.sol\":497:644  function removeCredits(uint256 amount) external {... */\n            tag_10:\n                /* \"credit/full.sol\":602:608  amount */\n              dup1\n                /* \"credit/full.sol\":579:586  credits */\n              0x00\n                /* \"credit/full.sol\":579:598  credits[msg.sender] */\n              0x00\n                /* \"credit/full.sol\":587:597  msg.sender */\n              caller\n                /* \"credit/full.sol\":579:598  credits[msg.sender] */\n              0xffffffffffffffffffffffffffffffffffffffff\n              and\n              0xffffffffffffffffffffffffffffffffffffffff\n              and\n              dup2\n              mstore\n              0x20\n              add\n              swap1\n              dup2\n              mstore\n              0x20\n              add\n              0x00\n              keccak256\n              0x00\n                /* \"credit/full.sol\":579:608  credits[msg.sender] -= amount */\n              dup3\n              dup3\n              sload\n              sub\n              swap3\n              pop\n              pop\n              dup2\n              swap1\n              sstore\n              pop\n                /* \"credit/full.sol\":497:644  function removeCredits(uint256 amount) external {... */\n              pop\n              jump\t// out\n                /* \"credit/full.sol\":654:757  function getCredits(address user) external view returns (uint256) {... */\n            tag_15:\n                /* \"credit/full.sol\":711:718  uint256 */\n              0x00\n                /* \"credit/full.sol\":737:744  credits */\n              0x00\n                /* \"credit/full.sol\":737:750  credits[user] */\n              0x00\n                /* \"credit/full.sol\":745:749  user */\n              dup4\n                /* \"credit/full.sol\":737:750  credits[user] */\n              0xffffffffffffffffffffffffffffffffffffffff\n              and\n              0xffffffffffffffffffffffffffffffffffffffff\n              and\n              dup2\n              mstore\n              0x20\n              add\n              swap1\n              dup2\n              mstore\n              0x20\n              add\n              0x00\n              keccak256\n              sload\n                /* \"credit/full.sol\":730:750  return credits[user] */\n              swap1\n              pop\n                /* \"credit/full.sol\":654:757  function getCredits(address user) external view returns (uint256) {... */\n              swap2\n              swap1\n              pop\n              jump\t// out\n                /* \"credit/full.sol\":323:445  function addCredits() external payable {... */\n            tag_19:\n                /* \"credit/full.sol\":419:428  msg.value */\n              callvalue\n                /* \"credit/full.sol\":396:403  credits */\n              0x00\n                /* \"credit/full.sol\":396:415  credits[msg.sender] */\n              0x00\n                /* \"credit/full.sol\":404:414  msg.sender */\n              caller\n                /* \"credit/full.sol\":396:415  credits[msg.sender] */\n              0xffffffffffffffffffffffffffffffffffffffff\n              and\n              0xffffffffffffffffffffffffffffffffffffffff\n              and\n              dup2\n              mstore\n              0x20\n              add\n              swap1\n              dup2\n              mstore\n              0x20\n              add\n              0x00\n              keccak256\n              0x00\n                /* \"credit/full.sol\":396:428  credits[msg.sender] += msg.value */\n              dup3\n              dup3\n              sload\n              add\n              swap3\n              pop\n              pop\n              dup2\n              swap1\n              sstore\n              pop\n                /* \"credit/full.sol\":323:445  function addCredits() external payable {... */\n              jump\t// out\n                /* \"credit/full.sol\":251:293  mapping(address => uint256) public credits */\n            tag_23:\n              mstore(0x20, 0x00)\n              dup1\n              0x00\n              mstore\n              keccak256(0x00, 0x40)\n              0x00\n              swap2\n              pop\n              swap1\n              pop\n              sload\n              dup2\n              jump\t// out\n                /* \"#utility.yul\":88:205   */\n            tag_29:\n                /* \"#utility.yul\":197:198   */\n              0x00\n                /* \"#utility.yul\":194:195   */\n              0x00\n                /* \"#utility.yul\":187:199   */\n              revert\n                /* \"#utility.yul\":334:411   */\n            tag_31:\n                /* \"#utility.yul\":371:378   */\n              0x00\n                /* \"#utility.yul\":400:405   */\n              dup2\n                /* \"#utility.yul\":389:405   */\n              swap1\n              pop\n                /* \"#utility.yul\":334:411   */\n              swap2\n              swap1\n              pop\n              jump\t// out\n                /* \"#utility.yul\":417:539   */\n            tag_32:\n                /* \"#utility.yul\":490:514   */\n              tag_45\n                /* \"#utility.yul\":508:513   */\n              dup2\n                /* \"#utility.yul\":490:514   */\n              tag_31\n              jump\t// in\n            tag_45:\n                /* \"#utility.yul\":483:488   */\n              dup2\n                /* \"#utility.yul\":480:515   */\n              eq\n                /* \"#utility.yul\":470:533   */\n              tag_46\n              jumpi\n                /* \"#utility.yul\":529:530   */\n              0x00\n                /* \"#utility.yul\":526:527   */\n              0x00\n                /* \"#utility.yul\":519:531   */\n              revert\n                /* \"#utility.yul\":470:533   */\n            tag_46:\n                /* \"#utility.yul\":417:539   */\n              pop\n              jump\t// out\n                /* \"#utility.yul\":545:684   */\n            tag_33:\n                /* \"#utility.yul\":591:596   */\n              0x00\n                /* \"#utility.yul\":629:635   */\n              dup2\n                /* \"#utility.yul\":616:636   */\n              calldataload\n                /* \"#utility.yul\":607:636   */\n              swap1\n              pop\n                /* \"#utility.yul\":645:678   */\n              tag_48\n                /* \"#utility.yul\":672:677   */\n              dup2\n                /* \"#utility.yul\":645:678   */\n              tag_32\n              jump\t// in\n            tag_48:\n                /* \"#utility.yul\":545:684   */\n              swap3\n              swap2\n              pop\n              pop\n              jump\t// out\n                /* \"#utility.yul\":690:1019   */\n            tag_9:\n                /* \"#utility.yul\":749:755   */\n              0x00\n                /* \"#utility.yul\":798:800   */\n              0x20\n                /* \"#utility.yul\":786:795   */\n              dup3\n                /* \"#utility.yul\":777:784   */\n              dup5\n                /* \"#utility.yul\":773:796   */\n              sub\n                /* \"#utility.yul\":769:801   */\n              slt\n                /* \"#utility.yul\":766:885   */\n              iszero\n              tag_50\n              jumpi\n                /* \"#utility.yul\":804:883   */\n              tag_51\n              tag_29\n              jump\t// in\n            tag_51:\n                /* \"#utility.yul\":766:885   */\n            tag_50:\n                /* \"#utility.yul\":924:925   */\n              0x00\n                /* \"#utility.yul\":949:1002   */\n              tag_52\n                /* \"#utility.yul\":994:1001   */\n              dup5\n                /* \"#utility.yul\":985:991   */\n              dup3\n                /* \"#utility.yul\":974:983   */\n              dup6\n                /* \"#utility.yul\":970:992   */\n              add\n                /* \"#utility.yul\":949:1002   */\n              tag_33\n              jump\t// in\n            tag_52:\n                /* \"#utility.yul\":939:1002   */\n              swap2\n              pop\n                /* \"#utility.yul\":895:1012   */\n              pop\n                /* \"#utility.yul\":690:1019   */\n              swap3\n              swap2\n              pop\n              pop\n              jump\t// out\n                /* \"#utility.yul\":1025:1151   */\n            tag_34:\n                /* \"#utility.yul\":1062:1069   */\n              0x00\n                /* \"#utility.yul\":1102:1144   */\n              0xffffffffffffffffffffffffffffffffffffffff\n                /* \"#utility.yul\":1095:1100   */\n              dup3\n                /* \"#utility.yul\":1091:1145   */\n              and\n                /* \"#utility.yul\":1080:1145   */\n              swap1\n              pop\n                /* \"#utility.yul\":1025:1151   */\n              swap2\n              swap1\n              pop\n              jump\t// out\n                /* \"#utility.yul\":1157:1253   */\n            tag_35:\n                /* \"#utility.yul\":1194:1201   */\n              0x00\n                /* \"#utility.yul\":1223:1247   */\n              tag_55\n                /* \"#utility.yul\":1241:1246   */\n              dup3\n                /* \"#utility.yul\":1223:1247   */\n              tag_34\n              jump\t// in\n            tag_55:\n                /* \"#utility.yul\":1212:1247   */\n              swap1\n              pop\n                /* \"#utility.yul\":1157:1253   */\n              swap2\n              swap1\n              pop\n              jump\t// out\n                /* \"#utility.yul\":1259:1381   */\n            tag_36:\n                /* \"#utility.yul\":1332:1356   */\n              tag_57\n                /* \"#utility.yul\":1350:1355   */\n              dup2\n                /* \"#utility.yul\":1332:1356   */\n              tag_35\n              jump\t// in\n            tag_57:\n                /* \"#utility.yul\":1325:1330   */\n              dup2\n                /* \"#utility.yul\":1322:1357   */\n              eq\n                /* \"#utility.yul\":1312:1375   */\n              tag_58\n              jumpi\n                /* \"#utility.yul\":1371:1372   */\n              0x00\n                /* \"#utility.yul\":1368:1369   */\n              0x00\n                /* \"#utility.yul\":1361:1373   */\n              revert\n                /* \"#utility.yul\":1312:1375   */\n            tag_58:\n                /* \"#utility.yul\":1259:1381   */\n              pop\n              jump\t// out\n                /* \"#utility.yul\":1387:1526   */\n            tag_37:\n                /* \"#utility.yul\":1433:1438   */\n              0x00\n                /* \"#utility.yul\":1471:1477   */\n              dup2\n                /* \"#utility.yul\":1458:1478   */\n              calldataload\n                /* \"#utility.yul\":1449:1478   */\n              swap1\n              pop\n                /* \"#utility.yul\":1487:1520   */\n              tag_60\n                /* \"#utility.yul\":1514:1519   */\n              dup2\n                /* \"#utility.yul\":1487:1520   */\n              tag_36\n              jump\t// in\n            tag_60:\n                /* \"#utility.yul\":1387:1526   */\n              swap3\n              swap2\n              pop\n              pop\n              jump\t// out\n                /* \"#utility.yul\":1532:1861   */\n            tag_14:\n                /* \"#utility.yul\":1591:1597   */\n              0x00\n                /* \"#utility.yul\":1640:1642   */\n              0x20\n                /* \"#utility.yul\":1628:1637   */\n              dup3\n                /* \"#utility.yul\":1619:1626   */\n              dup5\n                /* \"#utility.yul\":1615:1638   */\n              sub\n                /* \"#utility.yul\":1611:1643   */\n              slt\n                /* \"#utility.yul\":1608:1727   */\n              iszero\n              tag_62\n              jumpi\n                /* \"#utility.yul\":1646:1725   */\n              tag_63\n              tag_29\n              jump\t// in\n            tag_63:\n                /* \"#utility.yul\":1608:1727   */\n            tag_62:\n                /* \"#utility.yul\":1766:1767   */\n              0x00\n                /* \"#utility.yul\":1791:1844   */\n              tag_64\n                /* \"#utility.yul\":1836:1843   */\n              dup5\n                /* \"#utility.yul\":1827:1833   */\n              dup3\n                /* \"#utility.yul\":1816:1825   */\n              dup6\n                /* \"#utility.yul\":1812:1834   */\n              add\n                /* \"#utility.yul\":1791:1844   */\n              tag_37\n              jump\t// in\n            tag_64:\n                /* \"#utility.yul\":1781:1844   */\n              swap2\n              pop\n                /* \"#utility.yul\":1737:1854   */\n              pop\n                /* \"#utility.yul\":1532:1861   */\n              swap3\n              swap2\n              pop\n              pop\n              jump\t// out\n                /* \"#utility.yul\":1867:1985   */\n            tag_38:\n                /* \"#utility.yul\":1954:1978   */\n              tag_66\n                /* \"#utility.yul\":1972:1977   */\n              dup2\n                /* \"#utility.yul\":1954:1978   */\n              tag_31\n              jump\t// in\n            tag_66:\n                /* \"#utility.yul\":1949:1952   */\n              dup3\n                /* \"#utility.yul\":1942:1979   */\n              mstore\n                /* \"#utility.yul\":1867:1985   */\n              pop\n              pop\n              jump\t// out\n                /* \"#utility.yul\":1991:2213   */\n            tag_17:\n                /* \"#utility.yul\":2084:2088   */\n              0x00\n                /* \"#utility.yul\":2122:2124   */\n              0x20\n                /* \"#utility.yul\":2111:2120   */\n              dup3\n                /* \"#utility.yul\":2107:2125   */\n              add\n                /* \"#utility.yul\":2099:2125   */\n              swap1\n              pop\n                /* \"#utility.yul\":2135:2206   */\n              tag_68\n                /* \"#utility.yul\":2203:2204   */\n              0x00\n                /* \"#utility.yul\":2192:2201   */\n              dup4\n                /* \"#utility.yul\":2188:2205   */\n              add\n                /* \"#utility.yul\":2179:2185   */\n              dup5\n                /* \"#utility.yul\":2135:2206   */\n              tag_38\n              jump\t// in\n            tag_68:\n                /* \"#utility.yul\":1991:2213   */\n              swap3\n              swap2\n              pop\n              pop\n              jump\t// out\n\n            auxdata: 0xa26469706673582212207f8a5f360e3e35c537a02b2a4d91cc81406db267d77a4af11c384afa485d88b364736f6c634300081e0033\n        }\n    }\n\n    sub_1: assembly {\n            /* \"credit/full.sol\":761:1281  contract SimpleSafeVault {... */\n          mstore(0x40, 0x80)\n          callvalue\n          dup1\n          iszero\n          tag_1\n          jumpi\n          revert(0x00, 0x00)\n        tag_1:\n          pop\n          dataSize(sub_0)\n          dup1\n          dataOffset(sub_0)\n          0x00\n          codecopy\n          0x00\n          return\n        stop\n\n        sub_0: assembly {\n                /* \"credit/full.sol\":761:1281  contract SimpleSafeVault {... */\n              mstore(0x40, 0x80)\n              jumpi(tag_1, lt(calldatasize, 0x04))\n              shr(0xe0, calldataload(0x00))\n              dup1\n              0x2bc22b1d\n              eq\n              tag_2\n              jumpi\n              dup1\n              0x3b66e9f6\n              eq\n              tag_3\n              jumpi\n              dup1\n              0x3f073031\n              eq\n              tag_4\n              jumpi\n              dup1\n              0xfe5ff468\n              eq\n              tag_5\n              jumpi\n            tag_1:\n              revert(0x00, 0x00)\n                /* \"credit/full.sol\":988:1166  function removeCredits(uint256 amount) external {... */\n            tag_2:\n              callvalue\n              dup1\n              iszero\n              tag_6\n              jumpi\n              revert(0x00, 0x00)\n            tag_6:\n              pop\n              tag_7\n              0x04\n              dup1\n              calldatasize\n              sub\n              dup2\n              add\n              swap1\n              tag_8\n              swap2\n              swap1\n              tag_9\n              jump\t// in\n            tag_8:\n              tag_10\n              jump\t// in\n            tag_7:\n              stop\n                /* \"credit/full.sol\":1176:1279  function getCredits(address user) external view returns (uint256) {... */\n            tag_3:\n              callvalue\n              dup1\n              iszero\n              tag_11\n              jumpi\n              revert(0x00, 0x00)\n            tag_11:\n              pop\n              tag_12\n              0x04\n              dup1\n              calldatasize\n              sub\n              dup2\n              add\n              swap1\n              tag_13\n              swap2\n              swap1\n              tag_14\n              jump\t// in\n            tag_13:\n              tag_15\n              jump\t// in\n            tag_12:\n              mload(0x40)\n              tag_16\n              swap2\n              swap1\n              tag_17\n              jump\t// in\n            tag_16:\n              mload(0x40)\n              dup1\n              swap2\n              sub\n              swap1\n              return\n                /* \"credit/full.sol\":845:945  function addCredits() external payable {... */\n            tag_4:\n              tag_18\n              tag_19\n              jump\t// in\n            tag_18:\n              stop\n                /* \"credit/full.sol\":792:834  mapping(address => uint256) public credits */\n            tag_5:\n              callvalue\n              dup1\n              iszero\n              tag_20\n              jumpi\n              revert(0x00, 0x00)\n            tag_20:\n              pop\n              tag_21\n              0x04\n              dup1\n              calldatasize\n              sub\n              dup2\n              add\n              swap1\n              tag_22\n              swap2\n              swap1\n              tag_14\n              jump\t// in\n            tag_22:\n              tag_23\n              jump\t// in\n            tag_21:\n              mload(0x40)\n              tag_24\n              swap2\n              swap1\n              tag_17\n              jump\t// in\n            tag_24:\n              mload(0x40)\n              dup1\n              swap2\n              sub\n              swap1\n              return\n                /* \"credit/full.sol\":988:1166  function removeCredits(uint256 amount) external {... */\n            tag_10:\n                /* \"credit/full.sol\":1077:1083  amount */\n              dup1\n                /* \"credit/full.sol\":1054:1061  credits */\n              0x00\n                /* \"credit/full.sol\":1054:1073  credits[msg.sender] */\n              0x00\n                /* \"credit/full.sol\":1062:1072  msg.sender */\n              caller\n                /* \"credit/full.sol\":1054:1073  credits[msg.sender] */\n              0xffffffffffffffffffffffffffffffffffffffff\n              and\n              0xffffffffffffffffffffffffffffffffffffffff\n              and\n              dup2\n              mstore\n              0x20\n              add\n              swap1\n              dup2\n              mstore\n              0x20\n              add\n              0x00\n              keccak256\n              sload\n                /* \"credit/full.sol\":1054:1083  credits[msg.sender] >= amount */\n              lt\n              iszero\n                /* \"credit/full.sol\":1046:1108  require(credits[msg.sender] >= amount, \"Insufficient credits\") */\n              tag_26\n              jumpi\n              mload(0x40)\n              0x08c379a000000000000000000000000000000000000000000000000000000000\n              dup2\n              mstore\n              0x04\n              add\n              tag_27\n              swap1\n              tag_28\n              jump\t// in\n            tag_27:\n              mload(0x40)\n              dup1\n              swap2\n              sub\n              swap1\n              revert\n            tag_26:\n                /* \"credit/full.sol\":1141:1147  amount */\n              dup1\n                /* \"credit/full.sol\":1118:1125  credits */\n              0x00\n                /* \"credit/full.sol\":1118:1137  credits[msg.sender] */\n              0x00\n                /* \"credit/full.sol\":1126:1136  msg.sender */\n              caller\n                /* \"credit/full.sol\":1118:1137  credits[msg.sender] */\n              0xffffffffffffffffffffffffffffffffffffffff\n              and\n              0xffffffffffffffffffffffffffffffffffffffff\n              and\n              dup2\n              mstore\n              0x20\n              add\n              swap1\n              dup2\n              mstore\n              0x20\n              add\n              0x00\n              keccak256\n              0x00\n                /* \"credit/full.sol\":1118:1147  credits[msg.sender] -= amount */\n              dup3\n              dup3\n              sload\n              tag_29\n              swap2\n              swap1\n              tag_30\n              jump\t// in\n            tag_29:\n              swap3\n              pop\n              pop\n              dup2\n              swap1\n              sstore\n              pop\n                /* \"credit/full.sol\":988:1166  function removeCredits(uint256 amount) external {... */\n              pop\n              jump\t// out\n                /* \"credit/full.sol\":1176:1279  function getCredits(address user) external view returns (uint256) {... */\n            tag_15:\n                /* \"credit/full.sol\":1233:1240  uint256 */\n              0x00\n                /* \"credit/full.sol\":1259:1266  credits */\n              0x00\n                /* \"credit/full.sol\":1259:1272  credits[user] */\n              0x00\n                /* \"credit/full.sol\":1267:1271  user */\n              dup4\n                /* \"credit/full.sol\":1259:1272  credits[user] */\n              0xffffffffffffffffffffffffffffffffffffffff\n              and\n              0xffffffffffffffffffffffffffffffffffffffff\n              and\n              dup2\n              mstore\n              0x20\n              add\n              swap1\n              dup2\n              mstore\n              0x20\n              add\n              0x00\n              keccak256\n              sload\n                /* \"credit/full.sol\":1252:1272  return credits[user] */\n              swap1\n              pop\n                /* \"credit/full.sol\":1176:1279  function getCredits(address user) external view returns (uint256) {... */\n              swap2\n              swap1\n              pop\n              jump\t// out\n                /* \"credit/full.sol\":845:945  function addCredits() external payable {... */\n            tag_19:\n                /* \"credit/full.sol\":917:926  msg.value */\n              callvalue\n                /* \"credit/full.sol\":894:901  credits */\n              0x00\n                /* \"credit/full.sol\":894:913  credits[msg.sender] */\n              0x00\n                /* \"credit/full.sol\":902:912  msg.sender */\n              caller\n                /* \"credit/full.sol\":894:913  credits[msg.sender] */\n              0xffffffffffffffffffffffffffffffffffffffff\n              and\n              0xffffffffffffffffffffffffffffffffffffffff\n              and\n              dup2\n              mstore\n              0x20\n              add\n              swap1\n              dup2\n              mstore\n              0x20\n              add\n              0x00\n              keccak256\n              0x00\n                /* \"credit/full.sol\":894:926  credits[msg.sender] += msg.value */\n              dup3\n              dup3\n              sload\n              tag_33\n              swap2\n              swap1\n              tag_34\n              jump\t// in\n            tag_33:\n              swap3\n              pop\n              pop\n              dup2\n              swap1\n              sstore\n              pop\n                /* \"credit/full.sol\":845:945  function addCredits() external payable {... */\n              jump\t// out\n                /* \"credit/full.sol\":792:834  mapping(address => uint256) public credits */\n            tag_23:\n              mstore(0x20, 0x00)\n              dup1\n              0x00\n              mstore\n              keccak256(0x00, 0x40)\n              0x00\n              swap2\n              pop\n              swap1\n              pop\n              sload\n              dup2\n              jump\t// out\n                /* \"#utility.yul\":88:205   */\n            tag_36:\n                /* \"#utility.yul\":197:198   */\n              0x00\n                /* \"#utility.yul\":194:195   */\n              0x00\n                /* \"#utility.yul\":187:199   */\n              revert\n                /* \"#utility.yul\":334:411   */\n            tag_38:\n                /* \"#utility.yul\":371:378   */\n              0x00\n                /* \"#utility.yul\":400:405   */\n              dup2\n                /* \"#utility.yul\":389:405   */\n              swap1\n              pop\n                /* \"#utility.yul\":334:411   */\n              swap2\n              swap1\n              pop\n              jump\t// out\n                /* \"#utility.yul\":417:539   */\n            tag_39:\n                /* \"#utility.yul\":490:514   */\n              tag_56\n                /* \"#utility.yul\":508:513   */\n              dup2\n                /* \"#utility.yul\":490:514   */\n              tag_38\n              jump\t// in\n            tag_56:\n                /* \"#utility.yul\":483:488   */\n              dup2\n                /* \"#utility.yul\":480:515   */\n              eq\n                /* \"#utility.yul\":470:533   */\n              tag_57\n              jumpi\n                /* \"#utility.yul\":529:530   */\n              0x00\n                /* \"#utility.yul\":526:527   */\n              0x00\n                /* \"#utility.yul\":519:531   */\n              revert\n                /* \"#utility.yul\":470:533   */\n            tag_57:\n                /* \"#utility.yul\":417:539   */\n              pop\n              jump\t// out\n                /* \"#utility.yul\":545:684   */\n            tag_40:\n                /* \"#utility.yul\":591:596   */\n              0x00\n                /* \"#utility.yul\":629:635   */\n              dup2\n                /* \"#utility.yul\":616:636   */\n              calldataload\n                /* \"#utility.yul\":607:636   */\n              swap1\n              pop\n                /* \"#utility.yul\":645:678   */\n              tag_59\n                /* \"#utility.yul\":672:677   */\n              dup2\n                /* \"#utility.yul\":645:678   */\n              tag_39\n              jump\t// in\n            tag_59:\n                /* \"#utility.yul\":545:684   */\n              swap3\n              swap2\n              pop\n              pop\n              jump\t// out\n                /* \"#utility.yul\":690:1019   */\n            tag_9:\n                /* \"#utility.yul\":749:755   */\n              0x00\n                /* \"#utility.yul\":798:800   */\n              0x20\n                /* \"#utility.yul\":786:795   */\n              dup3\n                /* \"#utility.yul\":777:784   */\n              dup5\n                /* \"#utility.yul\":773:796   */\n              sub\n                /* \"#utility.yul\":769:801   */\n              slt\n                /* \"#utility.yul\":766:885   */\n              iszero\n              tag_61\n              jumpi\n                /* \"#utility.yul\":804:883   */\n              tag_62\n              tag_36\n              jump\t// in\n            tag_62:\n                /* \"#utility.yul\":766:885   */\n            tag_61:\n                /* \"#utility.yul\":924:925   */\n              0x00\n                /* \"#utility.yul\":949:1002   */\n              tag_63\n                /* \"#utility.yul\":994:1001   */\n              dup5\n                /* \"#utility.yul\":985:991   */\n              dup3\n                /* \"#utility.yul\":974:983   */\n              dup6\n                /* \"#utility.yul\":970:992   */\n              add\n                /* \"#utility.yul\":949:1002   */\n              tag_40\n              jump\t// in\n            tag_63:\n                /* \"#utility.yul\":939:1002   */\n              swap2\n              pop\n                /* \"#utility.yul\":895:1012   */\n              pop\n                /* \"#utility.yul\":690:1019   */\n              swap3\n              swap2\n              pop\n              pop\n              jump\t// out\n                /* \"#utility.yul\":1025:1151   */\n            tag_41:\n                /* \"#utility.yul\":1062:1069   */\n              0x00\n                /* \"#utility.yul\":1102:1144   */\n              0xffffffffffffffffffffffffffffffffffffffff\n                /* \"#utility.yul\":1095:1100   */\n              dup3\n                /* \"#utility.yul\":1091:1145   */\n              and\n                /* \"#utility.yul\":1080:1145   */\n              swap1\n              pop\n                /* \"#utility.yul\":1025:1151   */\n              swap2\n              swap1\n              pop\n              jump\t// out\n                /* \"#utility.yul\":1157:1253   */\n            tag_42:\n                /* \"#utility.yul\":1194:1201   */\n              0x00\n                /* \"#utility.yul\":1223:1247   */\n              tag_66\n                /* \"#utility.yul\":1241:1246   */\n              dup3\n                /* \"#utility.yul\":1223:1247   */\n              tag_41\n              jump\t// in\n            tag_66:\n                /* \"#utility.yul\":1212:1247   */\n              swap1\n              pop\n                /* \"#utility.yul\":1157:1253   */\n              swap2\n              swap1\n              pop\n              jump\t// out\n                /* \"#utility.yul\":1259:1381   */\n            tag_43:\n                /* \"#utility.yul\":1332:1356   */\n              tag_68\n                /* \"#utility.yul\":1350:1355   */\n              dup2\n                /* \"#utility.yul\":1332:1356   */\n              tag_42\n              jump\t// in\n            tag_68:\n                /* \"#utility.yul\":1325:1330   */\n              dup2\n                /* \"#utility.yul\":1322:1357   */\n              eq\n                /* \"#utility.yul\":1312:1375   */\n              tag_69\n              jumpi\n                /* \"#utility.yul\":1371:1372   */\n              0x00\n                /* \"#utility.yul\":1368:1369   */\n              0x00\n                /* \"#utility.yul\":1361:1373   */\n              revert\n                /* \"#utility.yul\":1312:1375   */\n            tag_69:\n                /* \"#utility.yul\":1259:1381   */\n              pop\n              jump\t// out\n                /* \"#utility.yul\":1387:1526   */\n            tag_44:\n                /* \"#utility.yul\":1433:1438   */\n              0x00\n                /* \"#utility.yul\":1471:1477   */\n              dup2\n                /* \"#utility.yul\":1458:1478   */\n              calldataload\n                /* \"#utility.yul\":1449:1478   */\n              swap1\n              pop\n                /* \"#utility.yul\":1487:1520   */\n              tag_71\n                /* \"#utility.yul\":1514:1519   */\n              dup2\n                /* \"#utility.yul\":1487:1520   */\n              tag_43\n              jump\t// in\n            tag_71:\n                /* \"#utility.yul\":1387:1526   */\n              swap3\n              swap2\n              pop\n              pop\n              jump\t// out\n                /* \"#utility.yul\":1532:1861   */\n            tag_14:\n                /* \"#utility.yul\":1591:1597   */\n              0x00\n                /* \"#utility.yul\":1640:1642   */\n              0x20\n                /* \"#utility.yul\":1628:1637   */\n              dup3\n                /* \"#utility.yul\":1619:1626   */\n              dup5\n                /* \"#utility.yul\":1615:1638   */\n              sub\n                /* \"#utility.yul\":1611:1643   */\n              slt\n                /* \"#utility.yul\":1608:1727   */\n              iszero\n              tag_73\n              jumpi\n                /* \"#utility.yul\":1646:1725   */\n              tag_74\n              tag_36\n              jump\t// in\n            tag_74:\n                /* \"#utility.yul\":1608:1727   */\n            tag_73:\n                /* \"#utility.yul\":1766:1767   */\n              0x00\n                /* \"#utility.yul\":1791:1844   */\n              tag_75\n                /* \"#utility.yul\":1836:1843   */\n              dup5\n                /* \"#utility.yul\":1827:1833   */\n              dup3\n                /* \"#utility.yul\":1816:1825   */\n              dup6\n                /* \"#utility.yul\":1812:1834   */\n              add\n                /* \"#utility.yul\":1791:1844   */\n              tag_44\n              jump\t// in\n            tag_75:\n                /* \"#utility.yul\":1781:1844   */\n              swap2\n              pop\n                /* \"#utility.yul\":1737:1854   */\n              pop\n                /* \"#utility.yul\":1532:1861   */\n              swap3\n              swap2\n              pop\n              pop\n              jump\t// out\n                /* \"#utility.yul\":1867:1985   */\n            tag_45:\n                /* \"#utility.yul\":1954:1978   */\n              tag_77\n                /* \"#utility.yul\":1972:1977   */\n              dup2\n                /* \"#utility.yul\":1954:1978   */\n              tag_38\n              jump\t// in\n            tag_77:\n                /* \"#utility.yul\":1949:1952   */\n              dup3\n                /* \"#utility.yul\":1942:1979   */\n              mstore\n                /* \"#utility.yul\":1867:1985   */\n              pop\n              pop\n              jump\t// out\n                /* \"#utility.yul\":1991:2213   */\n            tag_17:\n                /* \"#utility.yul\":2084:2088   */\n              0x00\n                /* \"#utility.yul\":2122:2124   */\n              0x20\n                /* \"#utility.yul\":2111:2120   */\n              dup3\n                /* \"#utility.yul\":2107:2125   */\n              add\n                /* \"#utility.yul\":2099:2125   */\n              swap1\n              pop\n                /* \"#utility.yul\":2135:2206   */\n              tag_79\n                /* \"#utility.yul\":2203:2204   */\n              0x00\n                /* \"#utility.yul\":2192:2201   */\n              dup4\n                /* \"#utility.yul\":2188:2205   */\n              add\n                /* \"#utility.yul\":2179:2185   */\n              dup5\n                /* \"#utility.yul\":2135:2206   */\n              tag_45\n              jump\t// in\n            tag_79:\n                /* \"#utility.yul\":1991:2213   */\n              swap3\n              swap2\n              pop\n              pop\n              jump\t// out\n                /* \"#utility.yul\":2219:2388   */\n            tag_46:\n                /* \"#utility.yul\":2303:2314   */\n              0x00\n                /* \"#utility.yul\":2337:2343   */\n              dup3\n                /* \"#utility.yul\":2332:2335   */\n              dup3\n                /* \"#utility.yul\":2325:2344   */\n              mstore\n                /* \"#utility.yul\":2377:2381   */\n              0x20\n                /* \"#utility.yul\":2372:2375   */\n              dup3\n                /* \"#utility.yul\":2368:2382   */\n              add\n                /* \"#utility.yul\":2353:2382   */\n              swap1\n              pop\n                /* \"#utility.yul\":2219:2388   */\n              swap3\n              swap2\n              pop\n              pop\n              jump\t// out\n                /* \"#utility.yul\":2394:2564   */\n            tag_47:\n                /* \"#utility.yul\":2534:2556   */\n              0x496e73756666696369656e742063726564697473000000000000000000000000\n                /* \"#utility.yul\":2530:2531   */\n              0x00\n                /* \"#utility.yul\":2522:2528   */\n              dup3\n                /* \"#utility.yul\":2518:2532   */\n              add\n                /* \"#utility.yul\":2511:2557   */\n              mstore\n                /* \"#utility.yul\":2394:2564   */\n              pop\n              jump\t// out\n                /* \"#utility.yul\":2570:2936   */\n            tag_48:\n                /* \"#utility.yul\":2712:2715   */\n              0x00\n                /* \"#utility.yul\":2733:2800   */\n              tag_83\n                /* \"#utility.yul\":2797:2799   */\n              0x14\n                /* \"#utility.yul\":2792:2795   */\n              dup4\n                /* \"#utility.yul\":2733:2800   */\n              tag_46\n              jump\t// in\n            tag_83:\n                /* \"#utility.yul\":2726:2800   */\n              swap2\n              pop\n                /* \"#utility.yul\":2809:2902   */\n              tag_84\n                /* \"#utility.yul\":2898:2901   */\n              dup3\n                /* \"#utility.yul\":2809:2902   */\n              tag_47\n              jump\t// in\n            tag_84:\n                /* \"#utility.yul\":2927:2929   */\n              0x20\n                /* \"#utility.yul\":2922:2925   */\n              dup3\n                /* \"#utility.yul\":2918:2930   */\n              add\n                /* \"#utility.yul\":2911:2930   */\n              swap1\n              pop\n                /* \"#utility.yul\":2570:2936   */\n              swap2\n              swap1\n              pop\n              jump\t// out\n                /* \"#utility.yul\":2942:3361   */\n            tag_28:\n                /* \"#utility.yul\":3108:3112   */\n              0x00\n                /* \"#utility.yul\":3146:3148   */\n              0x20\n                /* \"#utility.yul\":3135:3144   */\n              dup3\n                /* \"#utility.yul\":3131:3149   */\n              add\n                /* \"#utility.yul\":3123:3149   */\n              swap1\n              pop\n                /* \"#utility.yul\":3195:3204   */\n              dup2\n                /* \"#utility.yul\":3189:3193   */\n              dup2\n                /* \"#utility.yul\":3185:3205   */\n              sub\n                /* \"#utility.yul\":3181:3182   */\n              0x00\n                /* \"#utility.yul\":3170:3179   */\n              dup4\n                /* \"#utility.yul\":3166:3183   */\n              add\n                /* \"#utility.yul\":3159:3206   */\n              mstore\n                /* \"#utility.yul\":3223:3354   */\n              tag_86\n                /* \"#utility.yul\":3349:3353   */\n              dup2\n                /* \"#utility.yul\":3223:3354   */\n              tag_48\n              jump\t// in\n            tag_86:\n                /* \"#utility.yul\":3215:3354   */\n              swap1\n              pop\n                /* \"#utility.yul\":2942:3361   */\n              swap2\n              swap1\n              pop\n              jump\t// out\n                /* \"#utility.yul\":3367:3547   */\n            tag_49:\n                /* \"#utility.yul\":3415:3492   */\n              0x4e487b7100000000000000000000000000000000000000000000000000000000\n                /* \"#utility.yul\":3412:3413   */\n              0x00\n                /* \"#utility.yul\":3405:3493   */\n              mstore\n                /* \"#utility.yul\":3512:3516   */\n              0x11\n                /* \"#utility.yul\":3509:3510   */\n              0x04\n                /* \"#utility.yul\":3502:3517   */\n              mstore\n                /* \"#utility.yul\":3536:3540   */\n              0x24\n                /* \"#utility.yul\":3533:3534   */\n              0x00\n                /* \"#utility.yul\":3526:3541   */\n              revert\n                /* \"#utility.yul\":3553:3747   */\n            tag_30:\n                /* \"#utility.yul\":3593:3597   */\n              0x00\n                /* \"#utility.yul\":3613:3633   */\n              tag_89\n                /* \"#utility.yul\":3631:3632   */\n              dup3\n                /* \"#utility.yul\":3613:3633   */\n              tag_38\n              jump\t// in\n            tag_89:\n                /* \"#utility.yul\":3608:3633   */\n              swap2\n              pop\n                /* \"#utility.yul\":3647:3667   */\n              tag_90\n                /* \"#utility.yul\":3665:3666   */\n              dup4\n                /* \"#utility.yul\":3647:3667   */\n              tag_38\n              jump\t// in\n            tag_90:\n                /* \"#utility.yul\":3642:3667   */\n              swap3\n              pop\n                /* \"#utility.yul\":3691:3692   */\n              dup3\n                /* \"#utility.yul\":3688:3689   */\n              dup3\n                /* \"#utility.yul\":3684:3693   */\n              sub\n                /* \"#utility.yul\":3676:3693   */\n              swap1\n              pop\n                /* \"#utility.yul\":3715:3716   */\n              dup2\n                /* \"#utility.yul\":3709:3713   */\n              dup2\n                /* \"#utility.yul\":3706:3717   */\n              gt\n                /* \"#utility.yul\":3703:3740   */\n              iszero\n              tag_91\n              jumpi\n                /* \"#utility.yul\":3720:3738   */\n              tag_92\n              tag_49\n              jump\t// in\n            tag_92:\n                /* \"#utility.yul\":3703:3740   */\n            tag_91:\n                /* \"#utility.yul\":3553:3747   */\n              swap3\n              swap2\n              pop\n              pop\n              jump\t// out\n                /* \"#utility.yul\":3753:3944   */\n            tag_34:\n                /* \"#utility.yul\":3793:3796   */\n              0x00\n                /* \"#utility.yul\":3812:3832   */\n              tag_94\n                /* \"#utility.yul\":3830:3831   */\n              dup3\n                /* \"#utility.yul\":3812:3832   */\n              tag_38\n              jump\t// in\n            tag_94:\n                /* \"#utility.yul\":3807:3832   */\n              swap2\n              pop\n                /* \"#utility.yul\":3846:3866   */\n              tag_95\n                /* \"#utility.yul\":3864:3865   */\n              dup4\n                /* \"#utility.yul\":3846:3866   */\n              tag_38\n              jump\t// in\n            tag_95:\n                /* \"#utility.yul\":3841:3866   */\n              swap3\n              pop\n                /* \"#utility.yul\":3889:3890   */\n              dup3\n                /* \"#utility.yul\":3886:3887   */\n              dup3\n                /* \"#utility.yul\":3882:3891   */\n              add\n                /* \"#utility.yul\":3875:3891   */\n              swap1\n              pop\n                /* \"#utility.yul\":3910:3913   */\n              dup1\n                /* \"#utility.yul\":3907:3908   */\n              dup3\n                /* \"#utility.yul\":3904:3914   */\n              gt\n                /* \"#utility.yul\":3901:3937   */\n              iszero\n              tag_96\n              jumpi\n                /* \"#utility.yul\":3917:3935   */\n              tag_97\n              tag_49\n              jump\t// in\n            tag_97:\n                /* \"#utility.yul\":3901:3937   */\n            tag_96:\n                /* \"#utility.yul\":3753:3944   */\n              swap3\n              swap2\n              pop\n              pop\n              jump\t// out\n\n            auxdata: 0xa26469706673582212201f605563bc5b0fdc57a44356caa1c6e65141613d92bf1b852c32c03948cc84cf64736f6c634300081e0033\n        }\n    }\n\n    auxdata: 0xa26469706673582212200e106df7f0602266d485c3f11d48d1c5dbc82821d254b826700a8329683cbd0064736f6c634300081e0033\n}\n",
				"bytecode": {
					"linkReferences": {},
					"object": "6080604052348015600e575f5ffd5b50610fe58061001c5f395ff3fe608060405234801561000f575f5ffd5b506004361061003f575f3560e01c806397382f9e14610043578063c4fe82ab14610063578063e66fc5ac14610082575b5f5ffd5b61004b6100a0565b60405161005a93929190610566565b60405180910390f35b61006b610252565b60405161007992919061059b565b60405180910390f35b61008a610478565b60405161009791906105c2565b60405180910390f35b5f5f5f5f6040516100b09061051a565b604051809103905ff0801580156100c9573d5f5f3e3d5ffd5b5090508073ffffffffffffffffffffffffffffffffffffffff16633b66e9f6306040518263ffffffff1660e01b8152600401610105919061061a565b602060405180830381865afa158015610120573d5f5f3e3d5ffd5b505050506040513d601f19601f820116820180604052508101906101449190610661565b93508073ffffffffffffffffffffffffffffffffffffffff16632bc22b1d60016040518263ffffffff1660e01b815260040161018091906106ce565b5f604051808303815f87803b158015610197575f5ffd5b505af11580156101a9573d5f5f3e3d5ffd5b505050508073ffffffffffffffffffffffffffffffffffffffff16633b66e9f6306040518263ffffffff1660e01b81526004016101e6919061061a565b602060405180830381865afa158015610201573d5f5f3e3d5ffd5b505050506040513d601f19601f820116820180604052508101906102259190610661565b92507fffffffffffffffffffffffffffffffffffffffffffffffffffffffffffffffff8314915050909192565b5f5f5f6040516102619061051a565b604051809103905ff08015801561027a573d5f5f3e3d5ffd5b5090505f60405161028a90610527565b604051809103905ff0801580156102a3573d5f5f3e3d5ffd5b5090508173ffffffffffffffffffffffffffffffffffffffff16633f073031670de0b6b3a76400006040518263ffffffff1660e01b81526004015f604051808303818588803b1580156102f4575f5ffd5b505af1158015610306573d5f5f3e3d5ffd5b50505050508073ffffffffffffffffffffffffffffffffffffffff16633f073031670de0b6b3a76400006040518263ffffffff1660e01b81526004015f604051808303818588803b158015610359575f5ffd5b505af115801561036b573d5f5f3e3d5ffd5b50505050505f5a90508273ffffffffffffffffffffffffffffffffffffffff16632bc22b1d6706f05b59d3b200006040518263ffffffff1660e01b81526004016103b59190610720565b5f604051808303815f87803b1580156103cc575f5ffd5b505af11580156103de573d5f5f3e3d5ffd5b505050505a816103ee9190610766565b94505f5a90508273ffffffffffffffffffffffffffffffffffffffff16632bc22b1d6706f05b59d3b200006040518263ffffffff1660e01b81526004016104359190610720565b5f604051808303815f87803b15801561044c575f5ffd5b505af115801561045e573d5f5f3e3d5ffd5b505050505a8161046e9190610766565b9450505050509091565b5f5f60405161048690610527565b604051809103905ff08015801561049f573d5f5f3e3d5ffd5b5090508073ffffffffffffffffffffffffffffffffffffffff16632bc22b1d60016040518263ffffffff1660e01b81526004016104dc91906106ce565b5f604051808303815f87803b1580156104f3575f5ffd5b505af1925050508015610504575060015b610512576001915050610517565b5f9150505b90565b61033d8061079a83390190565b6104d980610ad783390190565b5f819050919050565b61054681610534565b82525050565b5f8115159050919050565b6105608161054c565b82525050565b5f6060820190506105795f83018661053d565b610586602083018561053d565b6105936040830184610557565b949350505050565b5f6040820190506105ae5f83018561053d565b6105bb602083018461053d565b9392505050565b5f6020820190506105d55f830184610557565b92915050565b5f73ffffffffffffffffffffffffffffffffffffffff82169050919050565b5f610604826105db565b9050919050565b610614816105fa565b82525050565b5f60208201905061062d5f83018461060b565b92915050565b5f5ffd5b61064081610534565b811461064a575f5ffd5b50565b5f8151905061065b81610637565b92915050565b5f6020828403121561067657610675610633565b5b5f6106838482850161064d565b91505092915050565b5f819050919050565b5f819050919050565b5f6106b86106b36106ae8461068c565b610695565b610534565b9050919050565b6106c88161069e565b82525050565b5f6020820190506106e15f8301846106bf565b92915050565b5f819050919050565b5f61070a610705610700846106e7565b610695565b610534565b9050919050565b61071a816106f0565b82525050565b5f6020820190506107335f830184610711565b92915050565b7f4e487b71000000000000000000000000000000000000000000000000000000005f52601160045260245ffd5b5f61077082610534565b915061077b83610534565b925082820390508181111561079357610792610739565b5b9291505056fe6080604052348015600e575f5ffd5b506103218061001c5f395ff3fe60806040526004361061003e575f3560e01c80632bc22b1d146100425780633b66e9f61461006a5780633f073031146100a6578063fe5ff468146100b0575b5f5ffd5b34801561004d575f5ffd5b5061006860048036038101906100639190610213565b6100ec565b005b348015610075575f5ffd5b50610090600480360381019061008b9190610298565b610138565b60405161009d91906102d2565b60405180910390f35b6100ae61017d565b005b3480156100bb575f5ffd5b506100d660048036038101906100d19190610298565b6101c8565b6040516100e391906102d2565b60405180910390f35b805f5f3373ffffffffffffffffffffffffffffffffffffffff1673ffffffffffffffffffffffffffffffffffffffff1681526020019081526020015f205f828254039250508190555050565b5f5f5f8373ffffffffffffffffffffffffffffffffffffffff1673ffffffffffffffffffffffffffffffffffffffff1681526020019081526020015f20549050919050565b345f5f3373ffffffffffffffffffffffffffffffffffffffff1673ffffffffffffffffffffffffffffffffffffffff1681526020019081526020015f205f8282540192505081905550565b5f602052805f5260405f205f915090505481565b5f5ffd5b5f819050919050565b6101f2816101e0565b81146101fc575f5ffd5b50565b5f8135905061020d816101e9565b92915050565b5f60208284031215610228576102276101dc565b5b5f610235848285016101ff565b91505092915050565b5f73ffffffffffffffffffffffffffffffffffffffff82169050919050565b5f6102678261023e565b9050919050565b6102778161025d565b8114610281575f5ffd5b50565b5f813590506102928161026e565b92915050565b5f602082840312156102ad576102ac6101dc565b5b5f6102ba84828501610284565b91505092915050565b6102cc816101e0565b82525050565b5f6020820190506102e55f8301846102c3565b9291505056fea26469706673582212207f8a5f360e3e35c537a02b2a4d91cc81406db267d77a4af11c384afa485d88b364736f6c634300081e00336080604052348015600e575f5ffd5b506104bd8061001c5f395ff3fe60806040526004361061003e575f3560e01c80632bc22b1d146100425780633b66e9f61461006a5780633f073031146100a6578063fe5ff468146100b0575b5f5ffd5b34801561004d575f5ffd5b50610068600480360381019061006391906102a4565b6100ec565b005b348015610075575f5ffd5b50610090600480360381019061008b9190610329565b6101c0565b60405161009d9190610363565b60405180910390f35b6100ae610205565b005b3480156100bb575f5ffd5b506100d660048036038101906100d19190610329565b610259565b6040516100e39190610363565b60405180910390f35b805f5f3373ffffffffffffffffffffffffffffffffffffffff1673ffffffffffffffffffffffffffffffffffffffff1681526020019081526020015f2054101561016b576040517f08c379a0000000000000000000000000000000000000000000000000000000008152600401610162906103d6565b60405180910390fd5b805f5f3373ffffffffffffffffffffffffffffffffffffffff1673ffffffffffffffffffffffffffffffffffffffff1681526020019081526020015f205f8282546101b69190610421565b9250508190555050565b5f5f5f8373ffffffffffffffffffffffffffffffffffffffff1673ffffffffffffffffffffffffffffffffffffffff1681526020019081526020015f20549050919050565b345f5f3373ffffffffffffffffffffffffffffffffffffffff1673ffffffffffffffffffffffffffffffffffffffff1681526020019081526020015f205f8282546102509190610454565b92505081905550565b5f602052805f5260405f205f915090505481565b5f5ffd5b5f819050919050565b61028381610271565b811461028d575f5ffd5b50565b5f8135905061029e8161027a565b92915050565b5f602082840312156102b9576102b861026d565b5b5f6102c684828501610290565b91505092915050565b5f73ffffffffffffffffffffffffffffffffffffffff82169050919050565b5f6102f8826102cf565b9050919050565b610308816102ee565b8114610312575f5ffd5b50565b5f81359050610323816102ff565b92915050565b5f6020828403121561033e5761033d61026d565b5b5f61034b84828501610315565b91505092915050565b61035d81610271565b82525050565b5f6020820190506103765f830184610354565b92915050565b5f82825260208201905092915050565b7f496e73756666696369656e7420637265646974730000000000000000000000005f82015250565b5f6103c060148361037c565b91506103cb8261038c565b602082019050919050565b5f6020820190508181035f8301526103ed816103b4565b9050919050565b7f4e487b71000000000000000000000000000000000000000000000000000000005f52601160045260245ffd5b5f61042b82610271565b915061043683610271565b925082820390508181111561044e5761044d6103f4565b5b92915050565b5f61045e82610271565b915061046983610271565b9250828201905080821115610481576104806103f4565b5b9291505056fea26469706673582212201f605563bc5b0fdc57a44356caa1c6e65141613d92bf1b852c32c03948cc84cf64736f6c634300081e0033a26469706673582212200e106df7f0602266d485c3f11d48d1c5dbc82821d254b826700a8329683cbd0064736f6c634300081e0033",
					"opcodes": "PUSH1 0x80 PUSH1 0x40 MSTORE CALLVALUE DUP1 ISZERO PUSH1 0xE JUMPI PUSH0 PUSH0 REVERT JUMPDEST POP PUSH2 0xFE5 DUP1 PUSH2 0x1C PUSH0 CODECOPY PUSH0 RETURN INVALID PUSH1 0x80 PUSH1 0x40 MSTORE CALLVALUE DUP1 ISZERO PUSH2 0xF JUMPI PUSH0 PUSH0 REVERT JUMPDEST POP PUSH1 0x4 CALLDATASIZE LT PUSH2 0x3F JUMPI PUSH0 CALLDATALOAD PUSH1 0xE0 SHR DUP1 PUSH4 0x97382F9E EQ PUSH2 0x43 JUMPI DUP1 PUSH4 0xC4FE82AB EQ PUSH2 0x63 JUMPI DUP1 PUSH4 0xE66FC5AC EQ PUSH2 0x82 JUMPI JUMPDEST PUSH0 PUSH0 REVERT JUMPDEST PUSH2 0x4B PUSH2 0xA0 JUMP JUMPDEST PUSH1 0x40 MLOAD PUSH2 0x5A SWAP4 SWAP3 SWAP2 SWAP1 PUSH2 0x566 JUMP JUMPDEST PUSH1 0x40 MLOAD DUP1 SWAP2 SUB SWAP1 RETURN JUMPDEST PUSH2 0x6B PUSH2 0x252 JUMP JUMPDEST PUSH1 0x40 MLOAD PUSH2 0x79 SWAP3 SWAP2 SWAP1 PUSH2 0x59B JUMP JUMPDEST PUSH1 0x40 MLOAD DUP1 SWAP2 SUB SWAP1 RETURN JUMPDEST PUSH2 0x8A PUSH2 0x478 JUMP JUMPDEST PUSH1 0x40 MLOAD PUSH2 0x97 SWAP2 SWAP1 PUSH2 0x5C2 JUMP JUMPDEST PUSH1 0x40 MLOAD DUP1 SWAP2 SUB SWAP1 RETURN JUMPDEST PUSH0 PUSH0 PUSH0 PUSH0 PUSH1 0x40 MLOAD PUSH2 0xB0 SWAP1 PUSH2 0x51A JUMP JUMPDEST PUSH1 0x40 MLOAD DUP1 SWAP2 SUB SWAP1 PUSH0 CREATE DUP1 ISZERO DUP1 ISZERO PUSH2 0xC9 JUMPI RETURNDATASIZE PUSH0 PUSH0 RETURNDATACOPY RETURNDATASIZE PUSH0 REVERT JUMPDEST POP SWAP1 POP DUP1 PUSH20 0xFFFFFFFFFFFFFFFFFFFFFFFFFFFFFFFFFFFFFFFF AND PUSH4 0x3B66E9F6 ADDRESS PUSH1 0x40 MLOAD DUP3 PUSH4 0xFFFFFFFF AND PUSH1 0xE0 SHL DUP2 MSTORE PUSH1 0x4 ADD PUSH2 0x105 SWAP2 SWAP1 PUSH2 0x61A JUMP JUMPDEST PUSH1 0x20 PUSH1 0x40 MLOAD DUP1 DUP4 SUB DUP2 DUP7 GAS STATICCALL ISZERO DUP1 ISZERO PUSH2 0x120 JUMPI RETURNDATASIZE PUSH0 PUSH0 RETURNDATACOPY RETURNDATASIZE PUSH0 REVERT JUMPDEST POP POP POP POP PUSH1 0x40 MLOAD RETURNDATASIZE PUSH1 0x1F NOT PUSH1 0x1F DUP3 ADD AND DUP3 ADD DUP1 PUSH1 0x40 MSTORE POP DUP2 ADD SWAP1 PUSH2 0x144 SWAP2 SWAP1 PUSH2 0x661 JUMP JUMPDEST SWAP4 POP DUP1 PUSH20 0xFFFFFFFFFFFFFFFFFFFFFFFFFFFFFFFFFFFFFFFF AND PUSH4 0x2BC22B1D PUSH1 0x1 PUSH1 0x40 MLOAD DUP3 PUSH4 0xFFFFFFFF AND PUSH1 0xE0 SHL DUP2 MSTORE PUSH1 0x4 ADD PUSH2 0x180 SWAP2 SWAP1 PUSH2 0x6CE JUMP JUMPDEST PUSH0 PUSH1 0x40 MLOAD DUP1 DUP4 SUB DUP2 PUSH0 DUP8 DUP1 EXTCODESIZE ISZERO DUP1 ISZERO PUSH2 0x197 JUMPI PUSH0 PUSH0 REVERT JUMPDEST POP GAS CALL ISZERO DUP1 ISZERO PUSH2 0x1A9 JUMPI RETURNDATASIZE PUSH0 PUSH0 RETURNDATACOPY RETURNDATASIZE PUSH0 REVERT JUMPDEST POP POP POP POP DUP1 PUSH20 0xFFFFFFFFFFFFFFFFFFFFFFFFFFFFFFFFFFFFFFFF AND PUSH4 0x3B66E9F6 ADDRESS PUSH1 0x40 MLOAD DUP3 PUSH4 0xFFFFFFFF AND PUSH1 0xE0 SHL DUP2 MSTORE PUSH1 0x4 ADD PUSH2 0x1E6 SWAP2 SWAP1 PUSH2 0x61A JUMP JUMPDEST PUSH1 0x20 PUSH1 0x40 MLOAD DUP1 DUP4 SUB DUP2 DUP7 GAS STATICCALL ISZERO DUP1 ISZERO PUSH2 0x201 JUMPI RETURNDATASIZE PUSH0 PUSH0 RETURNDATACOPY RETURNDATASIZE PUSH0 REVERT JUMPDEST POP POP POP POP PUSH1 0x40 MLOAD RETURNDATASIZE PUSH1 0x1F NOT PUSH1 0x1F DUP3 ADD AND DUP3 ADD DUP1 PUSH1 0x40 MSTORE POP DUP2 ADD SWAP1 PUSH2 0x225 SWAP2 SWAP1 PUSH2 0x661 JUMP JUMPDEST SWAP3 POP PUSH32 0xFFFFFFFFFFFFFFFFFFFFFFFFFFFFFFFFFFFFFFFFFFFFFFFFFFFFFFFFFFFFFFFF DUP4 EQ SWAP2 POP POP SWAP1 SWAP2 SWAP3 JUMP JUMPDEST PUSH0 PUSH0 PUSH0 PUSH1 0x40 MLOAD PUSH2 0x261 SWAP1 PUSH2 0x51A JUMP JUMPDEST PUSH1 0x40 MLOAD DUP1 SWAP2 SUB SWAP1 PUSH0 CREATE DUP1 ISZERO DUP1 ISZERO PUSH2 0x27A JUMPI RETURNDATASIZE PUSH0 PUSH0 RETURNDATACOPY RETURNDATASIZE PUSH0 REVERT JUMPDEST POP SWAP1 POP PUSH0 PUSH1 0x40 MLOAD PUSH2 0x28A SWAP1 PUSH2 0x527 JUMP JUMPDEST PUSH1 0x40 MLOAD DUP1 SWAP2 SUB SWAP1 PUSH0 CREATE DUP1 ISZERO DUP1 ISZERO PUSH2 0x2A3 JUMPI RETURNDATASIZE PUSH0 PUSH0 RETURNDATACOPY RETURNDATASIZE PUSH0 REVERT JUMPDEST POP SWAP1 POP DUP2 PUSH20 0xFFFFFFFFFFFFFFFFFFFFFFFFFFFFFFFFFFFFFFFF AND PUSH4 0x3F073031 PUSH8 0xDE0B6B3A7640000 PUSH1 0x40 MLOAD DUP3 PUSH4 0xFFFFFFFF AND PUSH1 0xE0 SHL DUP2 MSTORE PUSH1 0x4 ADD PUSH0 PUSH1 0x40 MLOAD DUP1 DUP4 SUB DUP2 DUP6 DUP9 DUP1 EXTCODESIZE ISZERO DUP1 ISZERO PUSH2 0x2F4 JUMPI PUSH0 PUSH0 REVERT JUMPDEST POP GAS CALL ISZERO DUP1 ISZERO PUSH2 0x306 JUMPI RETURNDATASIZE PUSH0 PUSH0 RETURNDATACOPY RETURNDATASIZE PUSH0 REVERT JUMPDEST POP POP POP POP POP DUP1 PUSH20 0xFFFFFFFFFFFFFFFFFFFFFFFFFFFFFFFFFFFFFFFF AND PUSH4 0x3F073031 PUSH8 0xDE0B6B3A7640000 PUSH1 0x40 MLOAD DUP3 PUSH4 0xFFFFFFFF AND PUSH1 0xE0 SHL DUP2 MSTORE PUSH1 0x4 ADD PUSH0 PUSH1 0x40 MLOAD DUP1 DUP4 SUB DUP2 DUP6 DUP9 DUP1 EXTCODESIZE ISZERO DUP1 ISZERO PUSH2 0x359 JUMPI PUSH0 PUSH0 REVERT JUMPDEST POP GAS CALL ISZERO DUP1 ISZERO PUSH2 0x36B JUMPI RETURNDATASIZE PUSH0 PUSH0 RETURNDATACOPY RETURNDATASIZE PUSH0 REVERT JUMPDEST POP POP POP POP POP PUSH0 GAS SWAP1 POP DUP3 PUSH20 0xFFFFFFFFFFFFFFFFFFFFFFFFFFFFFFFFFFFFFFFF AND PUSH4 0x2BC22B1D PUSH8 0x6F05B59D3B20000 PUSH1 0x40 MLOAD DUP3 PUSH4 0xFFFFFFFF AND PUSH1 0xE0 SHL DUP2 MSTORE PUSH1 0x4 ADD PUSH2 0x3B5 SWAP2 SWAP1 PUSH2 0x720 JUMP JUMPDEST PUSH0 PUSH1 0x40 MLOAD DUP1 DUP4 SUB DUP2 PUSH0 DUP8 DUP1 EXTCODESIZE ISZERO DUP1 ISZERO PUSH2 0x3CC JUMPI PUSH0 PUSH0 REVERT JUMPDEST POP GAS CALL ISZERO DUP1 ISZERO PUSH2 0x3DE JUMPI RETURNDATASIZE PUSH0 PUSH0 RETURNDATACOPY RETURNDATASIZE PUSH0 REVERT JUMPDEST POP POP POP POP GAS DUP2 PUSH2 0x3EE SWAP2 SWAP1 PUSH2 0x766 JUMP JUMPDEST SWAP5 POP PUSH0 GAS SWAP1 POP DUP3 PUSH20 0xFFFFFFFFFFFFFFFFFFFFFFFFFFFFFFFFFFFFFFFF AND PUSH4 0x2BC22B1D PUSH8 0x6F05B59D3B20000 PUSH1 0x40 MLOAD DUP3 PUSH4 0xFFFFFFFF AND PUSH1 0xE0 SHL DUP2 MSTORE PUSH1 0x4 ADD PUSH2 0x435 SWAP2 SWAP1 PUSH2 0x720 JUMP JUMPDEST PUSH0 PUSH1 0x40 MLOAD DUP1 DUP4 SUB DUP2 PUSH0 DUP8 DUP1 EXTCODESIZE ISZERO DUP1 ISZERO PUSH2 0x44C JUMPI PUSH0 PUSH0 REVERT JUMPDEST POP GAS CALL ISZERO DUP1 ISZERO PUSH2 0x45E JUMPI RETURNDATASIZE PUSH0 PUSH0 RETURNDATACOPY RETURNDATASIZE PUSH0 REVERT JUMPDEST POP POP POP POP GAS DUP2 PUSH2 0x46E SWAP2 SWAP1 PUSH2 0x766 JUMP JUMPDEST SWAP5 POP POP POP POP POP SWAP1 SWAP2 JUMP JUMPDEST PUSH0 PUSH0 PUSH1 0x40 MLOAD PUSH2 0x486 SWAP1 PUSH2 0x527 JUMP JUMPDEST PUSH1 0x40 MLOAD DUP1 SWAP2 SUB SWAP1 PUSH0 CREATE DUP1 ISZERO DUP1 ISZERO PUSH2 0x49F JUMPI RETURNDATASIZE PUSH0 PUSH0 RETURNDATACOPY RETURNDATASIZE PUSH0 REVERT JUMPDEST POP SWAP1 POP DUP1 PUSH20 0xFFFFFFFFFFFFFFFFFFFFFFFFFFFFFFFFFFFFFFFF AND PUSH4 0x2BC22B1D PUSH1 0x1 PUSH1 0x40 MLOAD DUP3 PUSH4 0xFFFFFFFF AND PUSH1 0xE0 SHL DUP2 MSTORE PUSH1 0x4 ADD PUSH2 0x4DC SWAP2 SWAP1 PUSH2 0x6CE JUMP JUMPDEST PUSH0 PUSH1 0x40 MLOAD DUP1 DUP4 SUB DUP2 PUSH0 DUP8 DUP1 EXTCODESIZE ISZERO DUP1 ISZERO PUSH2 0x4F3 JUMPI PUSH0 PUSH0 REVERT JUMPDEST POP GAS CALL SWAP3 POP POP POP DUP1 ISZERO PUSH2 0x504 JUMPI POP PUSH1 0x1 JUMPDEST PUSH2 0x512 JUMPI PUSH1 0x1 SWAP2 POP POP PUSH2 0x517 JUMP JUMPDEST PUSH0 SWAP2 POP POP JUMPDEST SWAP1 JUMP JUMPDEST PUSH2 0x33D DUP1 PUSH2 0x79A DUP4 CODECOPY ADD SWAP1 JUMP JUMPDEST PUSH2 0x4D9 DUP1 PUSH2 0xAD7 DUP4 CODECOPY ADD SWAP1 JUMP JUMPDEST PUSH0 DUP2 SWAP1 POP SWAP2 SWAP1 POP JUMP JUMPDEST PUSH2 0x546 DUP2 PUSH2 0x534 JUMP JUMPDEST DUP3 MSTORE POP POP JUMP JUMPDEST PUSH0 DUP2 ISZERO ISZERO SWAP1 POP SWAP2 SWAP1 POP JUMP JUMPDEST PUSH2 0x560 DUP2 PUSH2 0x54C JUMP JUMPDEST DUP3 MSTORE POP POP JUMP JUMPDEST PUSH0 PUSH1 0x60 DUP3 ADD SWAP1 POP PUSH2 0x579 PUSH0 DUP4 ADD DUP7 PUSH2 0x53D JUMP JUMPDEST PUSH2 0x586 PUSH1 0x20 DUP4 ADD DUP6 PUSH2 0x53D JUMP JUMPDEST PUSH2 0x593 PUSH1 0x40 DUP4 ADD DUP5 PUSH2 0x557 JUMP JUMPDEST SWAP5 SWAP4 POP POP POP POP JUMP JUMPDEST PUSH0 PUSH1 0x40 DUP3 ADD SWAP1 POP PUSH2 0x5AE PUSH0 DUP4 ADD DUP6 PUSH2 0x53D JUMP JUMPDEST PUSH2 0x5BB PUSH1 0x20 DUP4 ADD DUP5 PUSH2 0x53D JUMP JUMPDEST SWAP4 SWAP3 POP POP POP JUMP JUMPDEST PUSH0 PUSH1 0x20 DUP3 ADD SWAP1 POP PUSH2 0x5D5 PUSH0 DUP4 ADD DUP5 PUSH2 0x557 JUMP JUMPDEST SWAP3 SWAP2 POP POP JUMP JUMPDEST PUSH0 PUSH20 0xFFFFFFFFFFFFFFFFFFFFFFFFFFFFFFFFFFFFFFFF DUP3 AND SWAP1 POP SWAP2 SWAP1 POP JUMP JUMPDEST PUSH0 PUSH2 0x604 DUP3 PUSH2 0x5DB JUMP JUMPDEST SWAP1 POP SWAP2 SWAP1 POP JUMP JUMPDEST PUSH2 0x614 DUP2 PUSH2 0x5FA JUMP JUMPDEST DUP3 MSTORE POP POP JUMP JUMPDEST PUSH0 PUSH1 0x20 DUP3 ADD SWAP1 POP PUSH2 0x62D PUSH0 DUP4 ADD DUP5 PUSH2 0x60B JUMP JUMPDEST SWAP3 SWAP2 POP POP JUMP JUMPDEST PUSH0 PUSH0 REVERT JUMPDEST PUSH2 0x640 DUP2 PUSH2 0x534 JUMP JUMPDEST DUP2 EQ PUSH2 0x64A JUMPI PUSH0 PUSH0 REVERT JUMPDEST POP JUMP JUMPDEST PUSH0 DUP2 MLOAD SWAP1 POP PUSH2 0x65B DUP2 PUSH2 0x637 JUMP JUMPDEST SWAP3 SWAP2 POP POP JUMP JUMPDEST PUSH0 PUSH1 0x20 DUP3 DUP5 SUB SLT ISZERO PUSH2 0x676 JUMPI PUSH2 0x675 PUSH2 0x633 JUMP JUMPDEST JUMPDEST PUSH0 PUSH2 0x683 DUP5 DUP3 DUP6 ADD PUSH2 0x64D JUMP JUMPDEST SWAP2 POP POP SWAP3 SWAP2 POP POP JUMP JUMPDEST PUSH0 DUP2 SWAP1 POP SWAP2 SWAP1 POP JUMP JUMPDEST PUSH0 DUP2 SWAP1 POP SWAP2 SWAP1 POP JUMP JUMPDEST PUSH0 PUSH2 0x6B8 PUSH2 0x6B3 PUSH2 0x6AE DUP5 PUSH2 0x68C JUMP JUMPDEST PUSH2 0x695 JUMP JUMPDEST PUSH2 0x534 JUMP JUMPDEST SWAP1 POP SWAP2 SWAP1 POP JUMP JUMPDEST PUSH2 0x6C8 DUP2 PUSH2 0x69E JUMP JUMPDEST DUP3 MSTORE POP POP JUMP JUMPDEST PUSH0 PUSH1 0x20 DUP3 ADD SWAP1 POP PUSH2 0x6E1 PUSH0 DUP4 ADD DUP5 PUSH2 0x6BF JUMP JUMPDEST SWAP3 SWAP2 POP POP JUMP JUMPDEST PUSH0 DUP2 SWAP1 POP SWAP2 SWAP1 POP JUMP JUMPDEST PUSH0 PUSH2 0x70A PUSH2 0x705 PUSH2 0x700 DUP5 PUSH2 0x6E7 JUMP JUMPDEST PUSH2 0x695 JUMP JUMPDEST PUSH2 0x534 JUMP JUMPDEST SWAP1 POP SWAP2 SWAP1 POP JUMP JUMPDEST PUSH2 0x71A DUP2 PUSH2 0x6F0 JUMP JUMPDEST DUP3 MSTORE POP POP JUMP JUMPDEST PUSH0 PUSH1 0x20 DUP3 ADD SWAP1 POP PUSH2 0x733 PUSH0 DUP4 ADD DUP5 PUSH2 0x711 JUMP JUMPDEST SWAP3 SWAP2 POP POP JUMP JUMPDEST PUSH32 0x4E487B7100000000000000000000000000000000000000000000000000000000 PUSH0 MSTORE PUSH1 0x11 PUSH1 0x4 MSTORE PUSH1 0x24 PUSH0 REVERT JUMPDEST PUSH0 PUSH2 0x770 DUP3 PUSH2 0x534 JUMP JUMPDEST SWAP2 POP PUSH2 0x77B DUP4 PUSH2 0x534 JUMP JUMPDEST SWAP3 POP DUP3 DUP3 SUB SWAP1 POP DUP2 DUP2 GT ISZERO PUSH2 0x793 JUMPI PUSH2 0x792 PUSH2 0x739 JUMP JUMPDEST JUMPDEST SWAP3 SWAP2 POP POP JUMP INVALID PUSH1 0x80 PUSH1 0x40 MSTORE CALLVALUE DUP1 ISZERO PUSH1 0xE JUMPI PUSH0 PUSH0 REVERT JUMPDEST POP PUSH2 0x321 DUP1 PUSH2 0x1C PUSH0 CODECOPY PUSH0 RETURN INVALID PUSH1 0x80 PUSH1 0x40 MSTORE PUSH1 0x4 CALLDATASIZE LT PUSH2 0x3E JUMPI PUSH0 CALLDATALOAD PUSH1 0xE0 SHR DUP1 PUSH4 0x2BC22B1D EQ PUSH2 0x42 JUMPI DUP1 PUSH4 0x3B66E9F6 EQ PUSH2 0x6A JUMPI DUP1 PUSH4 0x3F073031 EQ PUSH2 0xA6 JUMPI DUP1 PUSH4 0xFE5FF468 EQ PUSH2 0xB0 JUMPI JUMPDEST PUSH0 PUSH0 REVERT JUMPDEST CALLVALUE DUP1 ISZERO PUSH2 0x4D JUMPI PUSH0 PUSH0 REVERT JUMPDEST POP PUSH2 0x68 PUSH1 0x4 DUP1 CALLDATASIZE SUB DUP2 ADD SWAP1 PUSH2 0x63 SWAP2 SWAP1 PUSH2 0x213 JUMP JUMPDEST PUSH2 0xEC JUMP JUMPDEST STOP JUMPDEST CALLVALUE DUP1 ISZERO PUSH2 0x75 JUMPI PUSH0 PUSH0 REVERT JUMPDEST POP PUSH2 0x90 PUSH1 0x4 DUP1 CALLDATASIZE SUB DUP2 ADD SWAP1 PUSH2 0x8B SWAP2 SWAP1 PUSH2 0x298 JUMP JUMPDEST PUSH2 0x138 JUMP JUMPDEST PUSH1 0x40 MLOAD PUSH2 0x9D SWAP2 SWAP1 PUSH2 0x2D2 JUMP JUMPDEST PUSH1 0x40 MLOAD DUP1 SWAP2 SUB SWAP1 RETURN JUMPDEST PUSH2 0xAE PUSH2 0x17D JUMP JUMPDEST STOP JUMPDEST CALLVALUE DUP1 ISZERO PUSH2 0xBB JUMPI PUSH0 PUSH0 REVERT JUMPDEST POP PUSH2 0xD6 PUSH1 0x4 DUP1 CALLDATASIZE SUB DUP2 ADD SWAP1 PUSH2 0xD1 SWAP2 SWAP1 PUSH2 0x298 JUMP JUMPDEST PUSH2 0x1C8 JUMP JUMPDEST PUSH1 0x40 MLOAD PUSH2 0xE3 SWAP2 SWAP1 PUSH2 0x2D2 JUMP JUMPDEST PUSH1 0x40 MLOAD DUP1 SWAP2 SUB SWAP1 RETURN JUMPDEST DUP1 PUSH0 PUSH0 CALLER PUSH20 0xFFFFFFFFFFFFFFFFFFFFFFFFFFFFFFFFFFFFFFFF AND PUSH20 0xFFFFFFFFFFFFFFFFFFFFFFFFFFFFFFFFFFFFFFFF AND DUP2 MSTORE PUSH1 0x20 ADD SWAP1 DUP2 MSTORE PUSH1 0x20 ADD PUSH0 KECCAK256 PUSH0 DUP3 DUP3 SLOAD SUB SWAP3 POP POP DUP2 SWAP1 SSTORE POP POP JUMP JUMPDEST PUSH0 PUSH0 PUSH0 DUP4 PUSH20 0xFFFFFFFFFFFFFFFFFFFFFFFFFFFFFFFFFFFFFFFF AND PUSH20 0xFFFFFFFFFFFFFFFFFFFFFFFFFFFFFFFFFFFFFFFF AND DUP2 MSTORE PUSH1 0x20 ADD SWAP1 DUP2 MSTORE PUSH1 0x20 ADD PUSH0 KECCAK256 SLOAD SWAP1 POP SWAP2 SWAP1 POP JUMP JUMPDEST CALLVALUE PUSH0 PUSH0 CALLER PUSH20 0xFFFFFFFFFFFFFFFFFFFFFFFFFFFFFFFFFFFFFFFF AND PUSH20 0xFFFFFFFFFFFFFFFFFFFFFFFFFFFFFFFFFFFFFFFF AND DUP2 MSTORE PUSH1 0x20 ADD SWAP1 DUP2 MSTORE PUSH1 0x20 ADD PUSH0 KECCAK256 PUSH0 DUP3 DUP3 SLOAD ADD SWAP3 POP POP DUP2 SWAP1 SSTORE POP JUMP JUMPDEST PUSH0 PUSH1 0x20 MSTORE DUP1 PUSH0 MSTORE PUSH1 0x40 PUSH0 KECCAK256 PUSH0 SWAP2 POP SWAP1 POP SLOAD DUP2 JUMP JUMPDEST PUSH0 PUSH0 REVERT JUMPDEST PUSH0 DUP2 SWAP1 POP SWAP2 SWAP1 POP JUMP JUMPDEST PUSH2 0x1F2 DUP2 PUSH2 0x1E0 JUMP JUMPDEST DUP2 EQ PUSH2 0x1FC JUMPI PUSH0 PUSH0 REVERT JUMPDEST POP JUMP JUMPDEST PUSH0 DUP2 CALLDATALOAD SWAP1 POP PUSH2 0x20D DUP2 PUSH2 0x1E9 JUMP JUMPDEST SWAP3 SWAP2 POP POP JUMP JUMPDEST PUSH0 PUSH1 0x20 DUP3 DUP5 SUB SLT ISZERO PUSH2 0x228 JUMPI PUSH2 0x227 PUSH2 0x1DC JUMP JUMPDEST JUMPDEST PUSH0 PUSH2 0x235 DUP5 DUP3 DUP6 ADD PUSH2 0x1FF JUMP JUMPDEST SWAP2 POP POP SWAP3 SWAP2 POP POP JUMP JUMPDEST PUSH0 PUSH20 0xFFFFFFFFFFFFFFFFFFFFFFFFFFFFFFFFFFFFFFFF DUP3 AND SWAP1 POP SWAP2 SWAP1 POP JUMP JUMPDEST PUSH0 PUSH2 0x267 DUP3 PUSH2 0x23E JUMP JUMPDEST SWAP1 POP SWAP2 SWAP1 POP JUMP JUMPDEST PUSH2 0x277 DUP2 PUSH2 0x25D JUMP JUMPDEST DUP2 EQ PUSH2 0x281 JUMPI PUSH0 PUSH0 REVERT JUMPDEST POP JUMP JUMPDEST PUSH0 DUP2 CALLDATALOAD SWAP1 POP PUSH2 0x292 DUP2 PUSH2 0x26E JUMP JUMPDEST SWAP3 SWAP2 POP POP JUMP JUMPDEST PUSH0 PUSH1 0x20 DUP3 DUP5 SUB SLT ISZERO PUSH2 0x2AD JUMPI PUSH2 0x2AC PUSH2 0x1DC JUMP JUMPDEST JUMPDEST PUSH0 PUSH2 0x2BA DUP5 DUP3 DUP6 ADD PUSH2 0x284 JUMP JUMPDEST SWAP2 POP POP SWAP3 SWAP2 POP POP JUMP JUMPDEST PUSH2 0x2CC DUP2 PUSH2 0x1E0 JUMP JUMPDEST DUP3 MSTORE POP POP JUMP JUMPDEST PUSH0 PUSH1 0x20 DUP3 ADD SWAP1 POP PUSH2 0x2E5 PUSH0 DUP4 ADD DUP5 PUSH2 0x2C3 JUMP JUMPDEST SWAP3 SWAP2 POP POP JUMP INVALID LOG2 PUSH5 0x6970667358 0x22 SLT KECCAK256 PUSH32 0x8A5F360E3E35C537A02B2A4D91CC81406DB267D77A4AF11C384AFA485D88B364 PUSH20 0x6F6C634300081E00336080604052348015600E57 PUSH0 PUSH0 REVERT JUMPDEST POP PUSH2 0x4BD DUP1 PUSH2 0x1C PUSH0 CODECOPY PUSH0 RETURN INVALID PUSH1 0x80 PUSH1 0x40 MSTORE PUSH1 0x4 CALLDATASIZE LT PUSH2 0x3E JUMPI PUSH0 CALLDATALOAD PUSH1 0xE0 SHR DUP1 PUSH4 0x2BC22B1D EQ PUSH2 0x42 JUMPI DUP1 PUSH4 0x3B66E9F6 EQ PUSH2 0x6A JUMPI DUP1 PUSH4 0x3F073031 EQ PUSH2 0xA6 JUMPI DUP1 PUSH4 0xFE5FF468 EQ PUSH2 0xB0 JUMPI JUMPDEST PUSH0 PUSH0 REVERT JUMPDEST CALLVALUE DUP1 ISZERO PUSH2 0x4D JUMPI PUSH0 PUSH0 REVERT JUMPDEST POP PUSH2 0x68 PUSH1 0x4 DUP1 CALLDATASIZE SUB DUP2 ADD SWAP1 PUSH2 0x63 SWAP2 SWAP1 PUSH2 0x2A4 JUMP JUMPDEST PUSH2 0xEC JUMP JUMPDEST STOP JUMPDEST CALLVALUE DUP1 ISZERO PUSH2 0x75 JUMPI PUSH0 PUSH0 REVERT JUMPDEST POP PUSH2 0x90 PUSH1 0x4 DUP1 CALLDATASIZE SUB DUP2 ADD SWAP1 PUSH2 0x8B SWAP2 SWAP1 PUSH2 0x329 JUMP JUMPDEST PUSH2 0x1C0 JUMP JUMPDEST PUSH1 0x40 MLOAD PUSH2 0x9D SWAP2 SWAP1 PUSH2 0x363 JUMP JUMPDEST PUSH1 0x40 MLOAD DUP1 SWAP2 SUB SWAP1 RETURN JUMPDEST PUSH2 0xAE PUSH2 0x205 JUMP JUMPDEST STOP JUMPDEST CALLVALUE DUP1 ISZERO PUSH2 0xBB JUMPI PUSH0 PUSH0 REVERT JUMPDEST POP PUSH2 0xD6 PUSH1 0x4 DUP1 CALLDATASIZE SUB DUP2 ADD SWAP1 PUSH2 0xD1 SWAP2 SWAP1 PUSH2 0x329 JUMP JUMPDEST PUSH2 0x259 JUMP JUMPDEST PUSH1 0x40 MLOAD PUSH2 0xE3 SWAP2 SWAP1 PUSH2 0x363 JUMP JUMPDEST PUSH1 0x40 MLOAD DUP1 SWAP2 SUB SWAP1 RETURN JUMPDEST DUP1 PUSH0 PUSH0 CALLER PUSH20 0xFFFFFFFFFFFFFFFFFFFFFFFFFFFFFFFFFFFFFFFF AND PUSH20 0xFFFFFFFFFFFFFFFFFFFFFFFFFFFFFFFFFFFFFFFF AND DUP2 MSTORE PUSH1 0x20 ADD SWAP1 DUP2 MSTORE PUSH1 0x20 ADD PUSH0 KECCAK256 SLOAD LT ISZERO PUSH2 0x16B JUMPI PUSH1 0x40 MLOAD PUSH32 0x8C379A000000000000000000000000000000000000000000000000000000000 DUP2 MSTORE PUSH1 0x4 ADD PUSH2 0x162 SWAP1 PUSH2 0x3D6 JUMP JUMPDEST PUSH1 0x40 MLOAD DUP1 SWAP2 SUB SWAP1 REVERT JUMPDEST DUP1 PUSH0 PUSH0 CALLER PUSH20 0xFFFFFFFFFFFFFFFFFFFFFFFFFFFFFFFFFFFFFFFF AND PUSH20 0xFFFFFFFFFFFFFFFFFFFFFFFFFFFFFFFFFFFFFFFF AND DUP2 MSTORE PUSH1 0x20 ADD SWAP1 DUP2 MSTORE PUSH1 0x20 ADD PUSH0 KECCAK256 PUSH0 DUP3 DUP3 SLOAD PUSH2 0x1B6 SWAP2 SWAP1 PUSH2 0x421 JUMP JUMPDEST SWAP3 POP POP DUP2 SWAP1 SSTORE POP POP JUMP JUMPDEST PUSH0 PUSH0 PUSH0 DUP4 PUSH20 0xFFFFFFFFFFFFFFFFFFFFFFFFFFFFFFFFFFFFFFFF AND PUSH20 0xFFFFFFFFFFFFFFFFFFFFFFFFFFFFFFFFFFFFFFFF AND DUP2 MSTORE PUSH1 0x20 ADD SWAP1 DUP2 MSTORE PUSH1 0x20 ADD PUSH0 KECCAK256 SLOAD SWAP1 POP SWAP2 SWAP1 POP JUMP JUMPDEST CALLVALUE PUSH0 PUSH0 CALLER PUSH20 0xFFFFFFFFFFFFFFFFFFFFFFFFFFFFFFFFFFFFFFFF AND PUSH20 0xFFFFFFFFFFFFFFFFFFFFFFFFFFFFFFFFFFFFFFFF AND DUP2 MSTORE PUSH1 0x20 ADD SWAP1 DUP2 MSTORE PUSH1 0x20 ADD PUSH0 KECCAK256 PUSH0 DUP3 DUP3 SLOAD PUSH2 0x250 SWAP2 SWAP1 PUSH2 0x454 JUMP JUMPDEST SWAP3 POP POP DUP2 SWAP1 SSTORE POP JUMP JUMPDEST PUSH0 PUSH1 0x20 MSTORE DUP1 PUSH0 MSTORE PUSH1 0x40 PUSH0 KECCAK256 PUSH0 SWAP2 POP SWAP1 POP SLOAD DUP2 JUMP JUMPDEST PUSH0 PUSH0 REVERT JUMPDEST PUSH0 DUP2 SWAP1 POP SWAP2 SWAP1 POP JUMP JUMPDEST PUSH2 0x283 DUP2 PUSH2 0x271 JUMP JUMPDEST DUP2 EQ PUSH2 0x28D JUMPI PUSH0 PUSH0 REVERT JUMPDEST POP JUMP JUMPDEST PUSH0 DUP2 CALLDATALOAD SWAP1 POP PUSH2 0x29E DUP2 PUSH2 0x27A JUMP JUMPDEST SWAP3 SWAP2 POP POP JUMP JUMPDEST PUSH0 PUSH1 0x20 DUP3 DUP5 SUB SLT ISZERO PUSH2 0x2B9 JUMPI PUSH2 0x2B8 PUSH2 0x26D JUMP JUMPDEST JUMPDEST PUSH0 PUSH2 0x2C6 DUP5 DUP3 DUP6 ADD PUSH2 0x290 JUMP JUMPDEST SWAP2 POP POP SWAP3 SWAP2 POP POP JUMP JUMPDEST PUSH0 PUSH20 0xFFFFFFFFFFFFFFFFFFFFFFFFFFFFFFFFFFFFFFFF DUP3 AND SWAP1 POP SWAP2 SWAP1 POP JUMP JUMPDEST PUSH0 PUSH2 0x2F8 DUP3 PUSH2 0x2CF JUMP JUMPDEST SWAP1 POP SWAP2 SWAP1 POP JUMP JUMPDEST PUSH2 0x308 DUP2 PUSH2 0x2EE JUMP JUMPDEST DUP2 EQ PUSH2 0x312 JUMPI PUSH0 PUSH0 REVERT JUMPDEST POP JUMP JUMPDEST PUSH0 DUP2 CALLDATALOAD SWAP1 POP PUSH2 0x323 DUP2 PUSH2 0x2FF JUMP JUMPDEST SWAP3 SWAP2 POP POP JUMP JUMPDEST PUSH0 PUSH1 0x20 DUP3 DUP5 SUB SLT ISZERO PUSH2 0x33E JUMPI PUSH2 0x33D PUSH2 0x26D JUMP JUMPDEST JUMPDEST PUSH0 PUSH2 0x34B DUP5 DUP3 DUP6 ADD PUSH2 0x315 JUMP JUMPDEST SWAP2 POP POP SWAP3 SWAP2 POP POP JUMP JUMPDEST PUSH2 0x35D DUP2 PUSH2 0x271 JUMP JUMPDEST DUP3 MSTORE POP POP JUMP JUMPDEST PUSH0 PUSH1 0x20 DUP3 ADD SWAP1 POP PUSH2 0x376 PUSH0 DUP4 ADD DUP5 PUSH2 0x354 JUMP JUMPDEST SWAP3 SWAP2 POP POP JUMP JUMPDEST PUSH0 DUP3 DUP3 MSTORE PUSH1 0x20 DUP3 ADD SWAP1 POP SWAP3 SWAP2 POP POP JUMP JUMPDEST PUSH32 0x496E73756666696369656E742063726564697473000000000000000000000000 PUSH0 DUP3 ADD MSTORE POP JUMP JUMPDEST PUSH0 PUSH2 0x3C0 PUSH1 0x14 DUP4 PUSH2 0x37C JUMP JUMPDEST SWAP2 POP PUSH2 0x3CB DUP3 PUSH2 0x38C JUMP JUMPDEST PUSH1 0x20 DUP3 ADD SWAP1 POP SWAP2 SWAP1 POP JUMP JUMPDEST PUSH0 PUSH1 0x20 DUP3 ADD SWAP1 POP DUP2 DUP2 SUB PUSH0 DUP4 ADD MSTORE PUSH2 0x3ED DUP2 PUSH2 0x3B4 JUMP JUMPDEST SWAP1 POP SWAP2 SWAP1 POP JUMP JUMPDEST PUSH32 0x4E487B7100000000000000000000000000000000000000000000000000000000 PUSH0 MSTORE PUSH1 0x11 PUSH1 0x4 MSTORE PUSH1 0x24 PUSH0 REVERT JUMPDEST PUSH0 PUSH2 0x42B DUP3 PUSH2 0x271 JUMP JUMPDEST SWAP2 POP PUSH2 0x436 DUP4 PUSH2 0x271 JUMP JUMPDEST SWAP3 POP DUP3 DUP3 SUB SWAP1 POP DUP2 DUP2 GT ISZERO PUSH2 0x44E JUMPI PUSH2 0x44D PUSH2 0x3F4 JUMP JUMPDEST JUMPDEST SWAP3 SWAP2 POP POP JUMP JUMPDEST PUSH0 PUSH2 0x45E DUP3 PUSH2 0x271 JUMP JUMPDEST SWAP2 POP PUSH2 0x469 DUP4 PUSH2 0x271 JUMP JUMPDEST SWAP3 POP DUP3 DUP3 ADD SWAP1 POP DUP1 DUP3 GT ISZERO PUSH2 0x481 JUMPI PUSH2 0x480 PUSH2 0x3F4 JUMP JUMPDEST JUMPDEST SWAP3 SWAP2 POP POP JUMP INVALID LOG2 PUSH5 0x6970667358 0x22 SLT KECCAK256 0x1F PUSH1 0x55 PUSH4 0xBC5B0FDC JUMPI LOG4 NUMBER JUMP 0xCA LOG1 0xC6 DUPN 0x51 COINBASE PUSH2 0x3D92 0xBF SHL DUP6 0x2C ORIGIN 0xC0 CODECOPY BASEFEE 0xCC DUP5 0xCF PUSH5 0x736F6C6343 STOP ADDMOD 0x1E STOP CALLER LOG2 PUSH5 0x6970667358 0x22 SLT KECCAK256 0xE LT PUSH14 0xF7F0602266D485C3F11D48D1C5DB 0xC8 0x28 0x21 0xD2 SLOAD 0xB8 0x26 PUSH17 0xA8329683CBD0064736F6C634300081E00 CALLER "
				},
				"gasEstimates": {
					"creation": {
						"codeDepositCost": "813800",
						"executionCost": "849",
						"totalCost": "814649"
					},
					"external": {
						"demonstrateSecurity()": "infinite",
						"demonstrateVulnerability()": "infinite",
						"measureGas()": "infinite"
					}
				},
				"methodIdentifiers": {
					"demonstrateSecurity()": "e66fc5ac",
					"demonstrateVulnerability()": "97382f9e",
					"measureGas()": "c4fe82ab"
				}
			},
			"storageLayout": {
				"storage": [],
				"types": null
			},
			"userdoc": {
				"kind": "user",
				"methods": {},
				"version": 1
			}
		}
	}
}