{
	"challenge-4/chal4.sol": {
		"ContractCall": {
			"abi": [
				{
					"inputs": [
						{
							"internalType": "address",
							"name": "forthCon",
							"type": "address"
						}
					],
					"name": "callContract",
					"outputs": [],
					"stateMutability": "nonpayable",
					"type": "function"
				}
			],
			"devdoc": {
				"kind": "dev",
				"methods": {},
				"version": 1
			},
			"evm": {
				"assembly": "    /* \"challenge-4/chal4.sol\":65:1196  contract ContractCall {... */\n  mstore(0x40, 0x80)\n  callvalue\n  dup1\n  iszero\n  tag_1\n  jumpi\n  revert(0x00, 0x00)\ntag_1:\n  pop\n  dataSize(sub_0)\n  dup1\n  dataOffset(sub_0)\n  0x00\n  codecopy\n  0x00\n  return\nstop\n\nsub_0: assembly {\n        /* \"challenge-4/chal4.sol\":65:1196  contract ContractCall {... */\n      mstore(0x40, 0x80)\n      callvalue\n      dup1\n      iszero\n      tag_1\n      jumpi\n      revert(0x00, 0x00)\n    tag_1:\n      pop\n      jumpi(tag_2, lt(calldatasize, 0x04))\n      shr(0xe0, calldataload(0x00))\n      dup1\n      0x68874f1f\n      eq\n      tag_3\n      jumpi\n    tag_2:\n      revert(0x00, 0x00)\n        /* \"challenge-4/chal4.sol\":93:1194  function callContract(address forthCon) public {... */\n    tag_3:\n      tag_4\n      0x04\n      dup1\n      calldatasize\n      sub\n      dup2\n      add\n      swap1\n      tag_5\n      swap2\n      swap1\n      tag_6\n      jump\t// in\n    tag_5:\n      tag_7\n      jump\t// in\n    tag_4:\n      stop\n    tag_7:\n        /* \"challenge-4/chal4.sol\":453:467  address source */\n      0x00\n        /* \"challenge-4/chal4.sol\":470:512  0x3819C7071f2bc39C83187Bf5B5aeA79Fa3e37C42 */\n      0x3819c7071f2bc39c83187bf5b5aea79fa3e37c42\n        /* \"challenge-4/chal4.sol\":453:512  address source = 0x3819C7071f2bc39C83187Bf5B5aeA79Fa3e37C42 */\n      swap1\n      pop\n        /* \"challenge-4/chal4.sol\":522:538  bytes32 firstCon */\n      0x00\n        /* \"challenge-4/chal4.sol\":541:607  0xed635599d6339bb5ea1c664696bb1443c091e2fe007b484c0ee150bf8bfb9af4 */\n      0xed635599d6339bb5ea1c664696bb1443c091e2fe007b484c0ee150bf8bfb9af4\n        /* \"challenge-4/chal4.sol\":522:607  bytes32 firstCon = 0xed635599d6339bb5ea1c664696bb1443c091e2fe007b484c0ee150bf8bfb9af4 */\n      0x00\n      shl\n      swap1\n      pop\n        /* \"challenge-4/chal4.sol\":617:634  bytes32 secondCon */\n      0x00\n        /* \"challenge-4/chal4.sol\":637:703  0x407296fc4d9194ec6a1ab208a267330913f21a85a25b2508361663bd2d253627 */\n      0x407296fc4d9194ec6a1ab208a267330913f21a85a25b2508361663bd2d253627\n        /* \"challenge-4/chal4.sol\":617:703  bytes32 secondCon = 0x407296fc4d9194ec6a1ab208a267330913f21a85a25b2508361663bd2d253627 */\n      0x00\n      shl\n      swap1\n      pop\n        /* \"challenge-4/chal4.sol\":713:729  address thirdCon */\n      0x00\n        /* \"challenge-4/chal4.sol\":732:774  0x22C4187b3c9dCDB1910bb2653fFBDAD8a410D6A6 */\n      0x22c4187b3c9dcdb1910bb2653ffbdad8a410d6a6\n        /* \"challenge-4/chal4.sol\":713:774  address thirdCon = 0x22C4187b3c9dCDB1910bb2653fFBDAD8a410D6A6 */\n      swap1\n      pop\n        /* \"challenge-4/chal4.sol\":785:792  bool ok */\n      0x00\n        /* \"challenge-4/chal4.sol\":794:813  bytes memory result */\n      0x00\n        /* \"challenge-4/chal4.sol\":817:823  source */\n      dup6\n        /* \"challenge-4/chal4.sol\":817:828  source.call */\n      0xffffffffffffffffffffffffffffffffffffffff\n      and\n        /* \"challenge-4/chal4.sol\":915:923  firstCon */\n      dup6\n        /* \"challenge-4/chal4.sol\":925:934  secondCon */\n      dup6\n        /* \"challenge-4/chal4.sol\":936:944  thirdCon */\n      dup6\n        /* \"challenge-4/chal4.sol\":946:954  forthCon */\n      dup11\n        /* \"challenge-4/chal4.sol\":842:955  abi.encodeWithSignature(\"registerData(bytes32,bytes32,address,address)\", firstCon, secondCon, thirdCon, forthCon) */\n      add(0x24, mload(0x40))\n      tag_9\n      swap5\n      swap4\n      swap3\n      swap2\n      swap1\n      tag_10\n      jump\t// in\n    tag_9:\n      mload(0x40)\n      0x20\n      dup2\n      dup4\n      sub\n      sub\n      dup2\n      mstore\n      swap1\n      0x40\n      mstore\n      and(not(0xffffffffffffffffffffffffffffffffffffffffffffffffffffffff), 0x21f3f81900000000000000000000000000000000000000000000000000000000)\n      0x20\n      dup3\n      add\n      dup1\n      mload\n      0xffffffffffffffffffffffffffffffffffffffffffffffffffffffff\n      dup4\n      dup2\n      dup4\n      and\n      or\n      dup4\n      mstore\n      pop\n      pop\n      pop\n      pop\n        /* \"challenge-4/chal4.sol\":817:965  source.call(... */\n      mload(0x40)\n      tag_11\n      swap2\n      swap1\n      tag_12\n      jump\t// in\n    tag_11:\n      0x00\n      mload(0x40)\n      dup1\n      dup4\n      sub\n      dup2\n      0x00\n      dup7\n      gas\n      call\n      swap2\n      pop\n      pop\n      returndatasize\n      dup1\n      0x00\n      dup2\n      eq\n      tag_15\n      jumpi\n      mload(0x40)\n      swap2\n      pop\n      and(add(returndatasize, 0x3f), not(0x1f))\n      dup3\n      add\n      0x40\n      mstore\n      returndatasize\n      dup3\n      mstore\n      returndatasize\n      0x00\n      0x20\n      dup5\n      add\n      returndatacopy\n      jump(tag_14)\n    tag_15:\n      0x60\n      swap2\n      pop\n    tag_14:\n      pop\n        /* \"challenge-4/chal4.sol\":784:965  (bool ok, bytes memory result) = source.call(... */\n      swap2\n      pop\n      swap2\n      pop\n        /* \"challenge-4/chal4.sol\":981:983  ok */\n      dup2\n        /* \"challenge-4/chal4.sol\":976:1138  if (!ok) {... */\n      tag_16\n      jumpi\n        /* \"challenge-4/chal4.sol\":1106:1112  result */\n      dup1\n        /* \"challenge-4/chal4.sol\":1100:1113  mload(result) */\n      mload\n        /* \"challenge-4/chal4.sol\":1095:1097  32 */\n      0x20\n        /* \"challenge-4/chal4.sol\":1087:1093  result */\n      dup3\n        /* \"challenge-4/chal4.sol\":1083:1098  add(result, 32) */\n      add\n        /* \"challenge-4/chal4.sol\":1076:1114  revert(add(result, 32), mload(result)) */\n      revert\n        /* \"challenge-4/chal4.sol\":976:1138  if (!ok) {... */\n    tag_16:\n        /* \"challenge-4/chal4.sol\":140:1194  {... */\n      pop\n      pop\n      pop\n      pop\n      pop\n      pop\n        /* \"challenge-4/chal4.sol\":93:1194  function callContract(address forthCon) public {... */\n      pop\n      jump\t// out\n        /* \"#utility.yul\":88:205   */\n    tag_18:\n        /* \"#utility.yul\":197:198   */\n      0x00\n        /* \"#utility.yul\":194:195   */\n      0x00\n        /* \"#utility.yul\":187:199   */\n      revert\n        /* \"#utility.yul\":334:460   */\n    tag_20:\n        /* \"#utility.yul\":371:378   */\n      0x00\n        /* \"#utility.yul\":411:453   */\n      0xffffffffffffffffffffffffffffffffffffffff\n        /* \"#utility.yul\":404:409   */\n      dup3\n        /* \"#utility.yul\":400:454   */\n      and\n        /* \"#utility.yul\":389:454   */\n      swap1\n      pop\n        /* \"#utility.yul\":334:460   */\n      swap2\n      swap1\n      pop\n      jump\t// out\n        /* \"#utility.yul\":466:562   */\n    tag_21:\n        /* \"#utility.yul\":503:510   */\n      0x00\n        /* \"#utility.yul\":532:556   */\n      tag_37\n        /* \"#utility.yul\":550:555   */\n      dup3\n        /* \"#utility.yul\":532:556   */\n      tag_20\n      jump\t// in\n    tag_37:\n        /* \"#utility.yul\":521:556   */\n      swap1\n      pop\n        /* \"#utility.yul\":466:562   */\n      swap2\n      swap1\n      pop\n      jump\t// out\n        /* \"#utility.yul\":568:690   */\n    tag_22:\n        /* \"#utility.yul\":641:665   */\n      tag_39\n        /* \"#utility.yul\":659:664   */\n      dup2\n        /* \"#utility.yul\":641:665   */\n      tag_21\n      jump\t// in\n    tag_39:\n        /* \"#utility.yul\":634:639   */\n      dup2\n        /* \"#utility.yul\":631:666   */\n      eq\n        /* \"#utility.yul\":621:684   */\n      tag_40\n      jumpi\n        /* \"#utility.yul\":680:681   */\n      0x00\n        /* \"#utility.yul\":677:678   */\n      0x00\n        /* \"#utility.yul\":670:682   */\n      revert\n        /* \"#utility.yul\":621:684   */\n    tag_40:\n        /* \"#utility.yul\":568:690   */\n      pop\n      jump\t// out\n        /* \"#utility.yul\":696:835   */\n    tag_23:\n        /* \"#utility.yul\":742:747   */\n      0x00\n        /* \"#utility.yul\":780:786   */\n      dup2\n        /* \"#utility.yul\":767:787   */\n      calldataload\n        /* \"#utility.yul\":758:787   */\n      swap1\n      pop\n        /* \"#utility.yul\":796:829   */\n      tag_42\n        /* \"#utility.yul\":823:828   */\n      dup2\n        /* \"#utility.yul\":796:829   */\n      tag_22\n      jump\t// in\n    tag_42:\n        /* \"#utility.yul\":696:835   */\n      swap3\n      swap2\n      pop\n      pop\n      jump\t// out\n        /* \"#utility.yul\":841:1170   */\n    tag_6:\n        /* \"#utility.yul\":900:906   */\n      0x00\n        /* \"#utility.yul\":949:951   */\n      0x20\n        /* \"#utility.yul\":937:946   */\n      dup3\n        /* \"#utility.yul\":928:935   */\n      dup5\n        /* \"#utility.yul\":924:947   */\n      sub\n        /* \"#utility.yul\":920:952   */\n      slt\n        /* \"#utility.yul\":917:1036   */\n      iszero\n      tag_44\n      jumpi\n        /* \"#utility.yul\":955:1034   */\n      tag_45\n      tag_18\n      jump\t// in\n    tag_45:\n        /* \"#utility.yul\":917:1036   */\n    tag_44:\n        /* \"#utility.yul\":1075:1076   */\n      0x00\n        /* \"#utility.yul\":1100:1153   */\n      tag_46\n        /* \"#utility.yul\":1145:1152   */\n      dup5\n        /* \"#utility.yul\":1136:1142   */\n      dup3\n        /* \"#utility.yul\":1125:1134   */\n      dup6\n        /* \"#utility.yul\":1121:1143   */\n      add\n        /* \"#utility.yul\":1100:1153   */\n      tag_23\n      jump\t// in\n    tag_46:\n        /* \"#utility.yul\":1090:1153   */\n      swap2\n      pop\n        /* \"#utility.yul\":1046:1163   */\n      pop\n        /* \"#utility.yul\":841:1170   */\n      swap3\n      swap2\n      pop\n      pop\n      jump\t// out\n        /* \"#utility.yul\":1176:1253   */\n    tag_24:\n        /* \"#utility.yul\":1213:1220   */\n      0x00\n        /* \"#utility.yul\":1242:1247   */\n      dup2\n        /* \"#utility.yul\":1231:1247   */\n      swap1\n      pop\n        /* \"#utility.yul\":1176:1253   */\n      swap2\n      swap1\n      pop\n      jump\t// out\n        /* \"#utility.yul\":1259:1377   */\n    tag_25:\n        /* \"#utility.yul\":1346:1370   */\n      tag_49\n        /* \"#utility.yul\":1364:1369   */\n      dup2\n        /* \"#utility.yul\":1346:1370   */\n      tag_24\n      jump\t// in\n    tag_49:\n        /* \"#utility.yul\":1341:1344   */\n      dup3\n        /* \"#utility.yul\":1334:1371   */\n      mstore\n        /* \"#utility.yul\":1259:1377   */\n      pop\n      pop\n      jump\t// out\n        /* \"#utility.yul\":1383:1501   */\n    tag_26:\n        /* \"#utility.yul\":1470:1494   */\n      tag_51\n        /* \"#utility.yul\":1488:1493   */\n      dup2\n        /* \"#utility.yul\":1470:1494   */\n      tag_21\n      jump\t// in\n    tag_51:\n        /* \"#utility.yul\":1465:1468   */\n      dup3\n        /* \"#utility.yul\":1458:1495   */\n      mstore\n        /* \"#utility.yul\":1383:1501   */\n      pop\n      pop\n      jump\t// out\n        /* \"#utility.yul\":1507:2060   */\n    tag_10:\n        /* \"#utility.yul\":1684:1688   */\n      0x00\n        /* \"#utility.yul\":1722:1725   */\n      0x80\n        /* \"#utility.yul\":1711:1720   */\n      dup3\n        /* \"#utility.yul\":1707:1726   */\n      add\n        /* \"#utility.yul\":1699:1726   */\n      swap1\n      pop\n        /* \"#utility.yul\":1736:1807   */\n      tag_53\n        /* \"#utility.yul\":1804:1805   */\n      0x00\n        /* \"#utility.yul\":1793:1802   */\n      dup4\n        /* \"#utility.yul\":1789:1806   */\n      add\n        /* \"#utility.yul\":1780:1786   */\n      dup8\n        /* \"#utility.yul\":1736:1807   */\n      tag_25\n      jump\t// in\n    tag_53:\n        /* \"#utility.yul\":1817:1889   */\n      tag_54\n        /* \"#utility.yul\":1885:1887   */\n      0x20\n        /* \"#utility.yul\":1874:1883   */\n      dup4\n        /* \"#utility.yul\":1870:1888   */\n      add\n        /* \"#utility.yul\":1861:1867   */\n      dup7\n        /* \"#utility.yul\":1817:1889   */\n      tag_25\n      jump\t// in\n    tag_54:\n        /* \"#utility.yul\":1899:1971   */\n      tag_55\n        /* \"#utility.yul\":1967:1969   */\n      0x40\n        /* \"#utility.yul\":1956:1965   */\n      dup4\n        /* \"#utility.yul\":1952:1970   */\n      add\n        /* \"#utility.yul\":1943:1949   */\n      dup6\n        /* \"#utility.yul\":1899:1971   */\n      tag_26\n      jump\t// in\n    tag_55:\n        /* \"#utility.yul\":1981:2053   */\n      tag_56\n        /* \"#utility.yul\":2049:2051   */\n      0x60\n        /* \"#utility.yul\":2038:2047   */\n      dup4\n        /* \"#utility.yul\":2034:2052   */\n      add\n        /* \"#utility.yul\":2025:2031   */\n      dup5\n        /* \"#utility.yul\":1981:2053   */\n      tag_26\n      jump\t// in\n    tag_56:\n        /* \"#utility.yul\":1507:2060   */\n      swap6\n      swap5\n      pop\n      pop\n      pop\n      pop\n      pop\n      jump\t// out\n        /* \"#utility.yul\":2066:2164   */\n    tag_27:\n        /* \"#utility.yul\":2117:2123   */\n      0x00\n        /* \"#utility.yul\":2151:2156   */\n      dup2\n        /* \"#utility.yul\":2145:2157   */\n      mload\n        /* \"#utility.yul\":2135:2157   */\n      swap1\n      pop\n        /* \"#utility.yul\":2066:2164   */\n      swap2\n      swap1\n      pop\n      jump\t// out\n        /* \"#utility.yul\":2170:2317   */\n    tag_28:\n        /* \"#utility.yul\":2271:2282   */\n      0x00\n        /* \"#utility.yul\":2308:2311   */\n      dup2\n        /* \"#utility.yul\":2293:2311   */\n      swap1\n      pop\n        /* \"#utility.yul\":2170:2317   */\n      swap3\n      swap2\n      pop\n      pop\n      jump\t// out\n        /* \"#utility.yul\":2323:2462   */\n    tag_29:\n        /* \"#utility.yul\":2412:2418   */\n      dup3\n        /* \"#utility.yul\":2407:2410   */\n      dup2\n        /* \"#utility.yul\":2402:2405   */\n      dup4\n        /* \"#utility.yul\":2396:2419   */\n      mcopy\n        /* \"#utility.yul\":2453:2454   */\n      0x00\n        /* \"#utility.yul\":2444:2450   */\n      dup4\n        /* \"#utility.yul\":2439:2442   */\n      dup4\n        /* \"#utility.yul\":2435:2451   */\n      add\n        /* \"#utility.yul\":2428:2455   */\n      mstore\n        /* \"#utility.yul\":2323:2462   */\n      pop\n      pop\n      pop\n      jump\t// out\n        /* \"#utility.yul\":2468:2854   */\n    tag_30:\n        /* \"#utility.yul\":2572:2575   */\n      0x00\n        /* \"#utility.yul\":2600:2638   */\n      tag_61\n        /* \"#utility.yul\":2632:2637   */\n      dup3\n        /* \"#utility.yul\":2600:2638   */\n      tag_27\n      jump\t// in\n    tag_61:\n        /* \"#utility.yul\":2654:2742   */\n      tag_62\n        /* \"#utility.yul\":2735:2741   */\n      dup2\n        /* \"#utility.yul\":2730:2733   */\n      dup6\n        /* \"#utility.yul\":2654:2742   */\n      tag_28\n      jump\t// in\n    tag_62:\n        /* \"#utility.yul\":2647:2742   */\n      swap4\n      pop\n        /* \"#utility.yul\":2751:2816   */\n      tag_63\n        /* \"#utility.yul\":2809:2815   */\n      dup2\n        /* \"#utility.yul\":2804:2807   */\n      dup6\n        /* \"#utility.yul\":2797:2801   */\n      0x20\n        /* \"#utility.yul\":2790:2795   */\n      dup7\n        /* \"#utility.yul\":2786:2802   */\n      add\n        /* \"#utility.yul\":2751:2816   */\n      tag_29\n      jump\t// in\n    tag_63:\n        /* \"#utility.yul\":2841:2847   */\n      dup1\n        /* \"#utility.yul\":2836:2839   */\n      dup5\n        /* \"#utility.yul\":2832:2848   */\n      add\n        /* \"#utility.yul\":2825:2848   */\n      swap2\n      pop\n        /* \"#utility.yul\":2576:2854   */\n      pop\n        /* \"#utility.yul\":2468:2854   */\n      swap3\n      swap2\n      pop\n      pop\n      jump\t// out\n        /* \"#utility.yul\":2860:3131   */\n    tag_12:\n        /* \"#utility.yul\":2990:2993   */\n      0x00\n        /* \"#utility.yul\":3012:3105   */\n      tag_65\n        /* \"#utility.yul\":3101:3104   */\n      dup3\n        /* \"#utility.yul\":3092:3098   */\n      dup5\n        /* \"#utility.yul\":3012:3105   */\n      tag_30\n      jump\t// in\n    tag_65:\n        /* \"#utility.yul\":3005:3105   */\n      swap2\n      pop\n        /* \"#utility.yul\":3122:3125   */\n      dup2\n        /* \"#utility.yul\":3115:3125   */\n      swap1\n      pop\n        /* \"#utility.yul\":2860:3131   */\n      swap3\n      swap2\n      pop\n      pop\n      jump\t// out\n\n    auxdata: 0xa264697066735822122014f57f5479fda8a936e96660a95efcbf2b67eb77071f58e28259107564b32a5b64736f6c634300081e0033\n}\n",
				"bytecode": {
					"linkReferences": {},
					"object": "6080604052348015600e575f5ffd5b506103698061001c5f395ff3fe608060405234801561000f575f5ffd5b5060043610610029575f3560e01c806368874f1f1461002d575b5f5ffd5b61004760048036038101906100429190610236565b610049565b005b5f733819c7071f2bc39c83187bf5b5aea79fa3e37c4290505f7fed635599d6339bb5ea1c664696bb1443c091e2fe007b484c0ee150bf8bfb9af45f1b90505f7f407296fc4d9194ec6a1ab208a267330913f21a85a25b2508361663bd2d2536275f1b90505f7322c4187b3c9dcdb1910bb2653ffbdad8a410d6a690505f5f8573ffffffffffffffffffffffffffffffffffffffff168585858a6040516024016100f59493929190610288565b6040516020818303038152906040527f21f3f819000000000000000000000000000000000000000000000000000000007bffffffffffffffffffffffffffffffffffffffffffffffffffffffff19166020820180517bffffffffffffffffffffffffffffffffffffffffffffffffffffffff838183161783525050505060405161017f919061031d565b5f604051808303815f865af19150503d805f81146101b8576040519150601f19603f3d011682016040523d82523d5f602084013e6101bd565b606091505b5091509150816101cf57805160208201fd5b50505050505050565b5f5ffd5b5f73ffffffffffffffffffffffffffffffffffffffff82169050919050565b5f610205826101dc565b9050919050565b610215816101fb565b811461021f575f5ffd5b50565b5f813590506102308161020c565b92915050565b5f6020828403121561024b5761024a6101d8565b5b5f61025884828501610222565b91505092915050565b5f819050919050565b61027381610261565b82525050565b610282816101fb565b82525050565b5f60808201905061029b5f83018761026a565b6102a8602083018661026a565b6102b56040830185610279565b6102c26060830184610279565b95945050505050565b5f81519050919050565b5f81905092915050565b8281835e5f83830152505050565b5f6102f7826102cb565b61030181856102d5565b93506103118185602086016102df565b80840191505092915050565b5f61032882846102ed565b91508190509291505056fea264697066735822122014f57f5479fda8a936e96660a95efcbf2b67eb77071f58e28259107564b32a5b64736f6c634300081e0033",
					"opcodes": "PUSH1 0x80 PUSH1 0x40 MSTORE CALLVALUE DUP1 ISZERO PUSH1 0xE JUMPI PUSH0 PUSH0 REVERT JUMPDEST POP PUSH2 0x369 DUP1 PUSH2 0x1C PUSH0 CODECOPY PUSH0 RETURN INVALID PUSH1 0x80 PUSH1 0x40 MSTORE CALLVALUE DUP1 ISZERO PUSH2 0xF JUMPI PUSH0 PUSH0 REVERT JUMPDEST POP PUSH1 0x4 CALLDATASIZE LT PUSH2 0x29 JUMPI PUSH0 CALLDATALOAD PUSH1 0xE0 SHR DUP1 PUSH4 0x68874F1F EQ PUSH2 0x2D JUMPI JUMPDEST PUSH0 PUSH0 REVERT JUMPDEST PUSH2 0x47 PUSH1 0x4 DUP1 CALLDATASIZE SUB DUP2 ADD SWAP1 PUSH2 0x42 SWAP2 SWAP1 PUSH2 0x236 JUMP JUMPDEST PUSH2 0x49 JUMP JUMPDEST STOP JUMPDEST PUSH0 PUSH20 0x3819C7071F2BC39C83187BF5B5AEA79FA3E37C42 SWAP1 POP PUSH0 PUSH32 0xED635599D6339BB5EA1C664696BB1443C091E2FE007B484C0EE150BF8BFB9AF4 PUSH0 SHL SWAP1 POP PUSH0 PUSH32 0x407296FC4D9194EC6A1AB208A267330913F21A85A25B2508361663BD2D253627 PUSH0 SHL SWAP1 POP PUSH0 PUSH20 0x22C4187B3C9DCDB1910BB2653FFBDAD8A410D6A6 SWAP1 POP PUSH0 PUSH0 DUP6 PUSH20 0xFFFFFFFFFFFFFFFFFFFFFFFFFFFFFFFFFFFFFFFF AND DUP6 DUP6 DUP6 DUP11 PUSH1 0x40 MLOAD PUSH1 0x24 ADD PUSH2 0xF5 SWAP5 SWAP4 SWAP3 SWAP2 SWAP1 PUSH2 0x288 JUMP JUMPDEST PUSH1 0x40 MLOAD PUSH1 0x20 DUP2 DUP4 SUB SUB DUP2 MSTORE SWAP1 PUSH1 0x40 MSTORE PUSH32 0x21F3F81900000000000000000000000000000000000000000000000000000000 PUSH28 0xFFFFFFFFFFFFFFFFFFFFFFFFFFFFFFFFFFFFFFFFFFFFFFFFFFFFFFFF NOT AND PUSH1 0x20 DUP3 ADD DUP1 MLOAD PUSH28 0xFFFFFFFFFFFFFFFFFFFFFFFFFFFFFFFFFFFFFFFFFFFFFFFFFFFFFFFF DUP4 DUP2 DUP4 AND OR DUP4 MSTORE POP POP POP POP PUSH1 0x40 MLOAD PUSH2 0x17F SWAP2 SWAP1 PUSH2 0x31D JUMP JUMPDEST PUSH0 PUSH1 0x40 MLOAD DUP1 DUP4 SUB DUP2 PUSH0 DUP7 GAS CALL SWAP2 POP POP RETURNDATASIZE DUP1 PUSH0 DUP2 EQ PUSH2 0x1B8 JUMPI PUSH1 0x40 MLOAD SWAP2 POP PUSH1 0x1F NOT PUSH1 0x3F RETURNDATASIZE ADD AND DUP3 ADD PUSH1 0x40 MSTORE RETURNDATASIZE DUP3 MSTORE RETURNDATASIZE PUSH0 PUSH1 0x20 DUP5 ADD RETURNDATACOPY PUSH2 0x1BD JUMP JUMPDEST PUSH1 0x60 SWAP2 POP JUMPDEST POP SWAP2 POP SWAP2 POP DUP2 PUSH2 0x1CF JUMPI DUP1 MLOAD PUSH1 0x20 DUP3 ADD REVERT JUMPDEST POP POP POP POP POP POP POP JUMP JUMPDEST PUSH0 PUSH0 REVERT JUMPDEST PUSH0 PUSH20 0xFFFFFFFFFFFFFFFFFFFFFFFFFFFFFFFFFFFFFFFF DUP3 AND SWAP1 POP SWAP2 SWAP1 POP JUMP JUMPDEST PUSH0 PUSH2 0x205 DUP3 PUSH2 0x1DC JUMP JUMPDEST SWAP1 POP SWAP2 SWAP1 POP JUMP JUMPDEST PUSH2 0x215 DUP2 PUSH2 0x1FB JUMP JUMPDEST DUP2 EQ PUSH2 0x21F JUMPI PUSH0 PUSH0 REVERT JUMPDEST POP JUMP JUMPDEST PUSH0 DUP2 CALLDATALOAD SWAP1 POP PUSH2 0x230 DUP2 PUSH2 0x20C JUMP JUMPDEST SWAP3 SWAP2 POP POP JUMP JUMPDEST PUSH0 PUSH1 0x20 DUP3 DUP5 SUB SLT ISZERO PUSH2 0x24B JUMPI PUSH2 0x24A PUSH2 0x1D8 JUMP JUMPDEST JUMPDEST PUSH0 PUSH2 0x258 DUP5 DUP3 DUP6 ADD PUSH2 0x222 JUMP JUMPDEST SWAP2 POP POP SWAP3 SWAP2 POP POP JUMP JUMPDEST PUSH0 DUP2 SWAP1 POP SWAP2 SWAP1 POP JUMP JUMPDEST PUSH2 0x273 DUP2 PUSH2 0x261 JUMP JUMPDEST DUP3 MSTORE POP POP JUMP JUMPDEST PUSH2 0x282 DUP2 PUSH2 0x1FB JUMP JUMPDEST DUP3 MSTORE POP POP JUMP JUMPDEST PUSH0 PUSH1 0x80 DUP3 ADD SWAP1 POP PUSH2 0x29B PUSH0 DUP4 ADD DUP8 PUSH2 0x26A JUMP JUMPDEST PUSH2 0x2A8 PUSH1 0x20 DUP4 ADD DUP7 PUSH2 0x26A JUMP JUMPDEST PUSH2 0x2B5 PUSH1 0x40 DUP4 ADD DUP6 PUSH2 0x279 JUMP JUMPDEST PUSH2 0x2C2 PUSH1 0x60 DUP4 ADD DUP5 PUSH2 0x279 JUMP JUMPDEST SWAP6 SWAP5 POP POP POP POP POP JUMP JUMPDEST PUSH0 DUP2 MLOAD SWAP1 POP SWAP2 SWAP1 POP JUMP JUMPDEST PUSH0 DUP2 SWAP1 POP SWAP3 SWAP2 POP POP JUMP JUMPDEST DUP3 DUP2 DUP4 MCOPY PUSH0 DUP4 DUP4 ADD MSTORE POP POP POP JUMP JUMPDEST PUSH0 PUSH2 0x2F7 DUP3 PUSH2 0x2CB JUMP JUMPDEST PUSH2 0x301 DUP2 DUP6 PUSH2 0x2D5 JUMP JUMPDEST SWAP4 POP PUSH2 0x311 DUP2 DUP6 PUSH1 0x20 DUP7 ADD PUSH2 0x2DF JUMP JUMPDEST DUP1 DUP5 ADD SWAP2 POP POP SWAP3 SWAP2 POP POP JUMP JUMPDEST PUSH0 PUSH2 0x328 DUP3 DUP5 PUSH2 0x2ED JUMP JUMPDEST SWAP2 POP DUP2 SWAP1 POP SWAP3 SWAP2 POP POP JUMP INVALID LOG2 PUSH5 0x6970667358 0x22 SLT KECCAK256 EQ CREATE2 PUSH32 0x5479FDA8A936E96660A95EFCBF2B67EB77071F58E28259107564B32A5B64736F PUSH13 0x634300081E0033000000000000 "
				},
				"gasEstimates": {
					"creation": {
						"codeDepositCost": "174600",
						"executionCost": "218",
						"totalCost": "174818"
					},
					"external": {
						"callContract(address)": "infinite"
					}
				},
				"methodIdentifiers": {
					"callContract(address)": "68874f1f"
				}
			},
			"storageLayout": {
				"storage": [],
				"types": null
			},
			"userdoc": {
				"kind": "user",
				"methods": {},
				"version": 1
			}
		}
	}
}