{
	"Contact.sol": {
		"Caller": {
			"abi": [
				{
					"inputs": [],
					"name": "callSelector42",
					"outputs": [
						{
							"internalType": "bool",
							"name": "success",
							"type": "bool"
						},
						{
							"internalType": "bytes",
							"name": "data",
							"type": "bytes"
						}
					],
					"stateMutability": "nonpayable",
					"type": "function"
				},
				{
					"inputs": [
						{
							"internalType": "bytes",
							"name": "params",
							"type": "bytes"
						}
					],
					"name": "callSelectorWithParams",
					"outputs": [
						{
							"internalType": "bool",
							"name": "success",
							"type": "bool"
						},
						{
							"internalType": "bytes",
							"name": "data",
							"type": "bytes"
						}
					],
					"stateMutability": "nonpayable",
					"type": "function"
				},
				{
					"inputs": [],
					"name": "targetContract",
					"outputs": [
						{
							"internalType": "address",
							"name": "",
							"type": "address"
						}
					],
					"stateMutability": "view",
					"type": "function"
				}
			],
			"devdoc": {
				"kind": "dev",
				"methods": {},
				"version": 1
			},
			"evm": {
				"assembly": "    /* \"Contact.sol\":70:568  contract Caller {... */\n  mstore(0x40, 0x80)\n    /* \"Contact.sol\":120:162  0xe621aBEa69C75dA07C3850eeA3965DE0599d4B3D */\n  0xe621abea69c75da07c3850eea3965de0599d4b3d\n    /* \"Contact.sol\":88:162  address public targetContract = 0xe621aBEa69C75dA07C3850eeA3965DE0599d4B3D */\n  0x00\n  exp(0x0100, 0x00)\n  dup2\n  sload\n  dup2\n  0xffffffffffffffffffffffffffffffffffffffff\n  mul\n  not\n  and\n  swap1\n  dup4\n  0xffffffffffffffffffffffffffffffffffffffff\n  and\n  mul\n  or\n  swap1\n  sstore\n  pop\n    /* \"Contact.sol\":70:568  contract Caller {... */\n  callvalue\n  dup1\n  iszero\n  tag_1\n  jumpi\n  revert(0x00, 0x00)\ntag_1:\n  pop\n  dataSize(sub_0)\n  dup1\n  dataOffset(sub_0)\n  0x00\n  codecopy\n  0x00\n  return\nstop\n\nsub_0: assembly {\n        /* \"Contact.sol\":70:568  contract Caller {... */\n      mstore(0x40, 0x80)\n      callvalue\n      dup1\n      iszero\n      tag_1\n      jumpi\n      revert(0x00, 0x00)\n    tag_1:\n      pop\n      jumpi(tag_2, lt(calldatasize, 0x04))\n      shr(0xe0, calldataload(0x00))\n      dup1\n      0x340e2174\n      eq\n      tag_3\n      jumpi\n      dup1\n      0xb773a368\n      eq\n      tag_4\n      jumpi\n      dup1\n      0xbd90df70\n      eq\n      tag_5\n      jumpi\n    tag_2:\n      revert(0x00, 0x00)\n        /* \"Contact.sol\":173:317  function callSelector42() public returns (bool success, bytes memory data) {... */\n    tag_3:\n      tag_6\n      tag_7\n      jump\t// in\n    tag_6:\n      mload(0x40)\n      tag_8\n      swap3\n      swap2\n      swap1\n      tag_9\n      jump\t// in\n    tag_8:\n      mload(0x40)\n      dup1\n      swap2\n      sub\n      swap1\n      return\n        /* \"Contact.sol\":327:566  function callSelectorWithParams(bytes memory params) public returns (bool success, bytes memory data) {... */\n    tag_4:\n      tag_10\n      0x04\n      dup1\n      calldatasize\n      sub\n      dup2\n      add\n      swap1\n      tag_11\n      swap2\n      swap1\n      tag_12\n      jump\t// in\n    tag_11:\n      tag_13\n      jump\t// in\n    tag_10:\n      mload(0x40)\n      tag_14\n      swap3\n      swap2\n      swap1\n      tag_9\n      jump\t// in\n    tag_14:\n      mload(0x40)\n      dup1\n      swap2\n      sub\n      swap1\n      return\n        /* \"Contact.sol\":88:162  address public targetContract = 0xe621aBEa69C75dA07C3850eeA3965DE0599d4B3D */\n    tag_5:\n      tag_15\n      tag_16\n      jump\t// in\n    tag_15:\n      mload(0x40)\n      tag_17\n      swap2\n      swap1\n      tag_18\n      jump\t// in\n    tag_17:\n      mload(0x40)\n      dup1\n      swap2\n      sub\n      swap1\n      return\n        /* \"Contact.sol\":173:317  function callSelector42() public returns (bool success, bytes memory data) {... */\n    tag_7:\n        /* \"Contact.sol\":215:227  bool success */\n      0x00\n        /* \"Contact.sol\":229:246  bytes memory data */\n      0x60\n        /* \"Contact.sol\":276:290  targetContract */\n      0x00\n      0x00\n      swap1\n      sload\n      swap1\n      0x0100\n      exp\n      swap1\n      div\n      0xffffffffffffffffffffffffffffffffffffffff\n      and\n        /* \"Contact.sol\":276:295  targetContract.call */\n      0xffffffffffffffffffffffffffffffffffffffff\n      and\n        /* \"Contact.sol\":276:310  targetContract.call(hex\"42424242\") */\n      mload(0x40)\n      tag_20\n      swap1\n      tag_21\n      jump\t// in\n    tag_20:\n      0x00\n      mload(0x40)\n      dup1\n      dup4\n      sub\n      dup2\n      0x00\n      dup7\n      gas\n      call\n      swap2\n      pop\n      pop\n      returndatasize\n      dup1\n      0x00\n      dup2\n      eq\n      tag_24\n      jumpi\n      mload(0x40)\n      swap2\n      pop\n      and(add(returndatasize, 0x3f), not(0x1f))\n      dup3\n      add\n      0x40\n      mstore\n      returndatasize\n      dup3\n      mstore\n      returndatasize\n      0x00\n      0x20\n      dup5\n      add\n      returndatacopy\n      jump(tag_23)\n    tag_24:\n      0x60\n      swap2\n      pop\n    tag_23:\n      pop\n        /* \"Contact.sol\":258:310  (success, data) = targetContract.call(hex\"42424242\") */\n      dup1\n      swap3\n      pop\n      dup2\n      swap4\n      pop\n      pop\n      pop\n        /* \"Contact.sol\":173:317  function callSelector42() public returns (bool success, bytes memory data) {... */\n      swap1\n      swap2\n      jump\t// out\n        /* \"Contact.sol\":327:566  function callSelectorWithParams(bytes memory params) public returns (bool success, bytes memory data) {... */\n    tag_13:\n        /* \"Contact.sol\":396:408  bool success */\n      0x00\n        /* \"Contact.sol\":410:427  bytes memory data */\n      0x60\n        /* \"Contact.sol\":439:460  bytes memory callData */\n      0x00\n        /* \"Contact.sol\":495:501  params */\n      dup4\n        /* \"Contact.sol\":463:502  abi.encodePacked(hex\"42424242\", params) */\n      add(0x20, mload(0x40))\n      tag_26\n      swap2\n      swap1\n      tag_27\n      jump\t// in\n    tag_26:\n      mload(0x40)\n      0x20\n      dup2\n      dup4\n      sub\n      sub\n      dup2\n      mstore\n      swap1\n      0x40\n      mstore\n        /* \"Contact.sol\":439:502  bytes memory callData = abi.encodePacked(hex\"42424242\", params) */\n      swap1\n      pop\n        /* \"Contact.sol\":530:544  targetContract */\n      0x00\n      0x00\n      swap1\n      sload\n      swap1\n      0x0100\n      exp\n      swap1\n      div\n      0xffffffffffffffffffffffffffffffffffffffff\n      and\n        /* \"Contact.sol\":530:549  targetContract.call */\n      0xffffffffffffffffffffffffffffffffffffffff\n      and\n        /* \"Contact.sol\":550:558  callData */\n      dup2\n        /* \"Contact.sol\":530:559  targetContract.call(callData) */\n      mload(0x40)\n      tag_28\n      swap2\n      swap1\n      tag_29\n      jump\t// in\n    tag_28:\n      0x00\n      mload(0x40)\n      dup1\n      dup4\n      sub\n      dup2\n      0x00\n      dup7\n      gas\n      call\n      swap2\n      pop\n      pop\n      returndatasize\n      dup1\n      0x00\n      dup2\n      eq\n      tag_32\n      jumpi\n      mload(0x40)\n      swap2\n      pop\n      and(add(returndatasize, 0x3f), not(0x1f))\n      dup3\n      add\n      0x40\n      mstore\n      returndatasize\n      dup3\n      mstore\n      returndatasize\n      0x00\n      0x20\n      dup5\n      add\n      returndatacopy\n      jump(tag_31)\n    tag_32:\n      0x60\n      swap2\n      pop\n    tag_31:\n      pop\n        /* \"Contact.sol\":512:559  (success, data) = targetContract.call(callData) */\n      dup1\n      swap4\n      pop\n      dup2\n      swap5\n      pop\n      pop\n      pop\n        /* \"Contact.sol\":429:566  {... */\n      pop\n        /* \"Contact.sol\":327:566  function callSelectorWithParams(bytes memory params) public returns (bool success, bytes memory data) {... */\n      swap2\n      pop\n      swap2\n      jump\t// out\n        /* \"Contact.sol\":88:162  address public targetContract = 0xe621aBEa69C75dA07C3850eeA3965DE0599d4B3D */\n    tag_16:\n      0x00\n      0x00\n      swap1\n      sload\n      swap1\n      0x0100\n      exp\n      swap1\n      div\n      0xffffffffffffffffffffffffffffffffffffffff\n      and\n      dup2\n      jump\t// out\n        /* \"#utility.yul\":7:97   */\n    tag_33:\n        /* \"#utility.yul\":41:48   */\n      0x00\n        /* \"#utility.yul\":84:89   */\n      dup2\n        /* \"#utility.yul\":77:90   */\n      iszero\n        /* \"#utility.yul\":70:91   */\n      iszero\n        /* \"#utility.yul\":59:91   */\n      swap1\n      pop\n        /* \"#utility.yul\":7:97   */\n      swap2\n      swap1\n      pop\n      jump\t// out\n        /* \"#utility.yul\":103:212   */\n    tag_34:\n        /* \"#utility.yul\":184:205   */\n      tag_64\n        /* \"#utility.yul\":199:204   */\n      dup2\n        /* \"#utility.yul\":184:205   */\n      tag_33\n      jump\t// in\n    tag_64:\n        /* \"#utility.yul\":179:182   */\n      dup3\n        /* \"#utility.yul\":172:206   */\n      mstore\n        /* \"#utility.yul\":103:212   */\n      pop\n      pop\n      jump\t// out\n        /* \"#utility.yul\":218:316   */\n    tag_35:\n        /* \"#utility.yul\":269:275   */\n      0x00\n        /* \"#utility.yul\":303:308   */\n      dup2\n        /* \"#utility.yul\":297:309   */\n      mload\n        /* \"#utility.yul\":287:309   */\n      swap1\n      pop\n        /* \"#utility.yul\":218:316   */\n      swap2\n      swap1\n      pop\n      jump\t// out\n        /* \"#utility.yul\":322:490   */\n    tag_36:\n        /* \"#utility.yul\":405:416   */\n      0x00\n        /* \"#utility.yul\":439:445   */\n      dup3\n        /* \"#utility.yul\":434:437   */\n      dup3\n        /* \"#utility.yul\":427:446   */\n      mstore\n        /* \"#utility.yul\":479:483   */\n      0x20\n        /* \"#utility.yul\":474:477   */\n      dup3\n        /* \"#utility.yul\":470:484   */\n      add\n        /* \"#utility.yul\":455:484   */\n      swap1\n      pop\n        /* \"#utility.yul\":322:490   */\n      swap3\n      swap2\n      pop\n      pop\n      jump\t// out\n        /* \"#utility.yul\":496:635   */\n    tag_37:\n        /* \"#utility.yul\":585:591   */\n      dup3\n        /* \"#utility.yul\":580:583   */\n      dup2\n        /* \"#utility.yul\":575:578   */\n      dup4\n        /* \"#utility.yul\":569:592   */\n      mcopy\n        /* \"#utility.yul\":626:627   */\n      0x00\n        /* \"#utility.yul\":617:623   */\n      dup4\n        /* \"#utility.yul\":612:615   */\n      dup4\n        /* \"#utility.yul\":608:624   */\n      add\n        /* \"#utility.yul\":601:628   */\n      mstore\n        /* \"#utility.yul\":496:635   */\n      pop\n      pop\n      pop\n      jump\t// out\n        /* \"#utility.yul\":641:743   */\n    tag_38:\n        /* \"#utility.yul\":682:688   */\n      0x00\n        /* \"#utility.yul\":733:735   */\n      0x1f\n        /* \"#utility.yul\":729:736   */\n      not\n        /* \"#utility.yul\":724:726   */\n      0x1f\n        /* \"#utility.yul\":717:722   */\n      dup4\n        /* \"#utility.yul\":713:727   */\n      add\n        /* \"#utility.yul\":709:737   */\n      and\n        /* \"#utility.yul\":699:737   */\n      swap1\n      pop\n        /* \"#utility.yul\":641:743   */\n      swap2\n      swap1\n      pop\n      jump\t// out\n        /* \"#utility.yul\":749:1122   */\n    tag_39:\n        /* \"#utility.yul\":835:838   */\n      0x00\n        /* \"#utility.yul\":863:901   */\n      tag_70\n        /* \"#utility.yul\":895:900   */\n      dup3\n        /* \"#utility.yul\":863:901   */\n      tag_35\n      jump\t// in\n    tag_70:\n        /* \"#utility.yul\":917:987   */\n      tag_71\n        /* \"#utility.yul\":980:986   */\n      dup2\n        /* \"#utility.yul\":975:978   */\n      dup6\n        /* \"#utility.yul\":917:987   */\n      tag_36\n      jump\t// in\n    tag_71:\n        /* \"#utility.yul\":910:987   */\n      swap4\n      pop\n        /* \"#utility.yul\":996:1061   */\n      tag_72\n        /* \"#utility.yul\":1054:1060   */\n      dup2\n        /* \"#utility.yul\":1049:1052   */\n      dup6\n        /* \"#utility.yul\":1042:1046   */\n      0x20\n        /* \"#utility.yul\":1035:1040   */\n      dup7\n        /* \"#utility.yul\":1031:1047   */\n      add\n        /* \"#utility.yul\":996:1061   */\n      tag_37\n      jump\t// in\n    tag_72:\n        /* \"#utility.yul\":1086:1115   */\n      tag_73\n        /* \"#utility.yul\":1108:1114   */\n      dup2\n        /* \"#utility.yul\":1086:1115   */\n      tag_38\n      jump\t// in\n    tag_73:\n        /* \"#utility.yul\":1081:1084   */\n      dup5\n        /* \"#utility.yul\":1077:1116   */\n      add\n        /* \"#utility.yul\":1070:1116   */\n      swap2\n      pop\n        /* \"#utility.yul\":839:1122   */\n      pop\n        /* \"#utility.yul\":749:1122   */\n      swap3\n      swap2\n      pop\n      pop\n      jump\t// out\n        /* \"#utility.yul\":1128:1535   */\n    tag_9:\n        /* \"#utility.yul\":1261:1265   */\n      0x00\n        /* \"#utility.yul\":1299:1301   */\n      0x40\n        /* \"#utility.yul\":1288:1297   */\n      dup3\n        /* \"#utility.yul\":1284:1302   */\n      add\n        /* \"#utility.yul\":1276:1302   */\n      swap1\n      pop\n        /* \"#utility.yul\":1312:1377   */\n      tag_75\n        /* \"#utility.yul\":1374:1375   */\n      0x00\n        /* \"#utility.yul\":1363:1372   */\n      dup4\n        /* \"#utility.yul\":1359:1376   */\n      add\n        /* \"#utility.yul\":1350:1356   */\n      dup6\n        /* \"#utility.yul\":1312:1377   */\n      tag_34\n      jump\t// in\n    tag_75:\n        /* \"#utility.yul\":1424:1433   */\n      dup2\n        /* \"#utility.yul\":1418:1422   */\n      dup2\n        /* \"#utility.yul\":1414:1434   */\n      sub\n        /* \"#utility.yul\":1409:1411   */\n      0x20\n        /* \"#utility.yul\":1398:1407   */\n      dup4\n        /* \"#utility.yul\":1394:1412   */\n      add\n        /* \"#utility.yul\":1387:1435   */\n      mstore\n        /* \"#utility.yul\":1452:1528   */\n      tag_76\n        /* \"#utility.yul\":1523:1527   */\n      dup2\n        /* \"#utility.yul\":1514:1520   */\n      dup5\n        /* \"#utility.yul\":1452:1528   */\n      tag_39\n      jump\t// in\n    tag_76:\n        /* \"#utility.yul\":1444:1528   */\n      swap1\n      pop\n        /* \"#utility.yul\":1128:1535   */\n      swap4\n      swap3\n      pop\n      pop\n      pop\n      jump\t// out\n        /* \"#utility.yul\":1541:1616   */\n    tag_40:\n        /* \"#utility.yul\":1574:1580   */\n      0x00\n        /* \"#utility.yul\":1607:1609   */\n      0x40\n        /* \"#utility.yul\":1601:1610   */\n      mload\n        /* \"#utility.yul\":1591:1610   */\n      swap1\n      pop\n        /* \"#utility.yul\":1541:1616   */\n      swap1\n      jump\t// out\n        /* \"#utility.yul\":1622:1739   */\n    tag_41:\n        /* \"#utility.yul\":1731:1732   */\n      0x00\n        /* \"#utility.yul\":1728:1729   */\n      0x00\n        /* \"#utility.yul\":1721:1733   */\n      revert\n        /* \"#utility.yul\":1745:1862   */\n    tag_42:\n        /* \"#utility.yul\":1854:1855   */\n      0x00\n        /* \"#utility.yul\":1851:1852   */\n      0x00\n        /* \"#utility.yul\":1844:1856   */\n      revert\n        /* \"#utility.yul\":1868:1985   */\n    tag_43:\n        /* \"#utility.yul\":1977:1978   */\n      0x00\n        /* \"#utility.yul\":1974:1975   */\n      0x00\n        /* \"#utility.yul\":1967:1979   */\n      revert\n        /* \"#utility.yul\":1991:2108   */\n    tag_44:\n        /* \"#utility.yul\":2100:2101   */\n      0x00\n        /* \"#utility.yul\":2097:2098   */\n      0x00\n        /* \"#utility.yul\":2090:2102   */\n      revert\n        /* \"#utility.yul\":2114:2294   */\n    tag_45:\n        /* \"#utility.yul\":2162:2239   */\n      0x4e487b7100000000000000000000000000000000000000000000000000000000\n        /* \"#utility.yul\":2159:2160   */\n      0x00\n        /* \"#utility.yul\":2152:2240   */\n      mstore\n        /* \"#utility.yul\":2259:2263   */\n      0x41\n        /* \"#utility.yul\":2256:2257   */\n      0x04\n        /* \"#utility.yul\":2249:2264   */\n      mstore\n        /* \"#utility.yul\":2283:2287   */\n      0x24\n        /* \"#utility.yul\":2280:2281   */\n      0x00\n        /* \"#utility.yul\":2273:2288   */\n      revert\n        /* \"#utility.yul\":2300:2581   */\n    tag_46:\n        /* \"#utility.yul\":2383:2410   */\n      tag_84\n        /* \"#utility.yul\":2405:2409   */\n      dup3\n        /* \"#utility.yul\":2383:2410   */\n      tag_38\n      jump\t// in\n    tag_84:\n        /* \"#utility.yul\":2375:2381   */\n      dup2\n        /* \"#utility.yul\":2371:2411   */\n      add\n        /* \"#utility.yul\":2513:2519   */\n      dup2\n        /* \"#utility.yul\":2501:2511   */\n      dup2\n        /* \"#utility.yul\":2498:2520   */\n      lt\n        /* \"#utility.yul\":2477:2495   */\n      0xffffffffffffffff\n        /* \"#utility.yul\":2465:2475   */\n      dup3\n        /* \"#utility.yul\":2462:2496   */\n      gt\n        /* \"#utility.yul\":2459:2521   */\n      or\n        /* \"#utility.yul\":2456:2544   */\n      iszero\n      tag_85\n      jumpi\n        /* \"#utility.yul\":2524:2542   */\n      tag_86\n      tag_45\n      jump\t// in\n    tag_86:\n        /* \"#utility.yul\":2456:2544   */\n    tag_85:\n        /* \"#utility.yul\":2564:2574   */\n      dup1\n        /* \"#utility.yul\":2560:2562   */\n      0x40\n        /* \"#utility.yul\":2553:2575   */\n      mstore\n        /* \"#utility.yul\":2343:2581   */\n      pop\n        /* \"#utility.yul\":2300:2581   */\n      pop\n      pop\n      jump\t// out\n        /* \"#utility.yul\":2587:2716   */\n    tag_47:\n        /* \"#utility.yul\":2621:2627   */\n      0x00\n        /* \"#utility.yul\":2648:2668   */\n      tag_88\n      tag_40\n      jump\t// in\n    tag_88:\n        /* \"#utility.yul\":2638:2668   */\n      swap1\n      pop\n        /* \"#utility.yul\":2677:2710   */\n      tag_89\n        /* \"#utility.yul\":2705:2709   */\n      dup3\n        /* \"#utility.yul\":2697:2703   */\n      dup3\n        /* \"#utility.yul\":2677:2710   */\n      tag_46\n      jump\t// in\n    tag_89:\n        /* \"#utility.yul\":2587:2716   */\n      swap2\n      swap1\n      pop\n      jump\t// out\n        /* \"#utility.yul\":2722:3029   */\n    tag_48:\n        /* \"#utility.yul\":2783:2787   */\n      0x00\n        /* \"#utility.yul\":2873:2891   */\n      0xffffffffffffffff\n        /* \"#utility.yul\":2865:2871   */\n      dup3\n        /* \"#utility.yul\":2862:2892   */\n      gt\n        /* \"#utility.yul\":2859:2915   */\n      iszero\n      tag_91\n      jumpi\n        /* \"#utility.yul\":2895:2913   */\n      tag_92\n      tag_45\n      jump\t// in\n    tag_92:\n        /* \"#utility.yul\":2859:2915   */\n    tag_91:\n        /* \"#utility.yul\":2933:2962   */\n      tag_93\n        /* \"#utility.yul\":2955:2961   */\n      dup3\n        /* \"#utility.yul\":2933:2962   */\n      tag_38\n      jump\t// in\n    tag_93:\n        /* \"#utility.yul\":2925:2962   */\n      swap1\n      pop\n        /* \"#utility.yul\":3017:3021   */\n      0x20\n        /* \"#utility.yul\":3011:3015   */\n      dup2\n        /* \"#utility.yul\":3007:3022   */\n      add\n        /* \"#utility.yul\":2999:3022   */\n      swap1\n      pop\n        /* \"#utility.yul\":2722:3029   */\n      swap2\n      swap1\n      pop\n      jump\t// out\n        /* \"#utility.yul\":3035:3183   */\n    tag_49:\n        /* \"#utility.yul\":3133:3139   */\n      dup3\n        /* \"#utility.yul\":3128:3131   */\n      dup2\n        /* \"#utility.yul\":3123:3126   */\n      dup4\n        /* \"#utility.yul\":3110:3140   */\n      calldatacopy\n        /* \"#utility.yul\":3174:3175   */\n      0x00\n        /* \"#utility.yul\":3165:3171   */\n      dup4\n        /* \"#utility.yul\":3160:3163   */\n      dup4\n        /* \"#utility.yul\":3156:3172   */\n      add\n        /* \"#utility.yul\":3149:3176   */\n      mstore\n        /* \"#utility.yul\":3035:3183   */\n      pop\n      pop\n      pop\n      jump\t// out\n        /* \"#utility.yul\":3189:3612   */\n    tag_50:\n        /* \"#utility.yul\":3266:3271   */\n      0x00\n        /* \"#utility.yul\":3291:3356   */\n      tag_96\n        /* \"#utility.yul\":3307:3355   */\n      tag_97\n        /* \"#utility.yul\":3348:3354   */\n      dup5\n        /* \"#utility.yul\":3307:3355   */\n      tag_48\n      jump\t// in\n    tag_97:\n        /* \"#utility.yul\":3291:3356   */\n      tag_47\n      jump\t// in\n    tag_96:\n        /* \"#utility.yul\":3282:3356   */\n      swap1\n      pop\n        /* \"#utility.yul\":3379:3385   */\n      dup3\n        /* \"#utility.yul\":3372:3377   */\n      dup2\n        /* \"#utility.yul\":3365:3386   */\n      mstore\n        /* \"#utility.yul\":3417:3421   */\n      0x20\n        /* \"#utility.yul\":3410:3415   */\n      dup2\n        /* \"#utility.yul\":3406:3422   */\n      add\n        /* \"#utility.yul\":3455:3458   */\n      dup5\n        /* \"#utility.yul\":3446:3452   */\n      dup5\n        /* \"#utility.yul\":3441:3444   */\n      dup5\n        /* \"#utility.yul\":3437:3453   */\n      add\n        /* \"#utility.yul\":3434:3459   */\n      gt\n        /* \"#utility.yul\":3431:3543   */\n      iszero\n      tag_98\n      jumpi\n        /* \"#utility.yul\":3462:3541   */\n      tag_99\n      tag_44\n      jump\t// in\n    tag_99:\n        /* \"#utility.yul\":3431:3543   */\n    tag_98:\n        /* \"#utility.yul\":3552:3606   */\n      tag_100\n        /* \"#utility.yul\":3599:3605   */\n      dup5\n        /* \"#utility.yul\":3594:3597   */\n      dup3\n        /* \"#utility.yul\":3589:3592   */\n      dup6\n        /* \"#utility.yul\":3552:3606   */\n      tag_49\n      jump\t// in\n    tag_100:\n        /* \"#utility.yul\":3272:3612   */\n      pop\n        /* \"#utility.yul\":3189:3612   */\n      swap4\n      swap3\n      pop\n      pop\n      pop\n      jump\t// out\n        /* \"#utility.yul\":3631:3969   */\n    tag_51:\n        /* \"#utility.yul\":3686:3691   */\n      0x00\n        /* \"#utility.yul\":3735:3738   */\n      dup3\n        /* \"#utility.yul\":3728:3732   */\n      0x1f\n        /* \"#utility.yul\":3720:3726   */\n      dup4\n        /* \"#utility.yul\":3716:3733   */\n      add\n        /* \"#utility.yul\":3712:3739   */\n      slt\n        /* \"#utility.yul\":3702:3824   */\n      tag_102\n      jumpi\n        /* \"#utility.yul\":3743:3822   */\n      tag_103\n      tag_43\n      jump\t// in\n    tag_103:\n        /* \"#utility.yul\":3702:3824   */\n    tag_102:\n        /* \"#utility.yul\":3860:3866   */\n      dup2\n        /* \"#utility.yul\":3847:3867   */\n      calldataload\n        /* \"#utility.yul\":3885:3963   */\n      tag_104\n        /* \"#utility.yul\":3959:3962   */\n      dup5\n        /* \"#utility.yul\":3951:3957   */\n      dup3\n        /* \"#utility.yul\":3944:3948   */\n      0x20\n        /* \"#utility.yul\":3936:3942   */\n      dup7\n        /* \"#utility.yul\":3932:3949   */\n      add\n        /* \"#utility.yul\":3885:3963   */\n      tag_50\n      jump\t// in\n    tag_104:\n        /* \"#utility.yul\":3876:3963   */\n      swap2\n      pop\n        /* \"#utility.yul\":3692:3969   */\n      pop\n        /* \"#utility.yul\":3631:3969   */\n      swap3\n      swap2\n      pop\n      pop\n      jump\t// out\n        /* \"#utility.yul\":3975:4482   */\n    tag_12:\n        /* \"#utility.yul\":4043:4049   */\n      0x00\n        /* \"#utility.yul\":4092:4094   */\n      0x20\n        /* \"#utility.yul\":4080:4089   */\n      dup3\n        /* \"#utility.yul\":4071:4078   */\n      dup5\n        /* \"#utility.yul\":4067:4090   */\n      sub\n        /* \"#utility.yul\":4063:4095   */\n      slt\n        /* \"#utility.yul\":4060:4179   */\n      iszero\n      tag_106\n      jumpi\n        /* \"#utility.yul\":4098:4177   */\n      tag_107\n      tag_41\n      jump\t// in\n    tag_107:\n        /* \"#utility.yul\":4060:4179   */\n    tag_106:\n        /* \"#utility.yul\":4246:4247   */\n      0x00\n        /* \"#utility.yul\":4235:4244   */\n      dup3\n        /* \"#utility.yul\":4231:4248   */\n      add\n        /* \"#utility.yul\":4218:4249   */\n      calldataload\n        /* \"#utility.yul\":4276:4294   */\n      0xffffffffffffffff\n        /* \"#utility.yul\":4268:4274   */\n      dup2\n        /* \"#utility.yul\":4265:4295   */\n      gt\n        /* \"#utility.yul\":4262:4379   */\n      iszero\n      tag_108\n      jumpi\n        /* \"#utility.yul\":4298:4377   */\n      tag_109\n      tag_42\n      jump\t// in\n    tag_109:\n        /* \"#utility.yul\":4262:4379   */\n    tag_108:\n        /* \"#utility.yul\":4403:4465   */\n      tag_110\n        /* \"#utility.yul\":4457:4464   */\n      dup5\n        /* \"#utility.yul\":4448:4454   */\n      dup3\n        /* \"#utility.yul\":4437:4446   */\n      dup6\n        /* \"#utility.yul\":4433:4455   */\n      add\n        /* \"#utility.yul\":4403:4465   */\n      tag_51\n      jump\t// in\n    tag_110:\n        /* \"#utility.yul\":4393:4465   */\n      swap2\n      pop\n        /* \"#utility.yul\":4189:4475   */\n      pop\n        /* \"#utility.yul\":3975:4482   */\n      swap3\n      swap2\n      pop\n      pop\n      jump\t// out\n        /* \"#utility.yul\":4488:4614   */\n    tag_52:\n        /* \"#utility.yul\":4525:4532   */\n      0x00\n        /* \"#utility.yul\":4565:4607   */\n      0xffffffffffffffffffffffffffffffffffffffff\n        /* \"#utility.yul\":4558:4563   */\n      dup3\n        /* \"#utility.yul\":4554:4608   */\n      and\n        /* \"#utility.yul\":4543:4608   */\n      swap1\n      pop\n        /* \"#utility.yul\":4488:4614   */\n      swap2\n      swap1\n      pop\n      jump\t// out\n        /* \"#utility.yul\":4620:4716   */\n    tag_53:\n        /* \"#utility.yul\":4657:4664   */\n      0x00\n        /* \"#utility.yul\":4686:4710   */\n      tag_113\n        /* \"#utility.yul\":4704:4709   */\n      dup3\n        /* \"#utility.yul\":4686:4710   */\n      tag_52\n      jump\t// in\n    tag_113:\n        /* \"#utility.yul\":4675:4710   */\n      swap1\n      pop\n        /* \"#utility.yul\":4620:4716   */\n      swap2\n      swap1\n      pop\n      jump\t// out\n        /* \"#utility.yul\":4722:4840   */\n    tag_54:\n        /* \"#utility.yul\":4809:4833   */\n      tag_115\n        /* \"#utility.yul\":4827:4832   */\n      dup2\n        /* \"#utility.yul\":4809:4833   */\n      tag_53\n      jump\t// in\n    tag_115:\n        /* \"#utility.yul\":4804:4807   */\n      dup3\n        /* \"#utility.yul\":4797:4834   */\n      mstore\n        /* \"#utility.yul\":4722:4840   */\n      pop\n      pop\n      jump\t// out\n        /* \"#utility.yul\":4846:5068   */\n    tag_18:\n        /* \"#utility.yul\":4939:4943   */\n      0x00\n        /* \"#utility.yul\":4977:4979   */\n      0x20\n        /* \"#utility.yul\":4966:4975   */\n      dup3\n        /* \"#utility.yul\":4962:4980   */\n      add\n        /* \"#utility.yul\":4954:4980   */\n      swap1\n      pop\n        /* \"#utility.yul\":4990:5061   */\n      tag_117\n        /* \"#utility.yul\":5058:5059   */\n      0x00\n        /* \"#utility.yul\":5047:5056   */\n      dup4\n        /* \"#utility.yul\":5043:5060   */\n      add\n        /* \"#utility.yul\":5034:5040   */\n      dup5\n        /* \"#utility.yul\":4990:5061   */\n      tag_54\n      jump\t// in\n    tag_117:\n        /* \"#utility.yul\":4846:5068   */\n      swap3\n      swap2\n      pop\n      pop\n      jump\t// out\n        /* \"#utility.yul\":5074:5221   */\n    tag_55:\n        /* \"#utility.yul\":5175:5186   */\n      0x00\n        /* \"#utility.yul\":5212:5215   */\n      dup2\n        /* \"#utility.yul\":5197:5215   */\n      swap1\n      pop\n        /* \"#utility.yul\":5074:5221   */\n      swap3\n      swap2\n      pop\n      pop\n      jump\t// out\n        /* \"#utility.yul\":5227:5381   */\n    tag_56:\n        /* \"#utility.yul\":5367:5373   */\n      0x4242424200000000000000000000000000000000000000000000000000000000\n        /* \"#utility.yul\":5363:5364   */\n      0x00\n        /* \"#utility.yul\":5355:5361   */\n      dup3\n        /* \"#utility.yul\":5351:5365   */\n      add\n        /* \"#utility.yul\":5344:5374   */\n      mstore\n        /* \"#utility.yul\":5227:5381   */\n      pop\n      jump\t// out\n        /* \"#utility.yul\":5387:5785   */\n    tag_57:\n        /* \"#utility.yul\":5546:5549   */\n      0x00\n        /* \"#utility.yul\":5567:5650   */\n      tag_121\n        /* \"#utility.yul\":5648:5649   */\n      0x04\n        /* \"#utility.yul\":5643:5646   */\n      dup4\n        /* \"#utility.yul\":5567:5650   */\n      tag_55\n      jump\t// in\n    tag_121:\n        /* \"#utility.yul\":5560:5650   */\n      swap2\n      pop\n        /* \"#utility.yul\":5659:5752   */\n      tag_122\n        /* \"#utility.yul\":5748:5751   */\n      dup3\n        /* \"#utility.yul\":5659:5752   */\n      tag_56\n      jump\t// in\n    tag_122:\n        /* \"#utility.yul\":5777:5778   */\n      0x04\n        /* \"#utility.yul\":5772:5775   */\n      dup3\n        /* \"#utility.yul\":5768:5779   */\n      add\n        /* \"#utility.yul\":5761:5779   */\n      swap1\n      pop\n        /* \"#utility.yul\":5387:5785   */\n      swap2\n      swap1\n      pop\n      jump\t// out\n        /* \"#utility.yul\":5791:6170   */\n    tag_21:\n        /* \"#utility.yul\":5975:5978   */\n      0x00\n        /* \"#utility.yul\":5997:6144   */\n      tag_124\n        /* \"#utility.yul\":6140:6143   */\n      dup3\n        /* \"#utility.yul\":5997:6144   */\n      tag_57\n      jump\t// in\n    tag_124:\n        /* \"#utility.yul\":5990:6144   */\n      swap2\n      pop\n        /* \"#utility.yul\":6161:6164   */\n      dup2\n        /* \"#utility.yul\":6154:6164   */\n      swap1\n      pop\n        /* \"#utility.yul\":5791:6170   */\n      swap2\n      swap1\n      pop\n      jump\t// out\n        /* \"#utility.yul\":6176:6324   */\n    tag_58:\n        /* \"#utility.yul\":6278:6289   */\n      0x00\n        /* \"#utility.yul\":6315:6318   */\n      dup2\n        /* \"#utility.yul\":6300:6318   */\n      swap1\n      pop\n        /* \"#utility.yul\":6176:6324   */\n      swap3\n      swap2\n      pop\n      pop\n      jump\t// out\n        /* \"#utility.yul\":6330:6730   */\n    tag_59:\n        /* \"#utility.yul\":6490:6493   */\n      0x00\n        /* \"#utility.yul\":6511:6595   */\n      tag_127\n        /* \"#utility.yul\":6593:6594   */\n      0x04\n        /* \"#utility.yul\":6588:6591   */\n      dup4\n        /* \"#utility.yul\":6511:6595   */\n      tag_58\n      jump\t// in\n    tag_127:\n        /* \"#utility.yul\":6504:6595   */\n      swap2\n      pop\n        /* \"#utility.yul\":6604:6697   */\n      tag_128\n        /* \"#utility.yul\":6693:6696   */\n      dup3\n        /* \"#utility.yul\":6604:6697   */\n      tag_56\n      jump\t// in\n    tag_128:\n        /* \"#utility.yul\":6722:6723   */\n      0x04\n        /* \"#utility.yul\":6717:6720   */\n      dup3\n        /* \"#utility.yul\":6713:6724   */\n      add\n        /* \"#utility.yul\":6706:6724   */\n      swap1\n      pop\n        /* \"#utility.yul\":6330:6730   */\n      swap2\n      swap1\n      pop\n      jump\t// out\n        /* \"#utility.yul\":6736:7122   */\n    tag_60:\n        /* \"#utility.yul\":6840:6843   */\n      0x00\n        /* \"#utility.yul\":6868:6906   */\n      tag_130\n        /* \"#utility.yul\":6900:6905   */\n      dup3\n        /* \"#utility.yul\":6868:6906   */\n      tag_35\n      jump\t// in\n    tag_130:\n        /* \"#utility.yul\":6922:7010   */\n      tag_131\n        /* \"#utility.yul\":7003:7009   */\n      dup2\n        /* \"#utility.yul\":6998:7001   */\n      dup6\n        /* \"#utility.yul\":6922:7010   */\n      tag_55\n      jump\t// in\n    tag_131:\n        /* \"#utility.yul\":6915:7010   */\n      swap4\n      pop\n        /* \"#utility.yul\":7019:7084   */\n      tag_132\n        /* \"#utility.yul\":7077:7083   */\n      dup2\n        /* \"#utility.yul\":7072:7075   */\n      dup6\n        /* \"#utility.yul\":7065:7069   */\n      0x20\n        /* \"#utility.yul\":7058:7063   */\n      dup7\n        /* \"#utility.yul\":7054:7070   */\n      add\n        /* \"#utility.yul\":7019:7084   */\n      tag_37\n      jump\t// in\n    tag_132:\n        /* \"#utility.yul\":7109:7115   */\n      dup1\n        /* \"#utility.yul\":7104:7107   */\n      dup5\n        /* \"#utility.yul\":7100:7116   */\n      add\n        /* \"#utility.yul\":7093:7116   */\n      swap2\n      pop\n        /* \"#utility.yul\":6844:7122   */\n      pop\n        /* \"#utility.yul\":6736:7122   */\n      swap3\n      swap2\n      pop\n      pop\n      jump\t// out\n        /* \"#utility.yul\":7128:7665   */\n    tag_27:\n        /* \"#utility.yul\":7359:7362   */\n      0x00\n        /* \"#utility.yul\":7381:7529   */\n      tag_134\n        /* \"#utility.yul\":7525:7528   */\n      dup3\n        /* \"#utility.yul\":7381:7529   */\n      tag_59\n      jump\t// in\n    tag_134:\n        /* \"#utility.yul\":7374:7529   */\n      swap2\n      pop\n        /* \"#utility.yul\":7546:7639   */\n      tag_135\n        /* \"#utility.yul\":7635:7638   */\n      dup3\n        /* \"#utility.yul\":7626:7632   */\n      dup5\n        /* \"#utility.yul\":7546:7639   */\n      tag_60\n      jump\t// in\n    tag_135:\n        /* \"#utility.yul\":7539:7639   */\n      swap2\n      pop\n        /* \"#utility.yul\":7656:7659   */\n      dup2\n        /* \"#utility.yul\":7649:7659   */\n      swap1\n      pop\n        /* \"#utility.yul\":7128:7665   */\n      swap3\n      swap2\n      pop\n      pop\n      jump\t// out\n        /* \"#utility.yul\":7671:7942   */\n    tag_29:\n        /* \"#utility.yul\":7801:7804   */\n      0x00\n        /* \"#utility.yul\":7823:7916   */\n      tag_137\n        /* \"#utility.yul\":7912:7915   */\n      dup3\n        /* \"#utility.yul\":7903:7909   */\n      dup5\n        /* \"#utility.yul\":7823:7916   */\n      tag_60\n      jump\t// in\n    tag_137:\n        /* \"#utility.yul\":7816:7916   */\n      swap2\n      pop\n        /* \"#utility.yul\":7933:7936   */\n      dup2\n        /* \"#utility.yul\":7926:7936   */\n      swap1\n      pop\n        /* \"#utility.yul\":7671:7942   */\n      swap3\n      swap2\n      pop\n      pop\n      jump\t// out\n\n    auxdata: 0xa2646970667358221220c85110af692f49de8d0f32ec01af26bd54ac8888a956e1beca1329fd96d2767064736f6c634300081e0033\n}\n",
				"bytecode": {
					"linkReferences": {},
					"object": "608060405273e621abea69c75da07c3850eea3965de0599d4b3d5f5f6101000a81548173ffffffffffffffffffffffffffffffffffffffff021916908373ffffffffffffffffffffffffffffffffffffffff1602179055503480156061575f5ffd5b506105e38061006f5f395ff3fe608060405234801561000f575f5ffd5b506004361061003f575f3560e01c8063340e217414610043578063b773a36814610062578063bd90df7014610093575b5f5ffd5b61004b6100b1565b6040516100599291906102a8565b60405180910390f35b61007c60048036038101906100779190610413565b610142565b60405161008a9291906102a8565b60405180910390f35b61009b6101fa565b6040516100a89190610499565b60405180910390f35b5f60605f5f9054906101000a900473ffffffffffffffffffffffffffffffffffffffff1673ffffffffffffffffffffffffffffffffffffffff166040516100f790610506565b5f604051808303815f865af19150503d805f8114610130576040519150601f19603f3d011682016040523d82523d5f602084013e610135565b606091505b5080925081935050509091565b5f60605f836040516020016101579190610576565b60405160208183030381529060405290505f5f9054906101000a900473ffffffffffffffffffffffffffffffffffffffff1673ffffffffffffffffffffffffffffffffffffffff16816040516101ad9190610597565b5f604051808303815f865af19150503d805f81146101e6576040519150601f19603f3d011682016040523d82523d5f602084013e6101eb565b606091505b50809350819450505050915091565b5f5f9054906101000a900473ffffffffffffffffffffffffffffffffffffffff1681565b5f8115159050919050565b6102328161021e565b82525050565b5f81519050919050565b5f82825260208201905092915050565b8281835e5f83830152505050565b5f601f19601f8301169050919050565b5f61027a82610238565b6102848185610242565b9350610294818560208601610252565b61029d81610260565b840191505092915050565b5f6040820190506102bb5f830185610229565b81810360208301526102cd8184610270565b90509392505050565b5f604051905090565b5f5ffd5b5f5ffd5b5f5ffd5b5f5ffd5b7f4e487b71000000000000000000000000000000000000000000000000000000005f52604160045260245ffd5b61032582610260565b810181811067ffffffffffffffff82111715610344576103436102ef565b5b80604052505050565b5f6103566102d6565b9050610362828261031c565b919050565b5f67ffffffffffffffff821115610381576103806102ef565b5b61038a82610260565b9050602081019050919050565b828183375f83830152505050565b5f6103b76103b284610367565b61034d565b9050828152602081018484840111156103d3576103d26102eb565b5b6103de848285610397565b509392505050565b5f82601f8301126103fa576103f96102e7565b5b813561040a8482602086016103a5565b91505092915050565b5f60208284031215610428576104276102df565b5b5f82013567ffffffffffffffff811115610445576104446102e3565b5b610451848285016103e6565b91505092915050565b5f73ffffffffffffffffffffffffffffffffffffffff82169050919050565b5f6104838261045a565b9050919050565b61049381610479565b82525050565b5f6020820190506104ac5f83018461048a565b92915050565b5f81905092915050565b7f42424242000000000000000000000000000000000000000000000000000000005f82015250565b5f6104f06004836104b2565b91506104fb826104bc565b600482019050919050565b5f610510826104e4565b9150819050919050565b5f81905092915050565b5f61053060048361051a565b915061053b826104bc565b600482019050919050565b5f61055082610238565b61055a81856104b2565b935061056a818560208601610252565b80840191505092915050565b5f61058082610524565b915061058c8284610546565b915081905092915050565b5f6105a28284610546565b91508190509291505056fea2646970667358221220c85110af692f49de8d0f32ec01af26bd54ac8888a956e1beca1329fd96d2767064736f6c634300081e0033",
					"opcodes": "PUSH1 0x80 PUSH1 0x40 MSTORE PUSH20 0xE621ABEA69C75DA07C3850EEA3965DE0599D4B3D PUSH0 PUSH0 PUSH2 0x100 EXP DUP2 SLOAD DUP2 PUSH20 0xFFFFFFFFFFFFFFFFFFFFFFFFFFFFFFFFFFFFFFFF MUL NOT AND SWAP1 DUP4 PUSH20 0xFFFFFFFFFFFFFFFFFFFFFFFFFFFFFFFFFFFFFFFF AND MUL OR SWAP1 SSTORE POP CALLVALUE DUP1 ISZERO PUSH1 0x61 JUMPI PUSH0 PUSH0 REVERT JUMPDEST POP PUSH2 0x5E3 DUP1 PUSH2 0x6F PUSH0 CODECOPY PUSH0 RETURN INVALID PUSH1 0x80 PUSH1 0x40 MSTORE CALLVALUE DUP1 ISZERO PUSH2 0xF JUMPI PUSH0 PUSH0 REVERT JUMPDEST POP PUSH1 0x4 CALLDATASIZE LT PUSH2 0x3F JUMPI PUSH0 CALLDATALOAD PUSH1 0xE0 SHR DUP1 PUSH4 0x340E2174 EQ PUSH2 0x43 JUMPI DUP1 PUSH4 0xB773A368 EQ PUSH2 0x62 JUMPI DUP1 PUSH4 0xBD90DF70 EQ PUSH2 0x93 JUMPI JUMPDEST PUSH0 PUSH0 REVERT JUMPDEST PUSH2 0x4B PUSH2 0xB1 JUMP JUMPDEST PUSH1 0x40 MLOAD PUSH2 0x59 SWAP3 SWAP2 SWAP1 PUSH2 0x2A8 JUMP JUMPDEST PUSH1 0x40 MLOAD DUP1 SWAP2 SUB SWAP1 RETURN JUMPDEST PUSH2 0x7C PUSH1 0x4 DUP1 CALLDATASIZE SUB DUP2 ADD SWAP1 PUSH2 0x77 SWAP2 SWAP1 PUSH2 0x413 JUMP JUMPDEST PUSH2 0x142 JUMP JUMPDEST PUSH1 0x40 MLOAD PUSH2 0x8A SWAP3 SWAP2 SWAP1 PUSH2 0x2A8 JUMP JUMPDEST PUSH1 0x40 MLOAD DUP1 SWAP2 SUB SWAP1 RETURN JUMPDEST PUSH2 0x9B PUSH2 0x1FA JUMP JUMPDEST PUSH1 0x40 MLOAD PUSH2 0xA8 SWAP2 SWAP1 PUSH2 0x499 JUMP JUMPDEST PUSH1 0x40 MLOAD DUP1 SWAP2 SUB SWAP1 RETURN JUMPDEST PUSH0 PUSH1 0x60 PUSH0 PUSH0 SWAP1 SLOAD SWAP1 PUSH2 0x100 EXP SWAP1 DIV PUSH20 0xFFFFFFFFFFFFFFFFFFFFFFFFFFFFFFFFFFFFFFFF AND PUSH20 0xFFFFFFFFFFFFFFFFFFFFFFFFFFFFFFFFFFFFFFFF AND PUSH1 0x40 MLOAD PUSH2 0xF7 SWAP1 PUSH2 0x506 JUMP JUMPDEST PUSH0 PUSH1 0x40 MLOAD DUP1 DUP4 SUB DUP2 PUSH0 DUP7 GAS CALL SWAP2 POP POP RETURNDATASIZE DUP1 PUSH0 DUP2 EQ PUSH2 0x130 JUMPI PUSH1 0x40 MLOAD SWAP2 POP PUSH1 0x1F NOT PUSH1 0x3F RETURNDATASIZE ADD AND DUP3 ADD PUSH1 0x40 MSTORE RETURNDATASIZE DUP3 MSTORE RETURNDATASIZE PUSH0 PUSH1 0x20 DUP5 ADD RETURNDATACOPY PUSH2 0x135 JUMP JUMPDEST PUSH1 0x60 SWAP2 POP JUMPDEST POP DUP1 SWAP3 POP DUP2 SWAP4 POP POP POP SWAP1 SWAP2 JUMP JUMPDEST PUSH0 PUSH1 0x60 PUSH0 DUP4 PUSH1 0x40 MLOAD PUSH1 0x20 ADD PUSH2 0x157 SWAP2 SWAP1 PUSH2 0x576 JUMP JUMPDEST PUSH1 0x40 MLOAD PUSH1 0x20 DUP2 DUP4 SUB SUB DUP2 MSTORE SWAP1 PUSH1 0x40 MSTORE SWAP1 POP PUSH0 PUSH0 SWAP1 SLOAD SWAP1 PUSH2 0x100 EXP SWAP1 DIV PUSH20 0xFFFFFFFFFFFFFFFFFFFFFFFFFFFFFFFFFFFFFFFF AND PUSH20 0xFFFFFFFFFFFFFFFFFFFFFFFFFFFFFFFFFFFFFFFF AND DUP2 PUSH1 0x40 MLOAD PUSH2 0x1AD SWAP2 SWAP1 PUSH2 0x597 JUMP JUMPDEST PUSH0 PUSH1 0x40 MLOAD DUP1 DUP4 SUB DUP2 PUSH0 DUP7 GAS CALL SWAP2 POP POP RETURNDATASIZE DUP1 PUSH0 DUP2 EQ PUSH2 0x1E6 JUMPI PUSH1 0x40 MLOAD SWAP2 POP PUSH1 0x1F NOT PUSH1 0x3F RETURNDATASIZE ADD AND DUP3 ADD PUSH1 0x40 MSTORE RETURNDATASIZE DUP3 MSTORE RETURNDATASIZE PUSH0 PUSH1 0x20 DUP5 ADD RETURNDATACOPY PUSH2 0x1EB JUMP JUMPDEST PUSH1 0x60 SWAP2 POP JUMPDEST POP DUP1 SWAP4 POP DUP2 SWAP5 POP POP POP POP SWAP2 POP SWAP2 JUMP JUMPDEST PUSH0 PUSH0 SWAP1 SLOAD SWAP1 PUSH2 0x100 EXP SWAP1 DIV PUSH20 0xFFFFFFFFFFFFFFFFFFFFFFFFFFFFFFFFFFFFFFFF AND DUP2 JUMP JUMPDEST PUSH0 DUP2 ISZERO ISZERO SWAP1 POP SWAP2 SWAP1 POP JUMP JUMPDEST PUSH2 0x232 DUP2 PUSH2 0x21E JUMP JUMPDEST DUP3 MSTORE POP POP JUMP JUMPDEST PUSH0 DUP2 MLOAD SWAP1 POP SWAP2 SWAP1 POP JUMP JUMPDEST PUSH0 DUP3 DUP3 MSTORE PUSH1 0x20 DUP3 ADD SWAP1 POP SWAP3 SWAP2 POP POP JUMP JUMPDEST DUP3 DUP2 DUP4 MCOPY PUSH0 DUP4 DUP4 ADD MSTORE POP POP POP JUMP JUMPDEST PUSH0 PUSH1 0x1F NOT PUSH1 0x1F DUP4 ADD AND SWAP1 POP SWAP2 SWAP1 POP JUMP JUMPDEST PUSH0 PUSH2 0x27A DUP3 PUSH2 0x238 JUMP JUMPDEST PUSH2 0x284 DUP2 DUP6 PUSH2 0x242 JUMP JUMPDEST SWAP4 POP PUSH2 0x294 DUP2 DUP6 PUSH1 0x20 DUP7 ADD PUSH2 0x252 JUMP JUMPDEST PUSH2 0x29D DUP2 PUSH2 0x260 JUMP JUMPDEST DUP5 ADD SWAP2 POP POP SWAP3 SWAP2 POP POP JUMP JUMPDEST PUSH0 PUSH1 0x40 DUP3 ADD SWAP1 POP PUSH2 0x2BB PUSH0 DUP4 ADD DUP6 PUSH2 0x229 JUMP JUMPDEST DUP2 DUP2 SUB PUSH1 0x20 DUP4 ADD MSTORE PUSH2 0x2CD DUP2 DUP5 PUSH2 0x270 JUMP JUMPDEST SWAP1 POP SWAP4 SWAP3 POP POP POP JUMP JUMPDEST PUSH0 PUSH1 0x40 MLOAD SWAP1 POP SWAP1 JUMP JUMPDEST PUSH0 PUSH0 REVERT JUMPDEST PUSH0 PUSH0 REVERT JUMPDEST PUSH0 PUSH0 REVERT JUMPDEST PUSH0 PUSH0 REVERT JUMPDEST PUSH32 0x4E487B7100000000000000000000000000000000000000000000000000000000 PUSH0 MSTORE PUSH1 0x41 PUSH1 0x4 MSTORE PUSH1 0x24 PUSH0 REVERT JUMPDEST PUSH2 0x325 DUP3 PUSH2 0x260 JUMP JUMPDEST DUP2 ADD DUP2 DUP2 LT PUSH8 0xFFFFFFFFFFFFFFFF DUP3 GT OR ISZERO PUSH2 0x344 JUMPI PUSH2 0x343 PUSH2 0x2EF JUMP JUMPDEST JUMPDEST DUP1 PUSH1 0x40 MSTORE POP POP POP JUMP JUMPDEST PUSH0 PUSH2 0x356 PUSH2 0x2D6 JUMP JUMPDEST SWAP1 POP PUSH2 0x362 DUP3 DUP3 PUSH2 0x31C JUMP JUMPDEST SWAP2 SWAP1 POP JUMP JUMPDEST PUSH0 PUSH8 0xFFFFFFFFFFFFFFFF DUP3 GT ISZERO PUSH2 0x381 JUMPI PUSH2 0x380 PUSH2 0x2EF JUMP JUMPDEST JUMPDEST PUSH2 0x38A DUP3 PUSH2 0x260 JUMP JUMPDEST SWAP1 POP PUSH1 0x20 DUP2 ADD SWAP1 POP SWAP2 SWAP1 POP JUMP JUMPDEST DUP3 DUP2 DUP4 CALLDATACOPY PUSH0 DUP4 DUP4 ADD MSTORE POP POP POP JUMP JUMPDEST PUSH0 PUSH2 0x3B7 PUSH2 0x3B2 DUP5 PUSH2 0x367 JUMP JUMPDEST PUSH2 0x34D JUMP JUMPDEST SWAP1 POP DUP3 DUP2 MSTORE PUSH1 0x20 DUP2 ADD DUP5 DUP5 DUP5 ADD GT ISZERO PUSH2 0x3D3 JUMPI PUSH2 0x3D2 PUSH2 0x2EB JUMP JUMPDEST JUMPDEST PUSH2 0x3DE DUP5 DUP3 DUP6 PUSH2 0x397 JUMP JUMPDEST POP SWAP4 SWAP3 POP POP POP JUMP JUMPDEST PUSH0 DUP3 PUSH1 0x1F DUP4 ADD SLT PUSH2 0x3FA JUMPI PUSH2 0x3F9 PUSH2 0x2E7 JUMP JUMPDEST JUMPDEST DUP2 CALLDATALOAD PUSH2 0x40A DUP5 DUP3 PUSH1 0x20 DUP7 ADD PUSH2 0x3A5 JUMP JUMPDEST SWAP2 POP POP SWAP3 SWAP2 POP POP JUMP JUMPDEST PUSH0 PUSH1 0x20 DUP3 DUP5 SUB SLT ISZERO PUSH2 0x428 JUMPI PUSH2 0x427 PUSH2 0x2DF JUMP JUMPDEST JUMPDEST PUSH0 DUP3 ADD CALLDATALOAD PUSH8 0xFFFFFFFFFFFFFFFF DUP2 GT ISZERO PUSH2 0x445 JUMPI PUSH2 0x444 PUSH2 0x2E3 JUMP JUMPDEST JUMPDEST PUSH2 0x451 DUP5 DUP3 DUP6 ADD PUSH2 0x3E6 JUMP JUMPDEST SWAP2 POP POP SWAP3 SWAP2 POP POP JUMP JUMPDEST PUSH0 PUSH20 0xFFFFFFFFFFFFFFFFFFFFFFFFFFFFFFFFFFFFFFFF DUP3 AND SWAP1 POP SWAP2 SWAP1 POP JUMP JUMPDEST PUSH0 PUSH2 0x483 DUP3 PUSH2 0x45A JUMP JUMPDEST SWAP1 POP SWAP2 SWAP1 POP JUMP JUMPDEST PUSH2 0x493 DUP2 PUSH2 0x479 JUMP JUMPDEST DUP3 MSTORE POP POP JUMP JUMPDEST PUSH0 PUSH1 0x20 DUP3 ADD SWAP1 POP PUSH2 0x4AC PUSH0 DUP4 ADD DUP5 PUSH2 0x48A JUMP JUMPDEST SWAP3 SWAP2 POP POP JUMP JUMPDEST PUSH0 DUP2 SWAP1 POP SWAP3 SWAP2 POP POP JUMP JUMPDEST PUSH32 0x4242424200000000000000000000000000000000000000000000000000000000 PUSH0 DUP3 ADD MSTORE POP JUMP JUMPDEST PUSH0 PUSH2 0x4F0 PUSH1 0x4 DUP4 PUSH2 0x4B2 JUMP JUMPDEST SWAP2 POP PUSH2 0x4FB DUP3 PUSH2 0x4BC JUMP JUMPDEST PUSH1 0x4 DUP3 ADD SWAP1 POP SWAP2 SWAP1 POP JUMP JUMPDEST PUSH0 PUSH2 0x510 DUP3 PUSH2 0x4E4 JUMP JUMPDEST SWAP2 POP DUP2 SWAP1 POP SWAP2 SWAP1 POP JUMP JUMPDEST PUSH0 DUP2 SWAP1 POP SWAP3 SWAP2 POP POP JUMP JUMPDEST PUSH0 PUSH2 0x530 PUSH1 0x4 DUP4 PUSH2 0x51A JUMP JUMPDEST SWAP2 POP PUSH2 0x53B DUP3 PUSH2 0x4BC JUMP JUMPDEST PUSH1 0x4 DUP3 ADD SWAP1 POP SWAP2 SWAP1 POP JUMP JUMPDEST PUSH0 PUSH2 0x550 DUP3 PUSH2 0x238 JUMP JUMPDEST PUSH2 0x55A DUP2 DUP6 PUSH2 0x4B2 JUMP JUMPDEST SWAP4 POP PUSH2 0x56A DUP2 DUP6 PUSH1 0x20 DUP7 ADD PUSH2 0x252 JUMP JUMPDEST DUP1 DUP5 ADD SWAP2 POP POP SWAP3 SWAP2 POP POP JUMP JUMPDEST PUSH0 PUSH2 0x580 DUP3 PUSH2 0x524 JUMP JUMPDEST SWAP2 POP PUSH2 0x58C DUP3 DUP5 PUSH2 0x546 JUMP JUMPDEST SWAP2 POP DUP2 SWAP1 POP SWAP3 SWAP2 POP POP JUMP JUMPDEST PUSH0 PUSH2 0x5A2 DUP3 DUP5 PUSH2 0x546 JUMP JUMPDEST SWAP2 POP DUP2 SWAP1 POP SWAP3 SWAP2 POP POP JUMP INVALID LOG2 PUSH5 0x6970667358 0x22 SLT KECCAK256 0xC8 MLOAD LT 0xAF PUSH10 0x2F49DE8D0F32EC01AF26 0xBD SLOAD 0xAC DUP9 DUP9 0xA9 JUMP RJUMPI 0xBECA SGT 0x29 REVERT SWAP7 0xD2 PUSH23 0x7064736F6C634300081E00330000000000000000000000 "
				},
				"gasEstimates": {
					"creation": {
						"codeDepositCost": "301400",
						"executionCost": "24606",
						"totalCost": "326006"
					},
					"external": {
						"callSelector42()": "infinite",
						"callSelectorWithParams(bytes)": "infinite",
						"targetContract()": "2529"
					}
				},
				"methodIdentifiers": {
					"callSelector42()": "340e2174",
					"callSelectorWithParams(bytes)": "b773a368",
					"targetContract()": "bd90df70"
				}
			},
			"storageLayout": {
				"storage": [
					{
						"astId": 4,
						"contract": "Contact.sol:Caller",
						"label": "targetContract",
						"offset": 0,
						"slot": "0",
						"type": "t_address"
					}
				],
				"types": {
					"t_address": {
						"encoding": "inplace",
						"label": "address",
						"numberOfBytes": "20"
					}
				}
			},
			"userdoc": {
				"kind": "user",
				"methods": {},
				"version": 1
			}
		}
	}
}