{
	"data": {
		"bytecode": {
			"linkReferences": {},
			"object": "608060405273e621abea69c75da07c3850eea3965de0599d4b3d5f5f6101000a81548173ffffffffffffffffffffffffffffffffffffffff021916908373ffffffffffffffffffffffffffffffffffffffff1602179055503480156061575f5ffd5b506108a78061006f5f395ff3fe608060405260043610610042575f3560e01c8063340e2174146100b9578063b773a368146100e4578063bd90df7014610121578063cb3a62df1461014b5761007e565b3661007e577f43728e47c6f378312077a49106659446a23766fc65b3674c995b89121d8efeea6040516100749061040e565b60405180910390a1005b7f43728e47c6f378312077a49106659446a23766fc65b3674c995b89121d8efeea5f366040516100af929190610476565b60405180910390a1005b3480156100c4575f5ffd5b506100cd610176565b6040516100db929190610502565b60405180910390f35b3480156100ef575f5ffd5b5061010a6004803603810190610105919061065f565b610207565b604051610118929190610502565b60405180910390f35b34801561012c575f5ffd5b506101356102bf565b60405161014291906106e5565b60405180910390f35b348015610156575f5ffd5b5061015f6102e3565b60405161016d929190610502565b60405180910390f35b5f60605f5f9054906101000a900473ffffffffffffffffffffffffffffffffffffffff1673ffffffffffffffffffffffffffffffffffffffff166040516101bc90610752565b5f604051808303815f865af19150503d805f81146101f5576040519150601f19603f3d011682016040523d82523d5f602084013e6101fa565b606091505b5080925081935050509091565b5f60605f8360405160200161021c91906107c2565b60405160208183030381529060405290505f5f9054906101000a900473ffffffffffffffffffffffffffffffffffffffff1673ffffffffffffffffffffffffffffffffffffffff168160405161027291906107e3565b5f604051808303815f865af19150503d805f81146102ab576040519150601f19603f3d011682016040523d82523d5f602084013e6102b0565b606091505b50809350819450505050915091565b5f5f9054906101000a900473ffffffffffffffffffffffffffffffffffffffff1681565b5f60605f5f9054906101000a900473ffffffffffffffffffffffffffffffffffffffff1673ffffffffffffffffffffffffffffffffffffffff1660405161032990610752565b5f604051808303815f865af19150503d805f8114610362576040519150601f19603f3d011682016040523d82523d5f602084013e610367565b606091505b508092508193505050816103b0576040517f08c379a00000000000000000000000000000000000000000000000000000000081526004016103a790610853565b60405180910390fd5b9091565b5f82825260208201905092915050565b7f52656365697665642045544800000000000000000000000000000000000000005f82015250565b5f6103f8600c836103b4565b9150610403826103c4565b602082019050919050565b5f6020820190508181035f830152610425816103ec565b9050919050565b828183375f83830152505050565b5f601f19601f8301169050919050565b5f61045583856103b4565b935061046283858461042c565b61046b8361043a565b840190509392505050565b5f6020820190508181035f83015261048f81848661044a565b90509392505050565b5f8115159050919050565b6104ac81610498565b82525050565b5f81519050919050565b8281835e5f83830152505050565b5f6104d4826104b2565b6104de81856103b4565b93506104ee8185602086016104bc565b6104f78161043a565b840191505092915050565b5f6040820190506105155f8301856104a3565b818103602083015261052781846104ca565b90509392505050565b5f604051905090565b5f5ffd5b5f5ffd5b5f5ffd5b5f5ffd5b7f4e487b71000000000000000000000000000000000000000000000000000000005f52604160045260245ffd5b61057f8261043a565b810181811067ffffffffffffffff8211171561059e5761059d610549565b5b80604052505050565b5f6105b0610530565b90506105bc8282610576565b919050565b5f67ffffffffffffffff8211156105db576105da610549565b5b6105e48261043a565b9050602081019050919050565b5f6106036105fe846105c1565b6105a7565b90508281526020810184848401111561061f5761061e610545565b5b61062a84828561042c565b509392505050565b5f82601f83011261064657610645610541565b5b81356106568482602086016105f1565b91505092915050565b5f6020828403121561067457610673610539565b5b5f82013567ffffffffffffffff8111156106915761069061053d565b5b61069d84828501610632565b91505092915050565b5f73ffffffffffffffffffffffffffffffffffffffff82169050919050565b5f6106cf826106a6565b9050919050565b6106df816106c5565b82525050565b5f6020820190506106f85f8301846106d6565b92915050565b5f81905092915050565b7f42424242000000000000000000000000000000000000000000000000000000005f82015250565b5f61073c6004836106fe565b915061074782610708565b600482019050919050565b5f61075c82610730565b9150819050919050565b5f81905092915050565b5f61077c600483610766565b915061078782610708565b600482019050919050565b5f61079c826104b2565b6107a681856106fe565b93506107b68185602086016104bc565b80840191505092915050565b5f6107cc82610770565b91506107d88284610792565b915081905092915050565b5f6107ee8284610792565b915081905092915050565b5f82825260208201905092915050565b7f63616c6c206661696c65640000000000000000000000000000000000000000005f82015250565b5f61083d600b836107f9565b915061084882610809565b602082019050919050565b5f6020820190508181035f83015261086a81610831565b905091905056fea2646970667358221220f2e55a9d2eb3f5c1d671626ee14cdc75fc10e0a11445e5f506cc69ba9a7d8c0264736f6c634300081e0033",
			"opcodes": "PUSH1 0x80 PUSH1 0x40 MSTORE PUSH20 0xE621ABEA69C75DA07C3850EEA3965DE0599D4B3D PUSH0 PUSH0 PUSH2 0x100 EXP DUP2 SLOAD DUP2 PUSH20 0xFFFFFFFFFFFFFFFFFFFFFFFFFFFFFFFFFFFFFFFF MUL NOT AND SWAP1 DUP4 PUSH20 0xFFFFFFFFFFFFFFFFFFFFFFFFFFFFFFFFFFFFFFFF AND MUL OR SWAP1 SSTORE POP CALLVALUE DUP1 ISZERO PUSH1 0x61 JUMPI PUSH0 PUSH0 REVERT JUMPDEST POP PUSH2 0x8A7 DUP1 PUSH2 0x6F PUSH0 CODECOPY PUSH0 RETURN INVALID PUSH1 0x80 PUSH1 0x40 MSTORE PUSH1 0x4 CALLDATASIZE LT PUSH2 0x42 JUMPI PUSH0 CALLDATALOAD PUSH1 0xE0 SHR DUP1 PUSH4 0x340E2174 EQ PUSH2 0xB9 JUMPI DUP1 PUSH4 0xB773A368 EQ PUSH2 0xE4 JUMPI DUP1 PUSH4 0xBD90DF70 EQ PUSH2 0x121 JUMPI DUP1 PUSH4 0xCB3A62DF EQ PUSH2 0x14B JUMPI PUSH2 0x7E JUMP JUMPDEST CALLDATASIZE PUSH2 0x7E JUMPI PUSH32 0x43728E47C6F378312077A49106659446A23766FC65B3674C995B89121D8EFEEA PUSH1 0x40 MLOAD PUSH2 0x74 SWAP1 PUSH2 0x40E JUMP JUMPDEST PUSH1 0x40 MLOAD DUP1 SWAP2 SUB SWAP1 LOG1 STOP JUMPDEST PUSH32 0x43728E47C6F378312077A49106659446A23766FC65B3674C995B89121D8EFEEA PUSH0 CALLDATASIZE PUSH1 0x40 MLOAD PUSH2 0xAF SWAP3 SWAP2 SWAP1 PUSH2 0x476 JUMP JUMPDEST PUSH1 0x40 MLOAD DUP1 SWAP2 SUB SWAP1 LOG1 STOP JUMPDEST CALLVALUE DUP1 ISZERO PUSH2 0xC4 JUMPI PUSH0 PUSH0 REVERT JUMPDEST POP PUSH2 0xCD PUSH2 0x176 JUMP JUMPDEST PUSH1 0x40 MLOAD PUSH2 0xDB SWAP3 SWAP2 SWAP1 PUSH2 0x502 JUMP JUMPDEST PUSH1 0x40 MLOAD DUP1 SWAP2 SUB SWAP1 RETURN JUMPDEST CALLVALUE DUP1 ISZERO PUSH2 0xEF JUMPI PUSH0 PUSH0 REVERT JUMPDEST POP PUSH2 0x10A PUSH1 0x4 DUP1 CALLDATASIZE SUB DUP2 ADD SWAP1 PUSH2 0x105 SWAP2 SWAP1 PUSH2 0x65F JUMP JUMPDEST PUSH2 0x207 JUMP JUMPDEST PUSH1 0x40 MLOAD PUSH2 0x118 SWAP3 SWAP2 SWAP1 PUSH2 0x502 JUMP JUMPDEST PUSH1 0x40 MLOAD DUP1 SWAP2 SUB SWAP1 RETURN JUMPDEST CALLVALUE DUP1 ISZERO PUSH2 0x12C JUMPI PUSH0 PUSH0 REVERT JUMPDEST POP PUSH2 0x135 PUSH2 0x2BF JUMP JUMPDEST PUSH1 0x40 MLOAD PUSH2 0x142 SWAP2 SWAP1 PUSH2 0x6E5 JUMP JUMPDEST PUSH1 0x40 MLOAD DUP1 SWAP2 SUB SWAP1 RETURN JUMPDEST CALLVALUE DUP1 ISZERO PUSH2 0x156 JUMPI PUSH0 PUSH0 REVERT JUMPDEST POP PUSH2 0x15F PUSH2 0x2E3 JUMP JUMPDEST PUSH1 0x40 MLOAD PUSH2 0x16D SWAP3 SWAP2 SWAP1 PUSH2 0x502 JUMP JUMPDEST PUSH1 0x40 MLOAD DUP1 SWAP2 SUB SWAP1 RETURN JUMPDEST PUSH0 PUSH1 0x60 PUSH0 PUSH0 SWAP1 SLOAD SWAP1 PUSH2 0x100 EXP SWAP1 DIV PUSH20 0xFFFFFFFFFFFFFFFFFFFFFFFFFFFFFFFFFFFFFFFF AND PUSH20 0xFFFFFFFFFFFFFFFFFFFFFFFFFFFFFFFFFFFFFFFF AND PUSH1 0x40 MLOAD PUSH2 0x1BC SWAP1 PUSH2 0x752 JUMP JUMPDEST PUSH0 PUSH1 0x40 MLOAD DUP1 DUP4 SUB DUP2 PUSH0 DUP7 GAS CALL SWAP2 POP POP RETURNDATASIZE DUP1 PUSH0 DUP2 EQ PUSH2 0x1F5 JUMPI PUSH1 0x40 MLOAD SWAP2 POP PUSH1 0x1F NOT PUSH1 0x3F RETURNDATASIZE ADD AND DUP3 ADD PUSH1 0x40 MSTORE RETURNDATASIZE DUP3 MSTORE RETURNDATASIZE PUSH0 PUSH1 0x20 DUP5 ADD RETURNDATACOPY PUSH2 0x1FA JUMP JUMPDEST PUSH1 0x60 SWAP2 POP JUMPDEST POP DUP1 SWAP3 POP DUP2 SWAP4 POP POP POP SWAP1 SWAP2 JUMP JUMPDEST PUSH0 PUSH1 0x60 PUSH0 DUP4 PUSH1 0x40 MLOAD PUSH1 0x20 ADD PUSH2 0x21C SWAP2 SWAP1 PUSH2 0x7C2 JUMP JUMPDEST PUSH1 0x40 MLOAD PUSH1 0x20 DUP2 DUP4 SUB SUB DUP2 MSTORE SWAP1 PUSH1 0x40 MSTORE SWAP1 POP PUSH0 PUSH0 SWAP1 SLOAD SWAP1 PUSH2 0x100 EXP SWAP1 DIV PUSH20 0xFFFFFFFFFFFFFFFFFFFFFFFFFFFFFFFFFFFFFFFF AND PUSH20 0xFFFFFFFFFFFFFFFFFFFFFFFFFFFFFFFFFFFFFFFF AND DUP2 PUSH1 0x40 MLOAD PUSH2 0x272 SWAP2 SWAP1 PUSH2 0x7E3 JUMP JUMPDEST PUSH0 PUSH1 0x40 MLOAD DUP1 DUP4 SUB DUP2 PUSH0 DUP7 GAS CALL SWAP2 POP POP RETURNDATASIZE DUP1 PUSH0 DUP2 EQ PUSH2 0x2AB JUMPI PUSH1 0x40 MLOAD SWAP2 POP PUSH1 0x1F NOT PUSH1 0x3F RETURNDATASIZE ADD AND DUP3 ADD PUSH1 0x40 MSTORE RETURNDATASIZE DUP3 MSTORE RETURNDATASIZE PUSH0 PUSH1 0x20 DUP5 ADD RETURNDATACOPY PUSH2 0x2B0 JUMP JUMPDEST PUSH1 0x60 SWAP2 POP JUMPDEST POP DUP1 SWAP4 POP DUP2 SWAP5 POP POP POP POP SWAP2 POP SWAP2 JUMP JUMPDEST PUSH0 PUSH0 SWAP1 SLOAD SWAP1 PUSH2 0x100 EXP SWAP1 DIV PUSH20 0xFFFFFFFFFFFFFFFFFFFFFFFFFFFFFFFFFFFFFFFF AND DUP2 JUMP JUMPDEST PUSH0 PUSH1 0x60 PUSH0 PUSH0 SWAP1 SLOAD SWAP1 PUSH2 0x100 EXP SWAP1 DIV PUSH20 0xFFFFFFFFFFFFFFFFFFFFFFFFFFFFFFFFFFFFFFFF AND PUSH20 0xFFFFFFFFFFFFFFFFFFFFFFFFFFFFFFFFFFFFFFFF AND PUSH1 0x40 MLOAD PUSH2 0x329 SWAP1 PUSH2 0x752 JUMP JUMPDEST PUSH0 PUSH1 0x40 MLOAD DUP1 DUP4 SUB DUP2 PUSH0 DUP7 GAS CALL SWAP2 POP POP RETURNDATASIZE DUP1 PUSH0 DUP2 EQ PUSH2 0x362 JUMPI PUSH1 0x40 MLOAD SWAP2 POP PUSH1 0x1F NOT PUSH1 0x3F RETURNDATASIZE ADD AND DUP3 ADD PUSH1 0x40 MSTORE RETURNDATASIZE DUP3 MSTORE RETURNDATASIZE PUSH0 PUSH1 0x20 DUP5 ADD RETURNDATACOPY PUSH2 0x367 JUMP JUMPDEST PUSH1 0x60 SWAP2 POP JUMPDEST POP DUP1 SWAP3 POP DUP2 SWAP4 POP POP POP DUP2 PUSH2 0x3B0 JUMPI PUSH1 0x40 MLOAD PUSH32 0x8C379A000000000000000000000000000000000000000000000000000000000 DUP2 MSTORE PUSH1 0x4 ADD PUSH2 0x3A7 SWAP1 PUSH2 0x853 JUMP JUMPDEST PUSH1 0x40 MLOAD DUP1 SWAP2 SUB SWAP1 REVERT JUMPDEST SWAP1 SWAP2 JUMP JUMPDEST PUSH0 DUP3 DUP3 MSTORE PUSH1 0x20 DUP3 ADD SWAP1 POP SWAP3 SWAP2 POP POP JUMP JUMPDEST PUSH32 0x5265636569766564204554480000000000000000000000000000000000000000 PUSH0 DUP3 ADD MSTORE POP JUMP JUMPDEST PUSH0 PUSH2 0x3F8 PUSH1 0xC DUP4 PUSH2 0x3B4 JUMP JUMPDEST SWAP2 POP PUSH2 0x403 DUP3 PUSH2 0x3C4 JUMP JUMPDEST PUSH1 0x20 DUP3 ADD SWAP1 POP SWAP2 SWAP1 POP JUMP JUMPDEST PUSH0 PUSH1 0x20 DUP3 ADD SWAP1 POP DUP2 DUP2 SUB PUSH0 DUP4 ADD MSTORE PUSH2 0x425 DUP2 PUSH2 0x3EC JUMP JUMPDEST SWAP1 POP SWAP2 SWAP1 POP JUMP JUMPDEST DUP3 DUP2 DUP4 CALLDATACOPY PUSH0 DUP4 DUP4 ADD MSTORE POP POP POP JUMP JUMPDEST PUSH0 PUSH1 0x1F NOT PUSH1 0x1F DUP4 ADD AND SWAP1 POP SWAP2 SWAP1 POP JUMP JUMPDEST PUSH0 PUSH2 0x455 DUP4 DUP6 PUSH2 0x3B4 JUMP JUMPDEST SWAP4 POP PUSH2 0x462 DUP4 DUP6 DUP5 PUSH2 0x42C JUMP JUMPDEST PUSH2 0x46B DUP4 PUSH2 0x43A JUMP JUMPDEST DUP5 ADD SWAP1 POP SWAP4 SWAP3 POP POP POP JUMP JUMPDEST PUSH0 PUSH1 0x20 DUP3 ADD SWAP1 POP DUP2 DUP2 SUB PUSH0 DUP4 ADD MSTORE PUSH2 0x48F DUP2 DUP5 DUP7 PUSH2 0x44A JUMP JUMPDEST SWAP1 POP SWAP4 SWAP3 POP POP POP JUMP JUMPDEST PUSH0 DUP2 ISZERO ISZERO SWAP1 POP SWAP2 SWAP1 POP JUMP JUMPDEST PUSH2 0x4AC DUP2 PUSH2 0x498 JUMP JUMPDEST DUP3 MSTORE POP POP JUMP JUMPDEST PUSH0 DUP2 MLOAD SWAP1 POP SWAP2 SWAP1 POP JUMP JUMPDEST DUP3 DUP2 DUP4 MCOPY PUSH0 DUP4 DUP4 ADD MSTORE POP POP POP JUMP JUMPDEST PUSH0 PUSH2 0x4D4 DUP3 PUSH2 0x4B2 JUMP JUMPDEST PUSH2 0x4DE DUP2 DUP6 PUSH2 0x3B4 JUMP JUMPDEST SWAP4 POP PUSH2 0x4EE DUP2 DUP6 PUSH1 0x20 DUP7 ADD PUSH2 0x4BC JUMP JUMPDEST PUSH2 0x4F7 DUP2 PUSH2 0x43A JUMP JUMPDEST DUP5 ADD SWAP2 POP POP SWAP3 SWAP2 POP POP JUMP JUMPDEST PUSH0 PUSH1 0x40 DUP3 ADD SWAP1 POP PUSH2 0x515 PUSH0 DUP4 ADD DUP6 PUSH2 0x4A3 JUMP JUMPDEST DUP2 DUP2 SUB PUSH1 0x20 DUP4 ADD MSTORE PUSH2 0x527 DUP2 DUP5 PUSH2 0x4CA JUMP JUMPDEST SWAP1 POP SWAP4 SWAP3 POP POP POP JUMP JUMPDEST PUSH0 PUSH1 0x40 MLOAD SWAP1 POP SWAP1 JUMP JUMPDEST PUSH0 PUSH0 REVERT JUMPDEST PUSH0 PUSH0 REVERT JUMPDEST PUSH0 PUSH0 REVERT JUMPDEST PUSH0 PUSH0 REVERT JUMPDEST PUSH32 0x4E487B7100000000000000000000000000000000000000000000000000000000 PUSH0 MSTORE PUSH1 0x41 PUSH1 0x4 MSTORE PUSH1 0x24 PUSH0 REVERT JUMPDEST PUSH2 0x57F DUP3 PUSH2 0x43A JUMP JUMPDEST DUP2 ADD DUP2 DUP2 LT PUSH8 0xFFFFFFFFFFFFFFFF DUP3 GT OR ISZERO PUSH2 0x59E JUMPI PUSH2 0x59D PUSH2 0x549 JUMP JUMPDEST JUMPDEST DUP1 PUSH1 0x40 MSTORE POP POP POP JUMP JUMPDEST PUSH0 PUSH2 0x5B0 PUSH2 0x530 JUMP JUMPDEST SWAP1 POP PUSH2 0x5BC DUP3 DUP3 PUSH2 0x576 JUMP JUMPDEST SWAP2 SWAP1 POP JUMP JUMPDEST PUSH0 PUSH8 0xFFFFFFFFFFFFFFFF DUP3 GT ISZERO PUSH2 0x5DB JUMPI PUSH2 0x5DA PUSH2 0x549 JUMP JUMPDEST JUMPDEST PUSH2 0x5E4 DUP3 PUSH2 0x43A JUMP JUMPDEST SWAP1 POP PUSH1 0x20 DUP2 ADD SWAP1 POP SWAP2 SWAP1 POP JUMP JUMPDEST PUSH0 PUSH2 0x603 PUSH2 0x5FE DUP5 PUSH2 0x5C1 JUMP JUMPDEST PUSH2 0x5A7 JUMP JUMPDEST SWAP1 POP DUP3 DUP2 MSTORE PUSH1 0x20 DUP2 ADD DUP5 DUP5 DUP5 ADD GT ISZERO PUSH2 0x61F JUMPI PUSH2 0x61E PUSH2 0x545 JUMP JUMPDEST JUMPDEST PUSH2 0x62A DUP5 DUP3 DUP6 PUSH2 0x42C JUMP JUMPDEST POP SWAP4 SWAP3 POP POP POP JUMP JUMPDEST PUSH0 DUP3 PUSH1 0x1F DUP4 ADD SLT PUSH2 0x646 JUMPI PUSH2 0x645 PUSH2 0x541 JUMP JUMPDEST JUMPDEST DUP2 CALLDATALOAD PUSH2 0x656 DUP5 DUP3 PUSH1 0x20 DUP7 ADD PUSH2 0x5F1 JUMP JUMPDEST SWAP2 POP POP SWAP3 SWAP2 POP POP JUMP JUMPDEST PUSH0 PUSH1 0x20 DUP3 DUP5 SUB SLT ISZERO PUSH2 0x674 JUMPI PUSH2 0x673 PUSH2 0x539 JUMP JUMPDEST JUMPDEST PUSH0 DUP3 ADD CALLDATALOAD PUSH8 0xFFFFFFFFFFFFFFFF DUP2 GT ISZERO PUSH2 0x691 JUMPI PUSH2 0x690 PUSH2 0x53D JUMP JUMPDEST JUMPDEST PUSH2 0x69D DUP5 DUP3 DUP6 ADD PUSH2 0x632 JUMP JUMPDEST SWAP2 POP POP SWAP3 SWAP2 POP POP JUMP JUMPDEST PUSH0 PUSH20 0xFFFFFFFFFFFFFFFFFFFFFFFFFFFFFFFFFFFFFFFF DUP3 AND SWAP1 POP SWAP2 SWAP1 POP JUMP JUMPDEST PUSH0 PUSH2 0x6CF DUP3 PUSH2 0x6A6 JUMP JUMPDEST SWAP1 POP SWAP2 SWAP1 POP JUMP JUMPDEST PUSH2 0x6DF DUP2 PUSH2 0x6C5 JUMP JUMPDEST DUP3 MSTORE POP POP JUMP JUMPDEST PUSH0 PUSH1 0x20 DUP3 ADD SWAP1 POP PUSH2 0x6F8 PUSH0 DUP4 ADD DUP5 PUSH2 0x6D6 JUMP JUMPDEST SWAP3 SWAP2 POP POP JUMP JUMPDEST PUSH0 DUP2 SWAP1 POP SWAP3 SWAP2 POP POP JUMP JUMPDEST PUSH32 0x4242424200000000000000000000000000000000000000000000000000000000 PUSH0 DUP3 ADD MSTORE POP JUMP JUMPDEST PUSH0 PUSH2 0x73C PUSH1 0x4 DUP4 PUSH2 0x6FE JUMP JUMPDEST SWAP2 POP PUSH2 0x747 DUP3 PUSH2 0x708 JUMP JUMPDEST PUSH1 0x4 DUP3 ADD SWAP1 POP SWAP2 SWAP1 POP JUMP JUMPDEST PUSH0 PUSH2 0x75C DUP3 PUSH2 0x730 JUMP JUMPDEST SWAP2 POP DUP2 SWAP1 POP SWAP2 SWAP1 POP JUMP JUMPDEST PUSH0 DUP2 SWAP1 POP SWAP3 SWAP2 POP POP JUMP JUMPDEST PUSH0 PUSH2 0x77C PUSH1 0x4 DUP4 PUSH2 0x766 JUMP JUMPDEST SWAP2 POP PUSH2 0x787 DUP3 PUSH2 0x708 JUMP JUMPDEST PUSH1 0x4 DUP3 ADD SWAP1 POP SWAP2 SWAP1 POP JUMP JUMPDEST PUSH0 PUSH2 0x79C DUP3 PUSH2 0x4B2 JUMP JUMPDEST PUSH2 0x7A6 DUP2 DUP6 PUSH2 0x6FE JUMP JUMPDEST SWAP4 POP PUSH2 0x7B6 DUP2 DUP6 PUSH1 0x20 DUP7 ADD PUSH2 0x4BC JUMP JUMPDEST DUP1 DUP5 ADD SWAP2 POP POP SWAP3 SWAP2 POP POP JUMP JUMPDEST PUSH0 PUSH2 0x7CC DUP3 PUSH2 0x770 JUMP JUMPDEST SWAP2 POP PUSH2 0x7D8 DUP3 DUP5 PUSH2 0x792 JUMP JUMPDEST SWAP2 POP DUP2 SWAP1 POP SWAP3 SWAP2 POP POP JUMP JUMPDEST PUSH0 PUSH2 0x7EE DUP3 DUP5 PUSH2 0x792 JUMP JUMPDEST SWAP2 POP DUP2 SWAP1 POP SWAP3 SWAP2 POP POP JUMP JUMPDEST PUSH0 DUP3 DUP3 MSTORE PUSH1 0x20 DUP3 ADD SWAP1 POP SWAP3 SWAP2 POP POP JUMP JUMPDEST PUSH32 0x63616C6C206661696C6564000000000000000000000000000000000000000000 PUSH0 DUP3 ADD MSTORE POP JUMP JUMPDEST PUSH0 PUSH2 0x83D PUSH1 0xB DUP4 PUSH2 0x7F9 JUMP JUMPDEST SWAP2 POP PUSH2 0x848 DUP3 PUSH2 0x809 JUMP JUMPDEST PUSH1 0x20 DUP3 ADD SWAP1 POP SWAP2 SWAP1 POP JUMP JUMPDEST PUSH0 PUSH1 0x20 DUP3 ADD SWAP1 POP DUP2 DUP2 SUB PUSH0 DUP4 ADD MSTORE PUSH2 0x86A DUP2 PUSH2 0x831 JUMP JUMPDEST SWAP1 POP SWAP2 SWAP1 POP JUMP INVALID LOG2 PUSH5 0x6970667358 0x22 SLT KECCAK256 CALLCODE JUMPF 0x5A9D 0x2E 0xB3 CREATE2 0xC1 0xD6 PUSH18 0x626EE14CDC75FC10E0A11445E5F506CC69BA SWAP11 PUSH30 0x8C0264736F6C634300081E00330000000000000000000000000000000000 "
		},
		"gasEstimates": {
			"creation": {
				"codeDepositCost": "443000",
				"executionCost": "24743",
				"totalCost": "467743"
			},
			"external": {
				"": "infinite",
				"call4242()": "infinite",
				"callSelector42()": "infinite",
				"callSelectorWithParams(bytes)": "infinite",
				"targetContract()": "2529"
			}
		},
		"methodIdentifiers": {
			"call4242()": "cb3a62df",
			"callSelector42()": "340e2174",
			"callSelectorWithParams(bytes)": "b773a368",
			"targetContract()": "bd90df70"
		}
	},
	"abi": [
		{
			"anonymous": false,
			"inputs": [
				{
					"indexed": false,
					"internalType": "bytes",
					"name": "data",
					"type": "bytes"
				}
			],
			"name": "Called",
			"type": "event"
		},
		{
			"stateMutability": "payable",
			"type": "fallback"
		},
		{
			"inputs": [],
			"name": "call4242",
			"outputs": [
				{
					"internalType": "bool",
					"name": "ok",
					"type": "bool"
				},
				{
					"internalType": "bytes",
					"name": "ret",
					"type": "bytes"
				}
			],
			"stateMutability": "nonpayable",
			"type": "function"
		},
		{
			"inputs": [],
			"name": "callSelector42",
			"outputs": [
				{
					"internalType": "bool",
					"name": "success",
					"type": "bool"
				},
				{
					"internalType": "bytes",
					"name": "data",
					"type": "bytes"
				}
			],
			"stateMutability": "nonpayable",
			"type": "function"
		},
		{
			"inputs": [
				{
					"internalType": "bytes",
					"name": "params",
					"type": "bytes"
				}
			],
			"name": "callSelectorWithParams",
			"outputs": [
				{
					"internalType": "bool",
					"name": "success",
					"type": "bool"
				},
				{
					"internalType": "bytes",
					"name": "data",
					"type": "bytes"
				}
			],
			"stateMutability": "nonpayable",
			"type": "function"
		},
		{
			"inputs": [],
			"name": "targetContract",
			"outputs": [
				{
					"internalType": "address",
					"name": "",
					"type": "address"
				}
			],
			"stateMutability": "view",
			"type": "function"
		},
		{
			"stateMutability": "payable",
			"type": "receive"
		}
	]
}